:020000040000FA
:100000000C9462000C948A000C948A000C948A0070
:100010000C948A000C948A000C948A000C948A0038
:100020000C948A000C948A000C948A000C94AD0104
:100030000C948A000C948A000C948A000C948A0018
:100040000C9463010C948A000C948A000C948A002E
:100050000C948A000C948A000C948A000C948A00F8
:100060000C948A000C948A000000000024002700F1
:100070002A0000000000250028002B0000000000DE
:1000800023002600290004040404040404040202DA
:100090000202020203030303030301020408102007
:1000A0004080010204081020010204081020000012
:1000B0000008000201000003040700000000000027
:1000C00000006A0311241FBECFEFD8E0DEBFCDBF12
:1000D00014E0A0E0B1E0E6EFF8E002C005900D9278
:1000E000A030B107D9F728E0A0E0B4E001C01D922C
:1000F000AD34B207E1F710E0C2E6D0E004C02197CA
:10010000FE010E947304C136D107C9F70E94DF01C6
:100110000C9479040C940000833081F028F4813031
:1001200099F08230A9F008958730A9F08830C9F09D
:100130008430B1F4809180008F7D03C08091800075
:100140008F7780938000089584B58F7784BD08955C
:1001500084B58F7DFBCF8091B0008F778093B00006
:1001600008958091B0008F7DF9CFCF93DF93E0EBBE
:10017000F0E08491ECE9F0E0D491E8E8F0E0C4919B
:10018000CC23A1F081110E948C00EC2FF0E0EE0F47
:10019000FF1FE458FF4FA591B491EC91ED2381E04E
:1001A00090E009F480E0DF91CF91089580E090E045
:1001B000FACF1F93CF93DF93282F30E0F901E25558
:1001C000FF4F8491F901E656FF4FD491F901EA57A8
:1001D000FF4FC491CC23A9F0162F81110E948C00EF
:1001E000EC2FF0E0EE0FFF1FEE58FF4FA591B491FA
:1001F0008FB7F894EC91111108C0D095DE23DC93F1
:100200008FBFDF91CF911F910895DE2BF8CFCF9351
:10021000DF9390E0FC01E656FF4F24918A579F4FF1
:10022000FC0184918823D1F090E0880F991FFC0194
:10023000E859FF4FA591B491FC01EE58FF4FC591CD
:10024000D49161110EC09FB7F8948C91E22FE09584
:100250008E238C932881E223E8839FBFDF91CF9187
:1002600008958FB7F894EC91E22BEC938FBFF6CF03
:100270008EBD00000DB407FEFDCF8EB508951F930F
:10028000CF93DF93182FEB010E94B500892BE1F388
:1002900060E086E00E94D90082E00E943801812F50
:1002A0000E9438018D2F0E9438018C2F0E94380146
:1002B0000E94B500892BE1F361E086E0DF91CF91E8
:1002C0001F910C94D9001F920F920FB60F92112418
:1002D0002F933F938F939F93AF93BF938091490840
:1002E00090914A08A0914B08B0914C083091480871
:1002F00023E0230F2D3758F50196A11DB11D209342
:1003000048088093490890934A08A0934B08B093FB
:100310004C088091440890914508A0914608B091FE
:1003200047080196A11DB11D80934408909345088C
:10033000A0934608B0934708BF91AF919F918F91CA
:100340003F912F910F900FBE0F901F90189526E8A8
:10035000230F0296A11DB11DD2CF1F920F920FB68F
:100360000F9211242F933F934F935F936F937F933B
:100370008F939F93AF93BF93CF93DF93EF93FF93AD
:10038000C3E0D4E081E088830E94D80363E070E09A
:100390000E944B049A838983FF91EF91DF91CF9163
:1003A000BF91AF919F918F917F916F915F914F918D
:1003B0003F912F910F900FBE0F901F90189578943A
:1003C00084B5826084BD84B5816084BD85B582605A
:1003D00085BD85B5816085BD80916E00816080930B
:1003E0006E00109281008091810082608093810074
:1003F0008091810081608093810080918000816084
:10040000809380008091B10084608093B1008091DE
:10041000B00081608093B00080917A008460809306
:100420007A0080917A00826080937A0080917A00CD
:10043000816080937A0080917A00806880937A004E
:100440001092C100F89410928000109281001092D6
:1004500085001092840082E49FE09093890080934D
:100460008800809181008860809381008091810064
:1004700085608093810080916F00826080936F001F
:10048000789461E088E00E94070160E082E00E94C9
:10049000070161E086E00E94070161E087E00E94B9
:1004A0000701CFB7F89480910004811127C0E0E9DB
:1004B000F0E08491E4EAF0E09491E82FF0E0EE0FB0
:1004C000FF1FE859FF4FA591B491EC91E92321F466
:1004D00061E08AE00E94D90061E08AE00E940701A1
:1004E0008CB580618CBD8CB580648CBD61E08DE085
:1004F0000E94070161E08BE00E94070180910004E7
:100500008F5F80930004CFBF8CB58C7F81608CBDE2
:100510008DB58E7F8DBD8FEF0E94380161E088E040
:100520000E94D90061E086E00E94D90061E087E086
:100530000E94D90060E070E683E00E943F016FE412
:100540007FE48BE00E943F018CB58C7F8CBD8DB524
:100550008E7F8DBDC4EDD3E084E0C030D80709F0B4
:1005600089C004E418E0E4EBEE2EF12CC0E0D0E00A
:10057000CC24C394D12C0E94B500892BE1F3809147
:1005800003048823D1F07CEDA72E76E0B72E0E94DD
:10059000D803B7010E944B04F501819391935F0149
:1005A0000E171F07A1F71092090410920804D092A9
:1005B0000B04C0920A0410920304809108049091E5
:1005C0000904843B91056CF080910A0490910B041E
:1005D0001092090410920804019690930B048093E2
:1005E0000A0480910404909105042091080430913C
:1005F0000904009709F04FC0F901EE0FFF1FED5FEE
:10060000FB4FDF01AF58BE4F818592854D915C91C4
:10061000840F951F9E5F90930704809306042F5FBD
:100620003F4F309309042093080480910604909171
:10063000070460910A0470910B040E944B045B0153
:10064000B594A794A0920204A092010460E087E010
:100650000E94D9008A2D0E9438018A2D0E943801FB
:1006600061E087E00E94D900209709F484CF0E94BE
:10067000000081CF19910E94B500892BE1F360E061
:1006800087E00E94D900812F0E94380161E087E055
:100690000E94D90061CF8130910589F4F901EE0FF4
:1006A000FF1FED5FFB4FDF01A752BD4F8D919C9166
:1006B000959587959595879541855285A9CF029700
:1006C00009F0ADCFF901EE0FFF1FE452F94F808121
:1006D0009181A0CFE3E0F4E01082128211821482B3
:1006E00013821682158281E090E09087878388E6E6
:1006F00091E0E4E0F1E0ACE0B4E001900D9201970C
:10070000E1F788E691E0ECE6F2E0A4E7B5E00190DD
:100710000D920197E1F708958F929F92AF92BF9249
:10072000CF92DF92EF92FF92CF93DF93EC0168813B
:1007300079818A819B81611571058105910521F47B
:1007400064E279ED8BE597E02DE133EF41E050E095
:100750000E94E80349015A019B01AC01A7EAB1E4F8
:100760000E9407046B017C01ACEEB4EFA50194017B
:100770000E941504DC01CB018C0D9D1DAE1DBF1D1B
:10078000B7FF03C00197A109B04888839983AA8362
:10079000BB839F77DF91CF91FF90EF90DF90CF9059
:1007A000BF90AF909F908F9008950E948C03089502
:1007B00080E091E00E948C030895B0E0A0E0809377
:1007C000000190930101A0930201B09303010895E9
:1007D000052E97FB1EF400940E94FF0357FD07D0DF
:1007E0000E941A0407FC03D04EF40C94FF035095AA
:1007F0004095309521953F4F4F4F5F4F089590950D
:100800008095709561957F4F8F4F9F4F08950E94FF
:100810003C04A59F900DB49F900DA49F800D911D49
:1008200011240895B7FF0C9407040E940704821B4B
:10083000930B0895A1E21A2EAA1BBB1BFD010DC04C
:10084000AA1FBB1FEE1FFF1FA217B307E407F50780
:1008500020F0A21BB30BE40BF50B661F771F881F5C
:10086000991F1A9469F760957095809590959B01F2
:10087000AC01BD01CF010895A29FB001B39FC0019B
:10088000A39F700D811D1124911DB29F700D811DBC
:100890001124911D089597FB072E16F4009407D09C
:1008A00077FD09D00E945F0407FC05D03EF49095C7
:1008B00081959F4F0895709561957F4F0895AA1B6C
:1008C000BB1B51E107C0AA1FBB1FA617B70710F03B
:1008D000A61BB70B881F991F5A95A9F7809590956D
:1008E000BC01CD010895EE0FFF1F0590F491E02D9E
:1008F0000994F894FFCF01000000000011002200CD
:100900003400450056006700780089009A00AB006B
:10091000BB00CB00DB00EA00FA000801170125014B
:10092000330141014E015B01670173017F018A01BF
:1009300094019E01A801B101B901C101C801CF0113
:10094000D501DB01E001E501E901EC01EF01F10175
:10095000F201F301F401F301F201F101EF01EC0105
:10096000E901E501E001DB01D501CF01C801C101C9
:10097000B901B101A8019E0194018A017F017301AF
:1009800067015B014E014101330125011701080197
:10099000FA00EA00DB00CB00BB00AB009A00890044
:1009A0007800670056004500340022001100000066
:1009B000EEFFDDFFCBFFBAFFA9FF98FF87FF76FFB1
:1009C00065FF54FF44FF34FF24FF15FF06FFF7FEC9
:1009D000E8FEDAFECCFEBEFEB1FEA4FE98FE8CFE62
:1009E00080FE75FE6BFE61FE57FE4EFE46FE3EFE2D
:1009F00037FE30FE2AFE24FE1FFE1AFE16FE13FEF0
:100A000010FE0EFE0DFE0CFE0CFE0CFE0DFE0EFE8C
:100A100010FE13FE16FE1AFE1FFE24FE2AFE30FEF6
:100A200037FE3EFE46FE4EFE57FE61FE6BFE75FE35
:100A300080FE8CFE98FEA4FEB1FEBEFECCFEDAFE69
:100A4000E8FEF7FE06FF15FF24FF34FF44FF54FFC6
:100A500065FF76FF87FF98FFA9FFBAFFCBFFDDFF99
:100A6000EEFF0000A0016D0141014E0133011701AD
:100A70001701FE00E800E300CB00B900B2009B00C4
:100A80008C0083006E006100580044003900300083
:100A90001E0015000B00FCFFF5FFEBFFDEFFD8FF8B
:100AA000D0FFC4FFC1FFB9FFB0FFAEFFA8FFA1FF99
:100AB000A1FF9BFF98FF99FF95FF93FF96FF93FF80
:100AC00095FF99FF98FF9BFFA1FFA1FFA8FFAEFF35
:100AD000B0FFB9FFC1FFC4FFD0FFD8FFDEFFEBFFBF
:100AE000F5FFFCFF0B0015001E003000390044002C
:100AF000580061006E0083008C009B00B200B900BA
:100B0000CB00E300E800FE001701170133014E019E
:100B100041016D01A00100005FFE92FEBEFEB1FE2C
:100B2000CCFEE8FEE8FE01FF17FF1CFF34FF46FF86
:100B30004DFF64FF73FF7CFF91FF9EFFA7FFBBFF8C
:100B4000C6FFCFFFE1FFEAFFF4FF03000A00140035
:100B5000210027002F003B003E0046004F005100BF
:100B600057005E005E006400670066006A006C006B
:100B700069006C006A006600670064005E005E0049
:100B8000570051004F0046003E003B002F00270059
:100B9000210014000A000300F4FFEAFFE1FFCFFF89
:100BA000C6FFBBFFA7FF9EFF91FF7CFF73FF64FFA3
:100BB0004DFF46FF34FF1CFF17FF01FFE8FEE8FE74
:100BC000CCFEB1FEBEFE92FE5FFE52494646FFFFDE
:100BD000FFFF57415645666D74201000000001006C
:100BE00002002256000044AC0000020008006461CC
:060BF0007461FFFFFFFF2E
:107E0000112484B714BE81FFF0D085E080938100F7
:107E100082E08093C00088E18093C10086E0809377
:107E2000C20080E18093C4008EE0C9D0259A86E02C
:107E300020E33CEF91E0309385002093840096BBD3
:107E4000B09BFECF1D9AA8958150A9F7CC24DD24C4
:107E500088248394B5E0AB2EA1E19A2EF3E0BF2EE7
:107E6000A2D0813461F49FD0082FAFD0023811F036
:107E7000013811F484E001C083E08DD089C08234E0
:107E800011F484E103C0853419F485E0A6D080C0E4
:107E9000853579F488D0E82EFF2485D0082F10E0AE
:107EA000102F00270E291F29000F111F8ED06801E7
:107EB0006FC0863521F484E090D080E0DECF843638
:107EC00009F040C070D06FD0082F6DD080E0C81688
:107ED00080E7D80618F4F601B7BEE895C0E0D1E017
:107EE00062D089930C17E1F7F0E0CF16F0E7DF06D8
:107EF00018F0F601B7BEE89568D007B600FCFDCFD4
:107F0000A601A0E0B1E02C9130E011968C91119780
:107F100090E0982F8827822B932B1296FA010C0160
:107F200087BEE89511244E5F5F4FF1E0A038BF0790
:107F300051F7F601A7BEE89507B600FCFDCF97BE46
:107F4000E89526C08437B1F42ED02DD0F82E2BD052
:107F50003CD0F601EF2C8F010F5F1F4F84911BD097
:107F6000EA94F801C1F70894C11CD11CFA94CF0C13
:107F7000D11C0EC0853739F428D08EE10CD085E9AC
:107F80000AD08FE07ACF813511F488E018D01DD067
:107F900080E101D065CF982F8091C00085FFFCCF94
:107FA0009093C60008958091C00087FFFCCF809118
:107FB000C00084FD01C0A8958091C6000895E0E648
:107FC000F0E098E1908380830895EDDF803219F02E
:107FD00088E0F5DFFFCF84E1DECF1F93182FE3DFCA
:107FE0001150E9F7F2DF1F91089580E0E8DFEE27F6
:047FF000FF270994CA
:027FFE00040479
:00000001FF
