:020000040000FA
:100000000C9470040C948D040C948D040C948D0449
:100010000C948D040C948D040C948D040C948D041C
:100020000C948D040C948D040C948D040C948D040C
:100030000C948D040C948D040C948D040C948D04FC
:100040000C9457060C948D040C948D040C948D0420
:100050000C948D040C948D040C948D040C948D04DC
:100060000C948D040C948D04070001005080060050
:10007000F003002880800600162000F4954006005A
:1000800017000930401C0930C21F20602400000006
:10009000C21F0020000020B0424513362400060095
:1000A0005700153E151C2000D41F8035023804F27D
:1000B0000438FF0F44FE44A2041800F494400028C2
:1000C00085190930C21B00F4004500200000F536F8
:1000D000153C093057380028401B300057040930C0
:1000E00057383000570A143E06F8013724800600BE
:1000F0001700043E139C2000D21F813B2480F4365D
:1001000013BCF43606D83000170700210000053F65
:10011000D7DB30000FF800000E1F002880760000AB
:100120004D0000F49545003ECC17053502F87337B5
:10013000240063372400003724000000C209246033
:10014000240000360218302855F800004D00002821
:100150004022F336240013362400123E17B8123E14
:100160001538053E14B82536240000000A80103EDC
:100170000138103E03B8113E1038043E1278C334E3
:10018000240040342400804024001B000133002858
:10019000852C0000800100005105000002AF3C29C1
:1001A000401F0700C1FF10B04C13180001001040A1
:1001B000D0100700C1FF20FE0C0200009105B648D8
:1001C0002400D64D2400010002223C29401F804318
:1001D000032010B04C13180001001040101020FE36
:1001E0000C02B6484C84D64D240080B80320343429
:1001F000240000288052833024001C00C2CC000060
:10020000D105D33424000434240004340C420130DA
:10021000CC0508A44C04003124001060240020FE0A
:100220002400B6482400D64D2400104324008844FE
:10023000002400005105002895320434240090F277
:10024000CC000038240034342400733024001330F0
:10025000240000284043003824008330240000306C
:100260002400026424000000011000281836180041
:10027000020034342440333124000031240020FEB5
:100280002400B6482400D64D2400002840430039FD
:1002900024C01040111002642400000090050028C2
:1002A00018390000240090F2CC04003924003434C2
:1002B0002400733024001330240000284043003809
:1002C0002400833124000031240002642400000053
:1002D00001100028983C19008299343424003330EE
:1002E00024000030240020FE2400B6482400D64D0F
:1002F000240000284043003824C010402400026439
:1003000024001D008270002898410000240090F213
:1003100010103330240000382400043424007330DB
:10032000240013302400003824000400504D103005
:100330002400F03024403434244043312400103968
:10034000240000284043F039244034342400333062
:1003500024000030240020FE2400B6482400D64D9E
:100360002400003824C01E008299010012100000F1
:100370008103D3344C1844342400733024001330E8
:1003800024000030240020FE2400B6482400D64D6E
:10039000240080430330003424003D290029003E1E
:1003A00024000930C0333B2940C510000400D33479
:1003B0004C18443424007330C013733024003B299C
:1003C00080F8010011100100100001001110D33459
:1003D0004C1830342400104024000000C105103EA9
:1003E00024003B2980AC060092000000D105F336C2
:1003F0004C130434240083302400003024001260A5
:1004000024001300043300289851010082C6000024
:1004100000050100120004344C583331240000312F
:1004200024400000D10522FE2400B6482400D64D09
:100430002400103E24C030342480044224003B2990
:1004400080B5003E2480E3364C13343424008330DE
:100450002400003024009060240000381218F43684
:100460002440F1361018F0360398F03601180534A0
:100470001490F3362400F236151800200000F236EE
:10048000179813362400123E17B8123E1538053E51
:1004900014B81536240000000A80103E0138103EC2
:1004A00004B8013E10780800D004002980140130FF
:1004B00024008040CC030030240000288574904044
:1004C00024000000240000284562000024000000F1
:1004D0008100003024001260240000000104002884
:1004E000C5700000240012602400000024000028D1
:1004F0004566000024000029801600002400884082
:100500008C0000000020006424000000003C002853
:10051000D85E000024000028006301382400006435
:100520008C0300002400002818630000240013300E
:100530002400002980140138240080402400000099
:10054000240000285562000024009068CC03002895
:100550008074003824000029801608001005003837
:1005600024000000003C006424003F0000FF00283D
:10057000086B000024000000C03F0064240000005D
:10058000003C0028C57300642400000024000028FB
:10059000D5730000240080B84C180029801409305D
:1005A00000388240C09B146024000000043C0028F6
:1005B00041690000C13D002980160000240000F4BC
:1005C00004400000C13D126424000800900400288B
:1005D000856A0000000000000004002880740038D4
:1005E00024000800D004013024400AA524000000A3
:1005F000C0030AB5240000000003006524000000C9
:100600002400002988140000486F00008003006562
:100610002400000024000028957100002400002917
:100620008014000024008040CC03000080000028DB
:10063000D5700000240000288074003824000029B0
:100640008016000024008A4024000800100513369C
:100650002400113E2440F0302400103E24000030DD
:100660002440312980E0003E2440D336240000009D
:1006700000000800900400382400F1361058F036CD
:100680000498F036011805341490F3362400F2363D
:10069000151800200000F2361798050051BE010021
:1006A000100013362400053E14B83536240000002F
:1006B0000A8080B84C1082B8C0331429C0BE040030
:1006C00080C51900C0980400904E003824001F0017
:1006D00000FF3129406C00392400312940660000B8
:1006E000240000290055000001801229000D133656
:1006F000240012602400000005800028187B0400FC
:10070000504D1229000D13368C1034298041E03CE5
:10071000240000000010233424000029800AE13462
:10072000240082B84200F03024C0C24D24001038AA
:1007300024000028007BF0382440123E17B8123EF7
:100740001538053E14B81536240000000A80103E06
:1007500001380000810080B811B830009102143EC9
:10076000240030009006143E13B83000D300070078
:1007700052920038240010392400003A240000006E
:10078000C0C00039240030000000060051000829D4
:100790000064003B240080B88C000038240000383E
:1007A00024000300400D060090C40829807F093012
:1007B00000203000D00A00384C182B000011103EE9
:1007C00024000929C0A9103E24400A0001800829FC
:1007D000807FE336240080B8002006001000093036
:1007E000102406001100093010240800900410386D
:1007F000240000382400000090080F29C0FC0600E7
:1008000080830A000180000050090F29C0FC060007
:1008100080B30000C00930009006906800203000CE
:10082000101390680020300090040029001E00384A
:100830002400F4361398F4361118F03601180534F4
:100840001490F3362400F236151800200000F2361A
:10085000179807000100005806000400001800184F
:10086000CC98957307000100258006000200002A3D
:10087000CE1A07000100228006000200002A0E1A8C
:100880000A000100500000000000240027002A0098
:1008900000000000250028002B00000000002300BD
:1008A00026002900040404040404040402020202D1
:1008B0000202030303030303010204081020408023
:1008C00001020408102001020408102000000008A2
:1008D0000002010000030407000000000000000007
:1008E00011241FBECFEFD8E0DEBFCDBF11E0A0E0E6
:1008F000B1E0E2EEF5E102C005900D92A030B10743
:10090000D9F721E0A0E0B1E001C01D92AA32B20700
:10091000E1F70E94A1060C94EF0A0C9400008330CA
:1009200081F028F4813099F08230A9F00895873061
:10093000A9F08830C9F08430B1F4809180008F7DB7
:1009400003C0809180008F7780938000089584B5E4
:100950008F7784BD089584B58F7DFBCF8091B000E3
:100960008F778093B00008958091B0008F7DF9CF8C
:10097000CF93DF93EEECF8E08491EAEBF8E0D491CA
:10098000E6EAF8E0C491CC23A1F081110E948F0423
:10099000EC2FF0E0EE0FFF1FE656F74FA591B49154
:1009A000EC91ED2381E090E009F480E0DF91CF91BC
:1009B000089580E090E0FACF1F93CF93DF93282F24
:1009C00030E0F901E453F74F8491F901E854F74F0F
:1009D000D491F901EC55F74FC491CC23A9F0162F0F
:1009E00081110E948F04EC2FF0E0EE0FFF1FE05703
:1009F000F74FA591B4918FB7F894EC91111108C0FD
:100A0000D095DE23DC938FBFDF91CF911F910895A6
:100A1000DE2BF8CFCF93DF9390E0FC01E854F74F43
:100A200024918C55974FFC0184918823D1F090E05C
:100A3000880F991FFC01EA57F74FA591B491FC016B
:100A4000E057F74FC591D49161110EC09FB7F8944C
:100A50008C91E22FE0958E238C932881E223E8830A
:100A60009FBFDF91CF9108958FB7F894EC91E22B5F
:100A7000EC938FBFF6CF3FB7F89480912601909109
:100A80002701A0912801B091290126B5A89B05C096
:100A90002F3F19F00196A11DB11D3FBFBA2FA92FFD
:100AA000982F8827BC01CD01620F711D811D911DFA
:100AB00042E0660F771F881F991F4A95D1F7089566
:100AC0008F929F92AF92BF92CF92DF92EF92FF925E
:100AD0000E943B054B015C018DE7C82ED12CE12C17
:100AE000F12C0E943B05681979098A099B09683E27
:100AF000734081059105A8F321E0C21AD108E108ED
:100B0000F10888EE880E83E0981EA11CB11CC11468
:100B1000D104E104F10429F7FF90EF90DF90CF902A
:100B2000BF90AF909F908F9008958EBD00000DB440
:100B300007FEFDCF8EB508951F93CF93DF93182F37
:100B4000EB010E94B804892BE1F360E086E00E948B
:100B5000DC0482E00E949505812F0E9495058D2F6F
:100B60000E9495058C2F0E9495050E94B804892B40
:100B7000E1F361E086E0DF91CF911F910C94DC04FA
:100B8000CF93C82F60E07CE080E00E949C05C06BA2
:100B90008C2F0E94950580E00E9495058BE50E94B0
:100BA000950580E00E9495058FE70E94950580E0FD
:100BB0000E9495058C2F0E94950580E00E94950566
:100BC0008CE00E94950580E00E94950580E00E94DF
:100BD000950580E0CF910C949505CF93C82F60E0E8
:100BE0007CE080E00E949C058C2F806B0E94950524
:100BF00080E00E94950588E70E94950580E00E94AC
:100C000095058FEF0E94950580E0CF910C94950596
:100C1000CF93DF93D82FC62F60E07CE080E00E9466
:100C20009C058D2F806B0E94950580E00E949505A4
:100C30008AE00E94950580E00E9495058C2F0E9415
:100C4000950580E0DF91CF910C9495050F931F934C
:100C5000CF93DF93C82F062F142FD22F60E07CE0B4
:100C600080E00E949C058C2F806C0E94950580E09E
:100C70000E949505802F0E94950580E00E949505B1
:100C80008C2F80690E94950580E00E949505812F38
:100C90000E94950580E00E9495058D2F0E94950584
:100CA00080E0DF91CF911F910F910C9495051F92D9
:100CB0000F920FB60F9211242F933F938F939F9310
:100CC000AF93BF938091220190912301A0912401C1
:100CD000B09125013091210123E0230F2D3758F5E4
:100CE0000196A11DB11D20932101809322019093B3
:100CF0002301A0932401B0932501809126019091B6
:100D00002701A0912801B09129010196A11DB11DD3
:100D10008093260190932701A0932801B093290185
:100D2000BF91AF919F918F913F912F910F900FBEE7
:100D30000F901F90189526E8230F0296A11DB11D54
:100D4000D2CFCF93DF93CDB7DEB728970FB6F89405
:100D5000DEBF0FBECDBF789484B5826084BD84B5FC
:100D6000816084BD85B5826085BD85B5816085BDA6
:100D700080916E00816080936E001092810080915E
:100D800081008260809381008091810081608093E6
:100D90008100809180008160809380008091B1000B
:100DA00084608093B1008091B00081608093B00036
:100DB00080917A00846080937A0080917A008260CA
:100DC00080937A0080917A00816080937A0080918C
:100DD0007A00806880937A001092C10061E088E018
:100DE0000E940A0560E082E00E940A0561E086E058
:100DF0000E940A0561E087E00E940A052FB7298357
:100E0000F89480910001811127C0EEEAF8E0849106
:100E1000E2ECF8E09491E82FF0E0EE0FFF1FEA57C4
:100E2000F74FA591B491EC91E92321F461E08AE0B8
:100E30000E94DC0461E08AE00E940A058CB58061B2
:100E40008CBD8CB580648CBD61E08DE00E940A058C
:100E500061E08BE00E940A05809100018F5F809322
:100E6000000139813FBF8CB58C7F81608CBD8DB511
:100E70008E7F8DBD8FEF0E94950561E088E00E9416
:100E8000DC0461E086E00E94DC0461E087E00E940F
:100E9000DC0410E000E0C801880F991FFC01E8594C
:100EA000FF4F25913491B22E6801A2E0CA0ED11CE9
:100EB000FC01E659FF4F259134913A832983F12CA7
:100EC000E12C37FF25C03F773A8329830D5F1F4F01
:100ED000FC01E459FF4FE590F49089819A810197D4
:100EE0009A8389830196E1F0B7018B2D0E949C05BE
:100EF000F4CFF801EE0DFF1DEE0FFF1FE459FF4F79
:100F0000659174918B2D0E949C05FFEFEF1AFF0AEB
:100F1000E981FA81EE15FF0561F78F010C0D1D1DAA
:100F20000F3084E018070CF4B6CF68EE7BE883E05E
:100F30000E949C056FE37FE38BE00E949C0570E0BC
:100F400060E082E00E949C058CB58C7F8CBD8DB5E5
:100F50008E7F8DBD80E00E94C00581E00E94C005AB
:100F600082E00E94C00583E00E94C00584E00E94E8
:100F7000C00585E00E94C00560E280E00E9408068E
:100F800060E681E00E94080660E382E00E940806B5
:100F900060E583E00E94080668E284E00E9408069B
:100FA00068E585E00E94080681E291E059E0252E7F
:100FB00051E0352E4DEC5CEC6CEC7DE3D1014D93B2
:100FC0005D936D937D931D018A179B07B9F74FE7DA
:100FD000842E912CA12CB12CE3E0F1E0FE83ED8373
:100FE0008F0129E031E038872F833AE5C32E34E6BC
:100FF000D32E3BE6E32E30E4F32E2AE037ED43E236
:101000005CE3C701B6010E9465096B017C01AF81F9
:10101000B8854D905D906D907D90B887AF83A301AA
:1010200092010E94510A69837A838B839C83A30176
:10103000920160E070E080E89FE30E9464099B01F8
:10104000AC0169817A818B819C810E94510AEF8178
:10105000F8853497608371838283938320E030E046
:101060004EEF52E40E94510A0E94D109F8016193A7
:101070008F012F8138852216330609F0BECFE3E0B9
:10108000F1E0612C8191682689E091E08E179F073D
:10109000C9F718861F82462C062C000C5508AD8116
:1010A000BE817D90BE83AD83872D90E0B0E0A0E04F
:1010B00089839A83AB83BC83072D10E0B80190E04D
:1010C00080E026E0660F771F881F991F2A95D1F7C9
:1010D000A50194010E94090969017A0190E2C90EF3
:1010E000D11CE11CF11CC09202019801D8010E94A0
:1010F0005509A50194010E9409098EEE820F8630E0
:1011000008F484C020930101C2010F8002C09595AC
:1011100087950A94E2F780FF27C0E894C7F8769491
:10112000272D30E0245E3F4F032E000C440B550B5F
:101130002C5031094109510969817A818B819C8147
:101140000E94BE0AA50194010E940909BA01A901E1
:10115000445F5F4F6F4F7F4F4F77609101016B7717
:101160002C2D8F810E942606AF81B8851196B887F5
:10117000AF83169709F093CF28E230E0D2010E94A6
:10118000DC0AA50194010E940909205D3F4F4F4FE1
:101190005F4FB22FBF77B983262D2F7730E0AFE1B5
:1011A000B0E00E945509A50194010E940909BA0105
:1011B000A9014D5D5F4F6F4F7F4F298160E089E04E
:1011C0000E9426060E946005862D66E00E94CE0AD7
:1011D00080E0992379F081E0913061F082E09230F3
:1011E00049F083E0933031F084E0943019F0953089
:1011F00019F485E00E94ED050E946005E0E0F0E052
:10120000EF2B09F4E9CE0E940000E6CE1092010116
:101210007BCF052E97FB1EF400940E94200957FDFA
:1012200007D00E94330907FC03D04EF40C94200928
:1012300050954095309521953F4F4F4F5F4F089502
:1012400090958095709561957F4F8F4F9F4F089532
:101250000E945509A59F900DB49F900DA49F800DED
:10126000911D11240895A1E21A2EAA1BBB1BFD019A
:101270000DC0AA1FBB1FEE1FFF1FA217B307E40775
:10128000F50720F0A21BB30BE40BF50B661F771FCD
:10129000881F991F1A9469F76095709580959095AD
:1012A0009B01AC01BD01CF010895A29FB001B39F86
:1012B000C001A39F700D811D1124911DB29F700D5F
:1012C000811D1124911D08955058BB27AA270E9403
:1012D0007C090C94170A0E94090A38F00E94100A2F
:1012E00020F039F49F3F19F426F40C94060A0EF40A
:1012F000E095E7FB0C94000AE92F0E94280A58F3B6
:10130000BA17620773078407950720F079F4A6F5EA
:101310000C944A0A0EF4E0950B2EBA2FA02D0B0167
:10132000B90190010C01CA01A0011124FF27591B2A
:1013300099F0593F50F4503E68F11A16F040A22F30
:10134000232F342F4427585FF3CF469537952795A1
:10135000A795F0405395C9F77EF41F16BA0B620BA0
:10136000730B840BBAF09150A1F0FF0FBB1F661FE7
:10137000771F881FC2F70EC0BA0F621F731F841F2A
:1013800048F4879577956795B795F7959E3F08F050
:10139000B0CF9395880F08F09927EE0F9795879512
:1013A00008950E94300A88F09F5798F0B92F992726
:1013B000B751B0F0E1F0660F771F881F991F1AF040
:1013C000BA95C9F714C0B13091F00E944A0AB1E051
:1013D00008950C944A0A672F782F8827B85F39F050
:1013E000B93FCCF3869577956795B395D9F73EF4D9
:1013F00090958095709561957F4F8F4F9F4F089581
:1014000097F99F6780E870E060E008959FEF80ECB7
:10141000089500240A94161617061806090608955A
:1014200000240A9412161306140605060895092EC0
:101430000394000C11F4882352F0BB0F40F4BF2B2F
:1014400011F460FF04C06F5F7F4F8F4F9F4F08956F
:1014500057FD9058440F551F59F05F3F71F0479565
:10146000880F97FB991F61F09F3F79F0879508954A
:10147000121613061406551FF2CF4695F1DF08C069
:10148000161617061806991FF1CF86957105610586
:1014900008940895E894BB2766277727CB0197F92E
:1014A00008950E94640A0C94170A0E94090A38F0F1
:1014B0000E94100A20F0952311F00C94000A0C945D
:1014C000060A11240C944B0A0E94280A70F3959F77
:1014D000C1F3950F50E0551F629FF001729FBB272B
:1014E000F00DB11D639FAA27F00DB11DAA1F649FC7
:1014F0006627B00DA11D661F829F2227B00DA11D7A
:10150000621F739FB00DA11D621F839FA00D611DFF
:10151000221F749F3327A00D611D231F849F600D20
:10152000211D822F762F6A2F11249F5750409AF049
:10153000F1F088234AF0EE0FFF1FBB1F661F771FD5
:10154000881F91505040A9F79E3F510580F00C94A0
:10155000000A0C944B0A5F3FE4F3983ED4F386955F
:1015600077956795B795F795E7959F5FC1F7FE2B40
:10157000880F911D9695879597F90895DB018F93B4
:101580009F930E942809BF91AF91A29F800D911D4A
:10159000A39F900DB29F900D1124089587FB082EF4
:1015A000062687FD819567FD61950E94E30A0EF48A
:1015B000919507FC819508950E945509B7FF0895FC
:1015C000821B930B0895991B79E004C0991F96170D
:1015D00008F0961B881F7A95C9F780950895F894AE
:0215E000FFCF3B
:107E0000112484B714BE81FFF0D085E080938100F7
:107E100082E08093C00088E18093C10086E0809377
:107E2000C20080E18093C4008EE0C9D0259A86E02C
:107E300020E33CEF91E0309385002093840096BBD3
:107E4000B09BFECF1D9AA8958150A9F7CC24DD24C4
:107E500088248394B5E0AB2EA1E19A2EF3E0BF2EE7
:107E6000A2D0813461F49FD0082FAFD0023811F036
:107E7000013811F484E001C083E08DD089C08234E0
:107E800011F484E103C0853419F485E0A6D080C0E4
:107E9000853579F488D0E82EFF2485D0082F10E0AE
:107EA000102F00270E291F29000F111F8ED06801E7
:107EB0006FC0863521F484E090D080E0DECF843638
:107EC00009F040C070D06FD0082F6DD080E0C81688
:107ED00080E7D80618F4F601B7BEE895C0E0D1E017
:107EE00062D089930C17E1F7F0E0CF16F0E7DF06D8
:107EF00018F0F601B7BEE89568D007B600FCFDCFD4
:107F0000A601A0E0B1E02C9130E011968C91119780
:107F100090E0982F8827822B932B1296FA010C0160
:107F200087BEE89511244E5F5F4FF1E0A038BF0790
:107F300051F7F601A7BEE89507B600FCFDCF97BE46
:107F4000E89526C08437B1F42ED02DD0F82E2BD052
:107F50003CD0F601EF2C8F010F5F1F4F84911BD097
:107F6000EA94F801C1F70894C11CD11CFA94CF0C13
:107F7000D11C0EC0853739F428D08EE10CD085E9AC
:107F80000AD08FE07ACF813511F488E018D01DD067
:107F900080E101D065CF982F8091C00085FFFCCF94
:107FA0009093C60008958091C00087FFFCCF809118
:107FB000C00084FD01C0A8958091C6000895E0E648
:107FC000F0E098E1908380830895EDDF803219F02E
:107FD00088E0F5DFFFCF84E1DECF1F93182FE3DFCA
:107FE0001150E9F7F2DF1F91089580E0E8DFEE27F6
:047FF000FF270994CA
:027FFE00040479
:00000001FF
