:020000040000FA
:100000000C94E0020C94FD020C94FD020C94FD0291
:100010000C94FD020C94FD020C94FD020C94FD0264
:100020000C94FD020C94FD020C94FD020C94FD0254
:100030000C94FD020C94FD020C94FD020C94FD0244
:100040000C94FB030C94FD020C94FD020C94FD0235
:100050000C94FD020C94FD020C94FD020C94FD0224
:100060000C94FD020C94FD02070001005080060074
:10007000660230009706003724000000010810C017
:100080002400003F240000284031060016201336CB
:100090002400123E2400053E14B815362400003E0C
:1000A0004138003E50B807005092143E127880B894
:1000B0000C93003824003000D0004034240008297C
:1000C0000064003824003F00C1FC300050000030C4
:1000D0004C1310B02400F0382400303424808462A3
:1000E0000000100001000028C530000024002F008F
:1000F000C1FF10B02400003824000B0000400600AF
:1001000090C40829807F09300020150051BD3000BF
:10011000D00A003824000000C00115290083060021
:1001200050C00000000382B824001429C0BE06009D
:100130001064010000003000500384628020000041
:100140000001002845220038240002F2000010C0FF
:100150002400003824003000900300302400806028
:1001600024000600526500289524E01F40003F004F
:10017000C0FF00382400E01F400006001064703803
:100180008C13003ACC000000C0003000D2030032D3
:10019000244000B124002E0001E000382400203467
:1001A000240012602400170001700028C52F12607F
:1001B00024000B0001B80028C52E106024000000A8
:1001C000C0010028152B30009010003824000000DA
:1001D0008000300050000030244000C1240000386E
:1001E0002400000000000600909F09300020060057
:1001F000509F80B800A00600D09F09300020F43640
:100200001258F0361098F036011805341490F33671
:100210002400F2362400002000000000240000002A
:10022000C001300090100028002B0038240000008E
:100230004001300090100028002B003824000028D6
:10024000401C10C024000000171013362400123E7A
:100250002400053E14B81229001385362400070037
:10026000509280B824001229801100382400000028
:100270008400180000001336240090684038103EB7
:1002800024002E0000E00029C015003E2400E336C3
:100290002400082980BE2E0005E000004102300045
:1002A00090060030240010C0240082B80020000016
:1002B0000000060050A009300020000000100600D9
:1002C00010A009300020040000001529C07A0000A9
:1002D000100012290013000024001229C00E13364A
:1002E000240000F401400000001000612400000020
:1002F00024000028893A0000240000000010133474
:100300004C1800F4124500F410451229801FF334F4
:10031000240000000000000001081260240000001A
:100320002400002801460000240000F41740FF1FAD
:1003300081FC0200110002001001103024801030F6
:1003400024C011312400C6FEC507B64880408AFE8D
:100350002400C651C045B64224001AAD4200906048
:100360004303D66E840310382480203824C0113013
:10037000244011382400D138244010382480F0382B
:1003800024C000F49044203A4C800028403E0038BD
:1003900024800000000813344C18103E24000C295F
:1003A0000073153ECC130028803AE3362400123E39
:1003B00017B8123E0878113E11B8153E1078183E55
:1003C00023B8183E2138103E0138B2482400103EB0
:1003D0000138113E02380930143830001707053F44
:1003E00024C030005103003124008040240030003C
:1003F000D1100028C55201000A8006001465113191
:1004000024809468C1131866240044FE0010B24C86
:100410000604103C2400503C2440F03424401C6668
:10042000401064FE2400B24C2400F03C244082BC06
:1004300080303000510300312480A8FE2400A25CEB
:1004400024000000820122AC2400C8F72400B24836
:10045000240022AC240000284056CCF702103000C3
:1004600094030034244000314C18060051C01E296A
:1004700080800600106488400110300011110031A6
:100480004C18060051C01E298080060050650600E9
:1004900094668C40021024F22400060017A0002865
:1004A000555A000024000028415B060010645030BB
:1004B00024000030244014602400000024000028A0
:1004C00099590000240000F44040B038240000286E
:1004D000405B003824000028015B0000240000F489
:1004E000064100F484413000D506053DD45B00F49C
:1004F0001541F1360218F036011810220000F036CE
:100500000118F8362118F83623980600579F200066
:10051000D0FF0930111C85392440813924800930ED
:10052000113CF5361058F1361198F236085802365B
:1005300024803000170700210000053FD7DB0700AB
:100540000100000806000500667E000000000000B3
:100550000912060003800000070001002380060046
:100560000200002ACE4700000000240027002A00D5
:1005700000000000250028002B00000000002300E0
:1005800026002900040404040404040402020202F4
:100590000202030303030303010204081020408046
:1005A00001020408102001020408102000000008C5
:1005B000000201000003040700000000000000002A
:1005C00011241FBECFEFD8E0DEBFCDBF11E0A0E009
:1005D000B1E0E0E1FDE002C005900D92A430B1076A
:1005E000D9F721E0A4E0B1E001C01D92AE30B2071E
:1005F000E1F70E9445040C9486060C9400008330B9
:1006000081F028F4813099F08230A9F00895873084
:10061000A9F08830C9F08430B1F4809180008F7DDA
:1006200003C0809180008F7780938000089584B507
:100630008F7784BD089584B58F7DFBCF8091B00006
:100640008F778093B00008958091B0008F7DF9CFAF
:10065000CF93DF93EEEAF5E08491EAE9F5E0D491F7
:10066000E6E8F5E0C491CC23A1F081110E94FF02DD
:10067000EC2FF0E0EE0FFF1FE658FA4FA591B49172
:10068000EC91ED2381E090E009F480E0DF91CF91DF
:10069000089580E090E0FACF1F93CF93DF93282F47
:1006A00030E0F901E455FA4F8491F901E856FA4F28
:1006B000D491F901EC57FA4FC491CC23A9F0162F2D
:1006C00081110E94FF02EC2FF0E0EE0FFF1FE059B6
:1006D000FA4FA591B4918FB7F894EC91111108C01D
:1006E000D095DE23DC938FBFDF91CF911F910895CA
:1006F000DE2BF8CFCF93DF9390E0FC01E856FA4F62
:1007000024918C579A4FFC0184918823D1F090E07A
:10071000880F991FFC01EA59FA4FA591B491FC0189
:10072000E059FA4FC591D49161110EC09FB7F8946A
:100730008C91E22FE0958E238C932881E223E8832D
:100740009FBFDF91CF9108958FB7F894EC91E22B82
:10075000EC938FBFF6CF3FB7F89480910A01909148
:100760000B01A0910C01B0910D0126B5A89B05C00D
:100770002F3F19F00196A11DB11D3FBFBA2FA92F20
:10078000982F8827BC01CD01620F711D811D911D1D
:1007900042E0660F771F881F991F4A95D1F7089589
:1007A0008EBD00000DB407FEFDCF8EB508951F93DA
:1007B000CF93DF93182FEB010E942803892BE1F3DD
:1007C00060E086E00E944C0382E00E94D003812F0B
:1007D0000E94D0038D2F0E94D0038C2F0E94D00343
:1007E0000E942803892BE1F361E086E0DF91CF913D
:1007F0001F910C944C031F920F920FB60F9211246D
:100800002F933F938F939F93AF93BF938091060154
:1008100090910701A0910801B09109013091050163
:1008200023E0230F2D3758F50196A11DB11D20930C
:1008300005018093060190930701A0930801B093EE
:10084000090180910A0190910B01A0910C01B091D6
:100850000D010196A11DB11D80930A0190930B011A
:10086000A0930C01B0930D01BF91AF919F918F9117
:100870003F912F910F900FBE0F901F90189526E873
:10088000230F0296A11DB11DD2CF789484B582604A
:1008900084BD84B5816084BD85B5826085BD85B524
:1008A000816085BD80916E00816080936E001092A2
:1008B000810080918100826080938100809181001D
:1008C00081608093810080918000816080938000AE
:1008D0008091B10084608093B1008091B00081600C
:1008E0008093B00080917A00846080937A00809138
:1008F0007A00826080937A0080917A008160809390
:100900007A0080917A00806880937A001092C1000A
:1009100061E088E00E947A0360E082E00E947A034E
:1009200061E086E00E947A0361E087E00E947A033A
:10093000CFB7F89480910401811127C0EEE8F5E06B
:100940008491E2EAF5E09491E82FF0E0EE0FFF1FCA
:10095000EA59FA4FA591B491EC91E92321F461E0B1
:100960008AE00E944C0361E08AE00E947A038CB521
:1009700080618CBD8CB580648CBD61E08DE00E948F
:100980007A0361E08BE00E947A03809104018F5F1B
:1009900080930401CFBF8CB58C7F81608CBD8DB5F9
:1009A0008E7F8DBD8FEF0E94D00361E088E00E94B2
:1009B0004C0361E086E00E944C0361E087E00E9406
:1009C0004C03D0E0C0E0CE01880F991FFC01E8592C
:1009D000FF4F25913491B22E6E0122E0C20ED11C40
:1009E000FC01E659FF4F05911491F12CE12C17FF02
:1009F0001EC01F772396FC01E459FF4FE590F49049
:100A000001501109D0F0B7018B2D0E94D703F8CF08
:100A1000F701EC0FFD1FEE0FFF1FE459FF4F65912B
:100A200074918B2D0E94D7032FEFE21AF20AE01681
:100A3000F10671F7E701CC0DDD1DCF3722E0D207BB
:100A40000CF4C1CF68EE7BE883E00E94D7036FE42B
:100A50007FE48BE00E94D70370E060E082E00E94B8
:100A6000D7038CB58C7F8CBD8DB58E7F8DBD64E436
:100A70007CEA85E00E94D70360E570E08AE00E948E
:100A8000D70390EC492E98EA592E612C712CC0E0C6
:100A9000D0E00E94CB05A30192010E94230660547E
:100AA0007D4E8F4F9F4F85E00E94D7030E94AB037E
:100AB0004B015C018DE7C82ED12CE12CF12C0E945A
:100AC000AB03681979098A099B09683E734081055F
:100AD0009105A8F381E0C81AD108E108F10828EED1
:100AE000820E23E0921EA11CB11CC114D104E104AA
:100AF000F10429F7209769F20E940000CACF8F9273
:100B00009F92AF92BF92CF92DF92EF92FF92CF93DC
:100B1000DF93EC01688179818A819B816115710580
:100B20008105910521F464E279ED8BE597E02DE1F3
:100B300033EF41E050E00E94230649015A019B0136
:100B4000AC01A7EAB1E40E9442066B017C01ACEE65
:100B5000B4EFA50194010E945006C60ED71EE81EF0
:100B6000F91EF7FE06C081E0C81AD108E10880E846
:100B7000F80AC882D982EA82FB82C701B6019F7750
:100B8000DF91CF91FF90EF90DF90CF90BF90AF902B
:100B90009F908F9008958F929F92AF92BF92CF9225
:100BA000DF92EF92FF9260910001709101018091BC
:100BB000020190910301611571058105910521F4F0
:100BC00064E279ED8BE597E02DE133EF41E050E011
:100BD0000E94230649015A019B01AC01A7EAB1E436
:100BE0000E9442066B017C01ACEEB4EFA5019401BA
:100BF0000E945006C60ED71EE81EF91EF7FE06C05C
:100C000081E0C81AD108E10880E8F80AC092000122
:100C1000D0920101E0920201F0920301C701B601F6
:100C20009F77FF90EF90DF90CF90BF90AF909F9015
:100C30008F900895609300017093010180930201E9
:100C4000909303010895052E97FB1EF400940E94D3
:100C50003A0657FD07D00E94550607FC03D04EF414
:100C60000C943A0650954095309521953F4F4F4F43
:100C70005F4F089590958095709561957F4F8F4F48
:100C80009F4F08950E947706A59F900DB49F900DE9
:100C9000A49F800D911D11240895B7FF0C94420666
:100CA0000E944206821B930B0895A1E21A2EAA1BF2
:100CB000BB1BFD010DC0AA1FBB1FEE1FFF1FA2170C
:100CC000B307E407F50720F0A21BB30BE40BF50B09
:100CD000661F771F881F991F1A9469F76095709592
:100CE000809590959B01AC01BD01CF010895A29F15
:100CF000B001B39FC001A39F700D811D1124911DF0
:100D0000B29F700D811D1124911D0895F894FFCF9D
:040D100001000000DE
:107E0000112484B714BE81FFF0D085E080938100F7
:107E100082E08093C00088E18093C10086E0809377
:107E2000C20080E18093C4008EE0C9D0259A86E02C
:107E300020E33CEF91E0309385002093840096BBD3
:107E4000B09BFECF1D9AA8958150A9F7CC24DD24C4
:107E500088248394B5E0AB2EA1E19A2EF3E0BF2EE7
:107E6000A2D0813461F49FD0082FAFD0023811F036
:107E7000013811F484E001C083E08DD089C08234E0
:107E800011F484E103C0853419F485E0A6D080C0E4
:107E9000853579F488D0E82EFF2485D0082F10E0AE
:107EA000102F00270E291F29000F111F8ED06801E7
:107EB0006FC0863521F484E090D080E0DECF843638
:107EC00009F040C070D06FD0082F6DD080E0C81688
:107ED00080E7D80618F4F601B7BEE895C0E0D1E017
:107EE00062D089930C17E1F7F0E0CF16F0E7DF06D8
:107EF00018F0F601B7BEE89568D007B600FCFDCFD4
:107F0000A601A0E0B1E02C9130E011968C91119780
:107F100090E0982F8827822B932B1296FA010C0160
:107F200087BEE89511244E5F5F4FF1E0A038BF0790
:107F300051F7F601A7BEE89507B600FCFDCF97BE46
:107F4000E89526C08437B1F42ED02DD0F82E2BD052
:107F50003CD0F601EF2C8F010F5F1F4F84911BD097
:107F6000EA94F801C1F70894C11CD11CFA94CF0C13
:107F7000D11C0EC0853739F428D08EE10CD085E9AC
:107F80000AD08FE07ACF813511F488E018D01DD067
:107F900080E101D065CF982F8091C00085FFFCCF94
:107FA0009093C60008958091C00087FFFCCF809118
:107FB000C00084FD01C0A8958091C6000895E0E648
:107FC000F0E098E1908380830895EDDF803219F02E
:107FD00088E0F5DFFFCF84E1DECF1F93182FE3DFCA
:107FE0001150E9F7F2DF1F91089580E0E8DFEE27F6
:047FF000FF270994CA
:027FFE00040479
:00000001FF
