:100000000C9471040C94D6110C94AF110C949904B7
:100010000C9499040C9499040C9499040C949904EC
:100020000C9499040C9499040C9499040C949904DC
:100030000C9499040C9499040C94FD110C9499045B
:100040000C9465110C9499040C9433110C940D11BB
:100050000C9499040C9499040C9499040C949904AC
:100060000C9499040C9499040000000025002800C9
:100070002B000000000023002600290000000008DB
:10008000000201000003040700000000000000005F
:1000900000000000240027002A00010204081020AC
:1000A000408001020408102001020408102004040A
:1000B0000404040404040202020202020303030310
:1000C00003030700010050800600F0030028808031
:1000D0000600162000F49540060017000930401C69
:1000E0000930C21F206024000000C21F0020000051
:1000F00020B042451336240006005700153E151C5B
:100100002000D41F8035023804F20438FF0F44FE6B
:1001100044A2041800F49440002885190930C21B39
:1001200000F4004500200000F536153C0930573832
:100130000028401B30005704093057383000570A58
:10014000143E06F80137248006001700043E139C75
:100150002000D21F813B2480F43613BCF43606D82D
:100160003000170700210000053FD7DB30000FF8F3
:1001700000000E1F0028807600004D0000F4954519
:10018000003ECC17053502F873372400633724008E
:10019000003724000000C209246024000036021841
:1001A000302855F800004D0000284022F336240086
:1001B00013362400123E17B8123E1538053E14B807
:1001C0002536240000000A80103E0138103E03B896
:1001D000113E1038043E1278C33424004034240009
:1001E000804024001B0001330028852C0000800182
:1001F00000005105000002AF3C29401F0700C1FF6D
:1002000010B04C13180001001040D0100700C1FFBF
:1002100020FE0C0200009105B6482400D64D2400B3
:10022000010002223C29401F8043032010B04C13E0
:10023000180001001040101020FE0C02B6484C843B
:10024000D64D240080B80320343424000028805286
:10025000833024001C00C2CC0000D105D33424001C
:100260000434240004340C420130CC0508A44C04AE
:10027000003124001060240020FE2400B648240031
:10028000D64D24001043240088440024000051056A
:10029000002895320434240090F2CC000038240069
:1002A00034342400733024001330240000284043E9
:1002B000003824008330240000302400026424002D
:1002C00000000110002818361800020034342440C1
:1002D000333124000031240020FE2400B6482400DD
:1002E000D64D240000284043003924C0104011108E
:1002F0000264240000009005002818390000240042
:1003000090F2CC04003924003434240073302400EB
:100310001330240000284043003824008331240097
:100320000031240002642400000001100028983CE1
:100330001900829934342400333024000030240022
:1003400020FE2400B6482400D64D24000028404357
:10035000003824C010402400026424001D00827074
:10036000002898410000240090F21010333024003F
:100370000038240004342400733024001330240097
:10038000003824000400504D10302400F030244088
:1003900034342440433124001039240000284043E1
:1003A000F039244034342400333024000030240059
:1003B00020FE2400B6482400D64D2400003824C076
:1003C0001E0082990100121000008103D3344C18E2
:1003D00044342400733024001330240000302400FF
:1003E00020FE2400B6482400D64D2400804303306C
:1003F000003424003D290029003E24000930C03388
:100400003B2940C510000400D3344C184434240068
:100410007330C013733024003B2980F801001110A1
:100420000100100001001110D3344C1830342400A6
:10043000104024000000C105103E24003B2980AC80
:10044000060092000000D105F3364C13043424005A
:100450008330240000302400126024001300043391
:1004600000289851010082C600000005010012001A
:1004700004344C5833312400003124400000D105AD
:1004800022FE2400B6482400D64D2400103E24C08D
:1004900030342480044224003B2980B5003E24806F
:1004A000E3364C133434240083302400003024001D
:1004B0009060240000381218F4362440F1361018E9
:1004C000F0360398F036011805341490F336240002
:1004D000F236151800200000F23617981336240063
:1004E000123E17B8123E1538053E14B815362400D2
:1004F00000000A80103E0138103E04B8013E10781A
:100500000800D00400298014013024008040CC036E
:10051000003024000028857490402400000024004E
:100520000028456200002400000081000030240003
:1005300012602400000001040028C570000024009F
:1005400012602400000024000028456600002400FA
:10055000002980160000240088408C000000002044
:10056000006424000000003C0028D85E0000240045
:10057000002800630138240000648C03000024007C
:100580000028186300002400133024000029801480
:100590000138240080402400000024000028556217
:1005A000000024009068CC030028807400382400E8
:1005B0000029801608001005003824000000003CC7
:1005C000006424003F0000FF0028086B00002400A6
:1005D0000000C03F006424000000003C0028C573F8
:1005E00000642400000024000028D57300002400CB
:1005F00080B84C1800298014093000388240C09B14
:10060000146024000000043C002841690000C13D42
:10061000002980160000240000F404400000C13DC1
:1006200012642400080090040028856A000000007D
:100630000000000400288074003824000800D00462
:10064000013024400AA524000000C0030AB524009C
:100650000000000300652400000024000029881425
:100660000000486F000080030065240000002400A3
:100670000028957100002400002980140000240047
:100680008040CC03000080000028D57000002400CA
:1006900000288074003824000029801600002400FF
:1006A0008A4024000800100513362400113E24401F
:1006B000F0302400103E240000302440312980E036
:1006C000003E2440D33624000000000008009004BF
:1006D00000382400F1361058F0360498F03601182E
:1006E00005341490F3362400F2361518002000006B
:1006F000F2361798050051BE010010001336240091
:10070000053E14B83536240000000A8080B84C102D
:1007100082B8C0331429C0BE040080C51900C09837
:100720000400904E003824001F0000FF3129406C67
:1007300000392400312940660000240000290055BA
:10074000000001801229000D1336240012602400DD
:10075000000005800028187B0400504D1229000D70
:1007600013368C1034298041E03C24000000001036
:10077000233424000029800AE134240082B8420096
:10078000F03024C0C24D2400103824000028007B23
:10079000F0382440123E17B8123E1538053E14B802
:1007A0001536240000000A80103E01380000810048
:1007B00080B811B830009102143E24003000900639
:1007C000143E13B83000D3000700529200382400C2
:1007D00010392400003A24000000C0C00039240071
:1007E000300000000600510008290064003B24008E
:1007F00080B88C0000382400003824000300400D2D
:10080000060090C40829807F093000203000D00AFB
:1008100000384C182B000011103E24000929C0A9F3
:10082000103E24400A0001800829807FE33624001E
:1008300080B80020060010000930102406001100C6
:1008400009301024080090041038240000382400D7
:10085000000090080F29C0FC060080830A00018078
:10086000000050090F29C0FC060080B30000C00939
:10087000300090069068002030001013906800202F
:10088000300090040029001E00382400F43613982C
:10089000F4361118F036011805341490F33624009C
:1008A000F236151800200000F236179807000100F4
:1008B00000580600040000180018CC989573070033
:1008C0000100258006000200002ACE1A0700010060
:1008D000228006000200002A0E1A0A0001005000C1
:1008E0007B1211241FBECFEFD8E0DEBFCDBF11E0D9
:1008F000A0E0B1E0EAEAF1E302C005900D92A6346F
:10090000B107D9F724E0A6E4B1E001C01D92A938EF
:10091000B207E1F714E0C1E7D4E004C02197FE017B
:100920000E94A817C037D107C9F70E94E6120C949D
:10093000D3180C940000AF92BF92CF92DF92EF9247
:10094000FF920F931F93CF93DF936C017B018B0179
:10095000040F151FEB015E01AE18BF08C017D107C9
:1009600059F06991D601ED91FC910190F081E02D53
:10097000C6010995892B79F7C501DF91CF911F91A8
:100980000F91FF90EF90DF90CF90BF90AF900895C0
:10099000FC01538D448D252F30E0842F90E0821B85
:1009A000930B541710F0CF96089501970895FC010A
:1009B000918D828D981761F0A28DAE0FBF2FB11D62
:1009C0005D968C91928D9F5F9F73928F90E00895BA
:1009D0008FEF9FEF0895FC01918D828D981731F074
:1009E000828DE80FF11D858D90E008958FEF9FEFC8
:1009F0000895FC01918D228D892F90E0805C9F4F9E
:100A0000821B91098F739927089588E593E00E94CE
:100A1000F90421E0892B09F420E0822F089580E079
:100A200090E0892B29F00E94050581110C940000AB
:100A30000895FC01A48DA80FB92FB11DA35ABF4F73
:100A40002C91848D90E001968F739927848FA689CD
:100A5000B7892C93A089B1898C91837080648C9321
:100A6000938D848D981306C00288F389E02D8081D0
:100A70008F7D80830895EF92FF920F931F93CF9302
:100A8000DF93EC0181E0888F9B8D8C8D98131AC0C9
:100A9000E889F989808185FF15C09FB7F894EE89B0
:100AA000FF896083E889F98980818370806480830D
:100AB0009FBF81E090E0DF91CF911F910F91FF9058
:100AC000EF900895F62E0B8D10E00F5F1F4F0F7300
:100AD0001127E02E8C8D8E110CC00FB607FCFACFBB
:100AE000E889F989808185FFF5CFCE010E9419053B
:100AF000F1CFEB8DEC0FFD2FF11DE35AFF4FF0828C
:100B00009FB7F8940B8FEA89FB8980818062CFCFF1
:100B1000CF93DF93EC01888D8823B9F0AA89BB8934
:100B2000E889F9898C9185FD03C0808186FD0DC01F
:100B30000FB607FCF7CF8C9185FFF2CF808185FF40
:100B4000EDCFCE010E941905E9CFDF91CF91089535
:100B5000833081F028F4813099F08230A9F0089533
:100B60008730A9F08830C9F08430B1F480918000DA
:100B70008F7D03C0809180008F77809380000895DF
:100B800084B58F7784BD089584B58F7DFBCF809128
:100B9000B0008F778093B00008958091B0008F7D72
:100BA000F9CFCF93DF93282F30E0F901E458FF4FBE
:100BB0008491F901E656FF4FD491F901E255FF4FB8
:100BC000C491CC23A1F081110E94A805EC2FF0E084
:100BD000EE0FFF1FEE58FF4FA591B491EC91ED235E
:100BE00081E090E009F480E0DF91CF91089580E00A
:100BF00090E0FACF1F93CF93DF93282F30E0F901D5
:100C0000E458FF4F8491F901E656FF4FD491F90162
:100C1000E255FF4FC491CC23A9F0162F81110E94F9
:100C2000A805EC2FF0E0EE0FFF1FE859FF4FA5914C
:100C3000B4918FB7F894EC91111108C0D095DE23D0
:100C4000DC938FBFDF91CF911F910895DE2BF8CFFA
:100C5000CF93DF9390E0FC01E656FF4F249182553D
:100C60009F4FFC0184918823D1F090E0880F991F59
:100C7000FC01E057FF4FA591B491FC01E859FF4FEB
:100C8000C591D49161110EC09FB7F8948C91E22F59
:100C9000E0958E238C932881E223E8839FBFDF9128
:100CA000CF9108958FB7F894EC91E22BEC938FBF1E
:100CB000F6CF3FB7F89480914E0390914F03A091E7
:100CC0005003B091510326B5A89B05C02F3F19F0E2
:100CD0000196A11DB11D3FBFBA2FA92F982F8827BC
:100CE000BC01CD01620F711D811D911D42E0660F97
:100CF000771F881F991F4A95D1F708958F929F9269
:100D0000AF92BF92CF92DF92EF92FF926B017C0184
:100D10000E9459064B015C01C114D104E104F104A5
:100D2000B9F00E945906681979098A099B09683E39
:100D300073408105910580F321E0C21AD108E108D2
:100D4000F10888EE880E83E0981EA11CB11CE4CF48
:100D5000FF90EF90DF90CF90BF90AF909F908F90DB
:100D600008950895DC015996ED91FC913097B9F002
:100D700083899489A589B68942855385648575855B
:100D8000841B950BA60BB70B811520E89207A105D4
:100D9000B10538F08FEF9FE7A0E0B0E0089590E054
:100DA00080E00895DC0159968D919C91009739F06F
:100DB000DC01ED91FC910480F581E02D099490E037
:100DC00080E00895CF93DF931F92CDB7DEB769839C
:100DD000DC01ED91FC910280F381E02D41E050E0D7
:100DE000BE016F5F7F4F09950F90DF91CF910895FE
:100DF000089561E0FC0184810E94FA058091470119
:100E000081111092470108958EBD00000DB407FEB8
:100E1000FDCF8EB5089580916704882319F080E096
:100E20000C94040788E0909100009091000090934A
:100E3000000090910000909300008150A1F78091F4
:100E400000008093000080E008958FEF0C94040769
:100E50000F931F93CF93DF938C012FB7F89480915A
:100E6000540390915503A0915603B09157032FBF9F
:100E7000EC010E9425078F3FB1F02FB7F8948091C5
:100E8000540390915503A0915603B09157032FBF7F
:100E90008C1B9D0B8017910760F380E0DF91CF9151
:100EA0001F910F91089581E0F9CF0F931F93CF9376
:100EB000DF93EB01FC0187A18B01040F151F81114A
:100EC0001AC0C017D107F1F027E030E08091000090
:100ED00080930000809100008093000080910000CA
:100EE000809300002150310988F7809100008093A1
:100EF00000002196E6CFC017D10721F089910E940A
:100F00000407F9CFDF91CF911F910F910895CF93EF
:100F1000DF93CDB7DEB7A0970FB6F894DEBF0FBE54
:100F2000CDBFFE01B096E07E608341E050E0BF019E
:100F30000E945507A0960FB6F894DEBF0FBECDBF36
:100F4000DF91CF9108958CBD9DBD0895CF93DF9320
:100F5000EC0180914701811109C081E08093470134
:100F60008091F5039091F6030E94A30760E08C81C5
:100F7000DF91CF910C94FA05CF92DF92EF92FF921E
:100F80000F931F93CF93DF93EC01162F69017A0122
:100F90008E81882389F08F8198859C012F5F3F4F38
:100FA00038872F838230924018F40E942507F3CFB0
:100FB000CE010E94F9061E82CE010E94A6078CE295
:100FC00091E00E942807812F80640E94040708E1B5
:100FD00010E0D701C601002E04C0B695A7959795DD
:100FE00087950A94D2F70E94040708501109083F18
:100FF0008FEF180771F78FEF0E94040710E00E942F
:1010000025078A8787FF04C01F3F11F01F5FF7CFB6
:10101000DF91CF911F910F91FF90EF90DF90CF90D4
:101020000895AF92BF92CF92DF92EF92FF920F930B
:101030001F93CF93DF93EC016901C801820F931FC7
:101040008130924050F58E81882379F08881998192
:10105000AA81BB8184179507A607B70731F48F8152
:101060009885C816D90608F054C0488359836A8306
:101070007B838B85833039F089E0440F551F661FD1
:10108000771F8A95D1F79A01AB0161E1CE010E94E9
:10109000BC07882389F083E08D83CE010E94F90686
:1010A00080E0DF91CF911F910F91FF90EF90DF9043
:1010B000CF90BF90AF9008952FB7F89480915403CC
:1010C00090915503A0915603B09157032FBF5C0137
:1010D0000E9425078A878F3FB1F42FB7F89480913B
:1010E000540390915503A0915603B09157032FBF1D
:1010F0008A199B098D32914058F38FE08D83CE0180
:101100000E94F906CACF8E3F89F418861F8281E0BB
:101110008E838F8198858C159D0550F40E9425073C
:101120008F819885019698878F83F3CF8DE0E6CFE6
:101130006701E00EF11E0E942507F60181936F0101
:10114000EE15FF05C1F78F819885080F191F1887C5
:101150000F838985882319F001151240A0F08E8134
:10116000882389F08F8198859C012F5F3F4F3887B6
:101170002F838230924018F40E942507F3CFCE01CE
:101180000E94F9061E8281E08CCFCF92DF92EF920F
:10119000FF920F93CF93DF93EC01690182E1411538
:1011A00051056105710599F08B85833039F089E02F
:1011B000440F551F661F771F8A95D1F79A01AB011F
:1011C00068E1CE010E94BC07882319F084E08D837A
:1011D0002DC08EEF0E94040776018EEFD81AF7011A
:1011E00081917F010E940407EC14FD04C1F78FEF89
:1011F0000E9404078FEF0E9404070E9425078A8738
:101200008F71853071F4011116C0CE010E94F9066C
:1012100081E0DF91CF910F91FF90EF90DF90CF9021
:10122000089581E18D83CE010E94F906CE010E94CE
:10123000F90680E0EECF88E592E00E942807811150
:1012400002C085E1C4CF20E030E0A9016DE0CE010D
:101250000E94BC07882311F084E1B9CF0E942507C2
:101260008111FACFD2CF0F934091490150914A0199
:1012700060914B0170914C0141155105610571055B
:1012800089F0082F2DE431E090E080E00E94C5084D
:10129000882349F01092490110924A0110924B01A3
:1012A00010924C0181E00F9108950F93CF93C82FB6
:1012B00080914801811105C0C1E08C2FCF910F9121
:1012C00008954091000150910101609102017091D7
:1012D00003010C2F2DE431E090E080E00E94C5086E
:1012E000811102C0C0E0E9CFCC2331F381E00E943C
:1012F00033098823B9F310924801DFCF8F929F9270
:10130000AF92BF92EF92FF920F931F93CF934B0137
:101310005C01C42F8091000190910101A091020114
:10132000B091030188159905AA05BB0541F181E03B
:101330000E94550981110BC080E0CF911F910F9140
:10134000FF90EF90BF90AF909F908F9008958DE4A5
:10135000E82E81E0F82E00E012E030E020E0B50158
:10136000A40190E080E00E941108882329F3809274
:10137000000190920101A0920201B09203014091FC
:1013800048014C2B4093480181E0D7CF4F925F92A8
:101390006F927F928F929F92AF92BF92CF92DF9285
:1013A000EF92FF920F931F93CF93DF93EC014230A4
:1013B00051056105710590F480E0DF91CF911F9197
:1013C0000F91FF90EF90DF90CF90BF90AF909F90E4
:1013D0008F907F906F905F904F90089589859A8548
:1013E000AB85BC850196A11DB11D84179507A60785
:1013F000B70710F3CB88DC88ED88FE888F898031B1
:1014000009F042C0BB27A72F962F852F480159010D
:101410002A013B01C80ED91EEA1EFB1E8091000165
:1014200090910101A0910201B0910301C816D90663
:10143000EA06FB0699F58F898031C1F5B301A20157
:10144000552766277727440F551F435B5E4FFA01E8
:1014500091828082809148018160809348018A89CD
:10146000823080F08D819E81AF81B8858C0D9D1D6D
:10147000AE1DBF1D8093490190934A01A0934B017B
:10148000B0934C0181E099CFDB01CA01E7E0B6954A
:10149000A79597958795EA95D1F7B8CF40E0C70112
:1014A000B6010E947E098111C6CF86CFB301A20189
:1014B0004F77552766277727440F551F440F551F31
:1014C000435B5E4FFA0180829182A282B382C2CFD7
:1014D0008F929F92AF92BF92CF92DF92EF92FF9244
:1014E0000F931F93CF93DF93FC0181859285A38592
:1014F000B4850196A11DB11D84179507A607B707EE
:1015000070F480E0DF91CF911F910F91FF90EF90E9
:10151000DF90CF90BF90AF909F908F900895838879
:101520009488A588B6888789803189F5BB27A72F3D
:10153000962F852FE9016A017B018F01BC01CD0146
:10154000680D791D8A1D9B1D8090000190900101FE
:10155000A0900201B090030186169706A806B9066E
:1015600001F5F8018789803111F5DD24EE24FF248F
:10157000F601EE0FFF1FE35BFE4F80819181B0E02B
:10158000A0E088839983AA83BB8381E0BBCFDB0182
:10159000CA01C7E0B695A79597958795CA95D1F7E3
:1015A000C9CF40E00E947E098111DBCFAACFE89429
:1015B000C7F8DD24EE24FF24F601EE0FFF1FEE0F27
:1015C000FF1FE35BFE4F80819181A281B381BF70D9
:1015D000D8CF8F929F92AF92BF92CF92DF92EF922D
:1015E000FF920F931F93CF93DF93EC018D818111B5
:1015F0000EC080E0DF91CF911F910F91FF90EF908F
:10160000DF90CF90BF90AF909F908F9008950B89FF
:101610001C892D893E89041715072607370748F3CB
:101620004A015B01823031F48A869B86AC86BD8696
:1016300081E0E0CF81149104A104B10449F41E8239
:101640001F82188619861A861B861C861D86F0CF77
:101650000A851B852C853D85EB8DFC8D858590E06D
:101660000996B901A8014150510961097109082E73
:1016700004C076956795579547950A94D2F77501FA
:101680006401E1E0CE1AD108E108F10804C0F69443
:10169000E794D794C7948A95D2F7C416D506E60680
:1016A000F70620F0012B022B032B11F58F89988D63
:1016B000A98DBA8D8E839F83A887B9878E010A5F13
:1016C0001F4FC114D104E104F10409F4ADCF4E81E0
:1016D0005F816885798598018B8D9C8D0E94680A51
:1016E00091E0C91AD108E108F1088111EACF81CF50
:1016F000C41AD50AE60AF70AE1CF3F924F925F92E9
:101700006F927F928F929F92AF92BF92CF92DF9211
:10171000EF92FF920F931F93CF93DF93CDB7DEB776
:101720002C970FB6F894DEBF0FBECDBF5C01DC0175
:101730005B968D909C905C9716964D905D906D9009
:101740007C901997411451046104710409F468C034
:10175000BFEF4B1A5B0A6B0A7B0A312CF4018185BF
:101760009285A385B4859C01AD012F5F3F4F4F4FFC
:101770005F4F29873A874B875C87730162011D821F
:101780001E821F821886F40181859285A385B48507
:101790002D813E814F815885281739074A075B07FD
:1017A00008F056C089859A85AB85BC858C159D054A
:1017B000AE05BF0550F482E0C82ED12CE12CF12CEF
:1017C00092E0492E512C612C712C9E012F5F3F4FCE
:1017D000B701A601C4010E94680A8823C9F1898162
:1017E0009A81AB81BC81892B8A2B8B2B09F1260135
:1017F00037019FEF491A590A690A790A2D813E81FA
:101800004F8158852F5F3F4F4F4F5F4F2D833E8352
:101810004F8358873FEFC31AD30AE30AF30AB3CFC3
:10182000F40140805180628073803324339496CFDA
:10183000C414D504E604F70409F70FEF1FEF2FEFE8
:101840003FE0B701A601C4010E94C609811119C079
:1018500080E02C960FB6F894DEBF0FBECDBFDF91AF
:10186000CF911F910F91FF90EF90DF90CF90BF909D
:10187000AF909F908F907F906F905F904F903F9030
:101880000895D50116964D915D916D917C911997B2
:10189000411551056105710539F097018601C401B3
:1018A0000E94C6098823A1F2D5011696CD92DD9239
:1018B000ED92FC921997332051F0D701C6010196A1
:1018C000A11DB11DF40180839183A283B383F5012F
:1018D0008789908DA18DB28D892B8A2B8B2B39F422
:1018E0008481C78AD08EE18EF28E80688483F50170
:1018F00084818062848381E0ACCF2F923F924F92AB
:101900005F926F927F928F929F92AF92BF92CF928F
:10191000DF92EF92FF920F931F93CF93DF93EC012F
:101920005B012A018D81811115C08FEF9FEFDF913F
:10193000CF911F910F91FF90EF90DF90CF90BF90CC
:10194000AF909F908F907F906F905F904F903F905F
:101950002F9008958C8180FFE8CF0B891C892D89F9
:101960003E894A855B856C857D85C201B0E0A0E03B
:1019700068017901C41AD50AE60AF70AC816D90619
:10198000EA06FB0618F42801441A550A42011E0112
:1019900026E0220E311C8114910409F4B1C04A855D
:1019A0005B856C857D856A0181E0D8228B8D9C8D5D
:1019B0008A019B01E9E03695279517950795EA95E9
:1019C000D1F7ED81E230E1F5FC01628D738D848DFC
:1019D000958D600F711F821F931F612C22E0722E64
:1019E0006C187D088614970408F434012C8126FDB8
:1019F00004C06114F2E07F0671F4009100011091BF
:101A000001012091020130910301061717072807F1
:101A1000390709F053C040E00E947E09882309F489
:101A200084CFC601835B9E4FD5019C01260D371DD7
:101A3000FC012E173F0709F45EC041914D93F9CF89
:101A4000FC0174807A947022C114D10471F4711075
:101A50000CC0452B462B472B39F58F89988DA98DC6
:101A6000BA8D8E839F83A887B987EB8DFC8D6E819D
:101A70007F81888599856250710981099109258541
:101A800004C0660F771F881F991F2A95D2F7068515
:101A9000178520893189600F711F821F931F670D81
:101AA000711D811D911D99CF4E815F81688579855A
:101AB00091010E94680A8111D8CF37CF7501830147
:101AC0009601AB01BC0190E080E00E9411088823E0
:101AD00009F42BCFA60CB71C8A859B85AC85BD85E8
:101AE000860D971DA11DB11D8A879B87AC87BD8779
:101AF0008618970850CF281B390BA20EB31EECCFC7
:101B0000C20115CFEF92FF920F931F93CF93DF93F4
:101B10001F92CDB7DEB7FC01818D928D10E000E001
:101B20000097E1F07F0141E050E0BE016F5F7F4F21
:101B30000E947D0C0FEF1FEF019781F4098110E0E7
:101B4000F701818D928DFC014285538564857585F1
:101B500041505109610971090E94E90AC8010F90B9
:101B6000DF91CF911F910F91FF90EF900895CF9348
:101B7000DF931F92CDB7DEB7FC01818D928D009768
:101B800079F041E050E0BE016F5F7F4F0E947D0C15
:101B9000019731F4898190E00F90DF91CF91089502
:101BA0008FEF9FEFF9CF1F93CF93DF93FC01258138
:101BB0002223D1F1162FEC01848187FF2AC066858C
:101BC00077858089918941E00E947E09882361F1AF
:101BD000EA8980E2E89FF0011124E35BFE4F309731
:101BE00019F18D81823040F48B899C89AD89BE8941
:101BF000848F958FA68FB78F8F89988D938F828FC3
:101C00008F89988DA98DBA8DB58BA48B8C818F7798
:101C10008C83111103C08C818F7E8C83812FDF9187
:101C2000CF911F910C94550980E0DF91CF911F91C6
:101C300008951F93CF93DF93EC018D81813031F0B4
:101C400090E080E0DF91CF911F9108958C8181FF1A
:101C5000F7CF82FD18C090E080E00E94A6070E94A6
:101C60002507182F90E080E00E94F9061F3F41F7FA
:101C70008C8185FF1BC060E0CE010E94D30D8C815A
:101C80008F7D8C83DDCF4B895C896D897E898A85C8
:101C90009B85AC85BD8584179507A607B707D9F244
:101CA000CE010E94E90A8111D6CFCACF40914901E5
:101CB00050914A0160914B0170914C01452B462B8C
:101CC000472B21F080E00E943309BACF80618C83DA
:101CD0002A853B85317080E092E0821B930BB2CF66
:101CE000FC01818D928D009719F061E00C94D30D69
:101CF00008952F923F924F925F926F927F928F92B0
:101D00009F92AF92BF92CF92DF92EF92FF920F938A
:101D10001F93CF93DF9300D000D01F92CDB7DEB7D3
:101D20007C015B01342E5D83DC0115968C91159747
:101D3000813009F0CCC014962C9021FEC8C022FC42
:101D4000B2C0C32CDD8022947FE027222094B22DE4
:101D5000B1702B2ED7011A964D915D916D917C91AA
:101D60001D97C114D10409F426C15B968D919C91F5
:101D70005C97FC0174807A948A019B0169E0369536
:101D80002795179507956A95D1F770228A011170EA
:101D9000711020C001151105E9F416964D915D9161
:101DA0006D917C911997411551056105710509F0F7
:101DB00097C057968D919D910D90BC91A02D009745
:101DC000A105B10509F0AEC0C7010E947D0B8823B3
:101DD00009F47DC080E092E0801B910B46018C15D8
:101DE0009D0508F44C01D7015B964D915C915C9781
:101DF00016968D919D910D90BC91A02D0297A109F1
:101E0000B109FA01258504C0880F991FAA1FBB1FBD
:101E10002A95D2F74685578560897189840F951F69
:101E2000A61FB71F9C01AD01270D311D411D511D7E
:101E300029013A01811432E0930609F079C08091BA
:101E4000000190910101A0910201B091030184155C
:101E50009505A605B70559F48FEF9FEFDC01809338
:101E6000000190930101A0930201B0930301022DA0
:101E70009501B301A20190E080E00E94C50888238B
:101E800031F19EEFB91AC818D908F70182859385F8
:101E9000A485B585880D991DA11DB11D82879387E5
:101EA000A487B58757CFF701438954896589768917
:101EB00082859385A485B585481759076A077B07EE
:101EC00009F43FCFC7010E94E90A81113ACF81E0AE
:101ED00090E0D70113969C938E93129780E007C0F1
:101EE0009E012F5F3F4F0E94680A811102C090E05F
:101EF00079C089819A81AB81BC81F701238D348DB2
:101F0000F901278948EF5FEF60E070E0203121F0B0
:101F100048EF5FEF6FEF7FE084179507A607B707DD
:101F200008F052CFF70186839783A087B18752CFFD
:101F30000115110599F5D7011A964D915D916D9195
:101F40007C911D9753968D919D910D90BC91A02DE4
:101F5000481759076A077B0708F181E00E94550975
:101F6000882309F4B4CF409200015092010160929D
:101F700002017092030180914801816080934801C1
:101F8000C801835B9E4FD5019C01280D391DFC01C2
:101F90002E173F0759F04D914193FACF41E0C3010D
:101FA000B2010E947E098111EBCF91CF281B390B22
:101FB000A20EB31E68CFF70183899489A589B689DB
:101FC00084179507A607B70738F48481438B548B91
:101FD000658B768B80688483F701848183FD1AC0CA
:101FE000832D9D810F900F900F900F900F90DF9198
:101FF000CF911F910F91FF90EF90DF90CF90BF9006
:10200000AF909F908F907F906F905F904F903F9098
:102010002F90089561E0C7010E94D30D882309F431
:1020200056CFDECFCF93DF931F92CDB7DEB7698354
:1020300041E050E0BE016F5F7F4F0E94790E0F902C
:10204000DF91CF910895CF93DF93EC01E98DFA8D65
:10205000309749F481E090E09B838A8390E080E0B0
:10206000DF91CF91089513821282898D9A8D0E94FB
:10207000790EE98DFA8D22813381232B59F7F0CF28
:10208000FF920F931F93CF93DF93EC01F62E142F43
:10209000052F8FA1882321F082E590E00E94A307FD
:1020A00060E08DA10E94FA0562E0CE010E948707E0
:1020B0006F2DCE010E948707602FCE010E948707F7
:1020C000612FCE010E94870761E08DA1DF91CF9142
:1020D0001F910F91FF900C94FA05CF93C82F40E009
:1020E0005CE060E080E494E00E944010C06B8C2FC4
:1020F0000E94040780E00E9404078BE50E94040709
:1021000080E00E94040780E60E94040780E00E94AD
:1021100004078C2F0E94040780E00E9404078CE0D3
:102120000E94040780E00E94040780E00E940407E8
:1021300080E0CF910C940407CF93C82F40E05CE07F
:1021400060E080E494E00E9440108C2F806B0E943D
:10215000040780E00E94040788E70E94040780E0EB
:102160000E9404078FEF0E94040780E0CF910C9437
:102170000407CF93DF93D82FC62F40E05CE060E0E8
:1021800080E494E00E9440108D2F806B0E94040731
:1021900080E00E9404078AE00E94040780E00E9419
:1021A00004078C2F0E94040780E0DF91CF910C94EC
:1021B00004070F931F93CF93DF93C82F062F142F7D
:1021C000D22F40E05CE060E080E494E00E944010A8
:1021D0008C2F806C0E94040780E00E940407802FEF
:1021E0000E94040780E00E9404078C2F80690E94EF
:1021F000040780E00E940407812F0E94040780E00A
:102200000E9404078D2F0E94040780E0DF91CF9188
:102210001F910F910C94040708951F920F920FB60F
:102220000F9211242F933F934F935F936F937F935C
:102230008F939F93AF93BF93EF93FF9388E593E0C2
:102240000E941905FF91EF91BF91AF919F918F91DE
:102250007F916F915F914F913F912F910F900FBEA2
:102260000F901F9018951F920F920FB60F92112486
:102270002F938F939F93EF93FF93E0916803F091D7
:1022800069038081E0916E03F0916F0382FD1BC0B2
:102290009081809171038F5F8F73209172038217F9
:1022A00041F0E0917103F0E0E85AFC4F958F809384
:1022B0007103FF91EF919F918F912F910F900FBE1E
:1022C0000F901F9018958081F4CF1F920F920FB638
:1022D0000F9211242F933F938F939F93AF93BF93AC
:1022E0008091540390915503A0915603B0915703E8
:1022F00030914D0323E0230F2D3758F50196A11D92
:10230000B11D20934D038093540390935503A093E4
:102310005603B093570380914E0390914F03A091C1
:102320005003B09151030196A11DB11D80934E033E
:1023300090934F03A0935003B0935103BF91AF917B
:102340009F918F913F912F910F900FBE0F901F90F3
:10235000189526E8230F0296A11DB11DD2CF1F921A
:102360000F920FB60F9211242F933F934F935F93C9
:102370006F937F938F939F93AF93BF93EF93FF934D
:10238000E0910601F09107010995FF91EF91BF914E
:10239000AF919F918F917F916F915F914F913F91FD
:1023A0002F910F900FBE0F901F9018951F920F92B4
:1023B0000FB60F9211242F933F934F935F936F9318
:1023C0007F938F939F93AF93BF93EF93FF93E0918E
:1023D0000401F09105010995FF91EF91BF91AF9133
:1023E0009F918F917F916F915F914F913F912F912D
:1023F0000F900FBE0F901F9018951F920F920FB65F
:102400000F9211242F933F934F935F936F937F937A
:102410008F939F93AF93BF93CF93DF93EF93FF93EC
:10242000F894809146018823A1F07894FF91EF9170
:10243000DF91CF91BF91AF919F918F917F916F91DC
:102440005F914F913F912F910F900FBE0F901F9072
:10245000189581E080934601789483B58823D1F064
:10246000E1B5F2B53097B1F08581882399F080B15C
:102470000E94D105892B71F080B10E94D105892B72
:1024800049F081B592B5009741F413BCC1B5D2B5FE
:10249000209721F510924601C9CF40E250E070E04C
:1024A00060E00E947D0CEC01892B79F387B18823D1
:1024B00021F080E591E00E94A30760E086B10E94D0
:1024C000FA05AE01552770E060E090E080E00E94E0
:1024D000550761E086B10E94FA05CECF61E0CE01DA
:1024E0000E94D30D81111D8281B592B50E944A18B8
:1024F00012BC11BCCFCFE8E5F3E01382128288EE64
:1025000093E0A0E0B0E084839583A683B7832AE1BB
:1025100031E03183208325EC30E03587248724ECBB
:1025200030E03787268720EC30E0318B208B21ECA0
:1025300030E0338B228B22EC30E0358B248B26EC81
:1025400030E0378B268B118E128E138E148EE5EFB2
:10255000F3E020E520831182E7EFF3E01582168295
:102560001186138642E050E060E070E044875587B2
:102570006687778713A215A614A62CE231E033A74D
:1025800022A717A6E0E4F4E011A212A213A221E010
:1025900027A328E024A326E025A327E026A322E002
:1025A00020A313A612A684A795A7A6A7B7A788E37A
:1025B00091E091A780A7109282041092810414AA3E
:1025C0001092830489E0809384040895789484B5FC
:1025D000826084BD84B5816084BD85B5826085BD1F
:1025E00085B5816085BD80916E00816080936E00AD
:1025F000109281008091810082608093810080919F
:10260000810081608093810080918000816080934F
:1026100080008091B10084608093B1008091B0000F
:1026200081608093B00080917A00846080937A000A
:1026300080917A00826080937A0080917A00816034
:1026400080937A0080917A00806880937A0010925B
:10265000C10061E0809184040E94280661E08091BD
:1026600084040E94FA058091640487FD08C061E03B
:102670000E94280660E0809164040E94FA0561E0EF
:10268000809165040E94280661E0809165040E94A3
:10269000FA0561E0809166040E94280661E080915D
:1026A00066040E94FA0560E0809160040E9428069A
:1026B000809167048111A2C061E0809161040E9451
:1026C000280661E0809163040E94280660E0809102
:1026D00062040E9428068091640487FD0EC060E0B9
:1026E0000E94FA0564E670E080E090E00E947E06B9
:1026F00061E0809164040E94FA0561E080916504C4
:102700000E94FA0561E0809166040E94FA0564E681
:1027100070E080E090E00E947E0644E058E060E0D7
:1027200080E494E00E94401064E670E080E090E075
:102730000E947E0664E670E080E090E00E947E06E3
:1027400040E050E663E080E494E00E944010F8949A
:1027500048E258E26BE080E494E00E9440107894F4
:1027600080916704882321F082E590E00E94A3070E
:1027700060E0809165040E94FA0563E080E494E0E3
:102780000E94870761E080E494E00E94870783E26B
:1027900090E00197F1F70E940B070E940B0761E0A0
:1027A000809165040E94FA0510E000E0C801880FDE
:1027B000991FFC01EE53FF4F25913491B22E680111
:1027C00022E0C20ED11CFC01EC53FF4FC591D49105
:1027D000F12CE12CD7FF57C0DF770D5F1F4FFC01B5
:1027E000EA53FF4FE590F490219708F452C0A701F7
:1027F0006B2D80E494E00E944010F6CFCFB7F894A0
:1028000080915203811127C0E8EBF0E08491E4EA63
:10281000F0E09491E82FF0E0EE0FFF1FE057FF4F3C
:10282000A591B491EC91E92321F461E08AE00E9442
:10283000FA0561E08AE00E9428068CB580618CBDB3
:102840008CB580648CBD61E08DE00E94280661E05B
:102850008BE00E942806809152038F5F8093520381
:10286000CFBF39CFF801EE0DFF1DEE0FFF1FEA536A
:10287000FF4F459154916B2D80E494E00E944010ED
:102880002FEFE21AF20ACE15DF0561F78E010C0D6B
:102890001D1D0F3024E012070CF488CF4FE35FE3D7
:1028A0006BE080E494E00E94401050E040E062E081
:1028B00080E494E00E94401080E00E946D1081E06E
:1028C0000E946D1082E00E946D1083E00E946D10E6
:1028D00084E00E946D1085E00E946D1006E09FE785
:1028E000492E512C612C712C2FE6222EC0E0D0E015
:1028F00080900C0190900D01A0900E01B0900F01FE
:10290000C0900801D0900901E0900A01F0900B01FD
:10291000C0920C01D0920D01E0920E01F0920F01D5
:10292000A7019601C701B6010E942F1720E030E0F1
:1029300040E85FE30E94D1159B01AC01C701B601DD
:102940000E943D162DEC3CEC4CE450E40E942F1705
:10295000A50194010E94D0154B015C0120E030E0FC
:1029600040E05FE3C701B6010E942F179B01AC0155
:10297000C501B4010E94D1154B015C018092080190
:1029800090920901A0920A01B0920B012AE939E95B
:1029900049E551E4C701B6010E942F1720E030E05D
:1029A00040E852E40E94D1150E94AF16362E2AE963
:1029B00039E949E551E4C501B4010E942F1720E02F
:1029C00030E040E852E40E94D1150E94AF16B62EC6
:1029D000862F602F0E949C17A92E83E1912C381618
:1029E00031F02EE4932C321202C08DE4982E20E0B8
:1029F00030E040E151E4C701B6010E942F1720E00A
:102A000030E040E852E40E94D1150E94AF16162F24
:102A10008B2D8695805ED82EE894D7F8892D8B77FC
:102A2000982E432D4695485E4F772D2D682F8A2D81
:102A30000E94D9102B2D30E0A7E1B0E00E94C11513
:102A4000A30192010E948015BA01A901455E5F4F62
:102A50006F4F7F4F2D2D692D89E00E94D910209254
:102A600053036FE670E080E090E00E947E066B2DDD
:102A70006770C9F480E00E949C10612F6F7780E03E
:102A80000E94B9106FE670E080E090E00E947E0640
:102A9000209709F42DCF0E940505882309F428CF3B
:102AA0000E94000025CF613039F481E00E949C1023
:102AB000612F6F7781E0E4CF623039F482E00E94C9
:102AC0009C10612F6F7782E0DBCF633039F483E0B5
:102AD0000E949C10612F6F7783E0D2CF643039F46D
:102AE00084E00E949C10612F6F7784E0C9CF65302D
:102AF00049F685E00E949C10612F6F7785E0C0CF7A
:102B0000052E97FB1EF400940E94971557FD07D0E1
:102B10000E949F1507FC03D04EF40C949715509516
:102B20004095309521953F4F4F4F5F4F08959095B9
:102B30008095709561957F4F8F4F9F4F0895A1E2CB
:102B40001A2EAA1BBB1BFD010DC0AA1FBB1FEE1F27
:102B5000FF1FA217B307E407F50720F0A21BB30B72
:102B6000E40BF50B661F771F881F991F1A9469F7EE
:102B700060957095809590959B01AC01BD01CF014A
:102B80000895A29FB001B39FC001A39F700D811D46
:102B90001124911DB29F700D811D1124911D089566
:102BA0005058BB27AA270E94E8150C94F5160E94DE
:102BB000E71638F00E94EE1620F039F49F3F19F422
:102BC00026F40C94E4160EF4E095E7FB0C94DE1664
:102BD000E92F0E94061758F3BA1762077307840794
:102BE000950720F079F4A6F50C9428170EF4E095DB
:102BF0000B2EBA2FA02D0B01B90190010C01CA01B7
:102C0000A0011124FF27591B99F0593F50F4503E61
:102C100068F11A16F040A22F232F342F4427585F53
:102C2000F3CF469537952795A795F0405395C9F76B
:102C30007EF41F16BA0B620B730B840BBAF0915023
:102C4000A1F0FF0FBB1F661F771F881FC2F70EC0C2
:102C5000BA0F621F731F841F48F487957795679595
:102C6000B795F7959E3F08F0B0CF9395880F08F081
:102C70009927EE0F9795879508950E9451160C9409
:102C8000F5160E94EE1658F00E94E71640F029F45F
:102C90005F3F29F00C94DE1651110C9429170C9407
:102CA000E4160E94061768F39923B1F3552391F3B4
:102CB000951B550BBB27AA2762177307840738F0AB
:102CC0009F5F5F4F220F331F441FAA1FA9F335D008
:102CD0000E2E3AF0E0E832D091505040E695001CBC
:102CE000CAF72BD0FE2F29D0660F771F881FBB1F76
:102CF000261737074807AB07B0E809F0BB0B802D54
:102D0000BF01FF2793585F4F3AF09E3F510578F07F
:102D10000C94DE160C9429175F3FE4F3983ED4F32D
:102D2000869577956795B795F7959F5FC9F7880F53
:102D3000911D9695879597F90895E1E0660F771FA5
:102D4000881FBB1F621773078407BA0720F0621B36
:102D5000730B840BBA0BEE1F88F7E09508950E9461
:102D60000E1788F09F5798F0B92F9927B751B0F0F8
:102D7000E1F0660F771F881F991F1AF0BA95C9F7FF
:102D800014C0B13091F00E942817B1E008950C945E
:102D90002817672F782F8827B85F39F0B93FCCF311
:102DA000869577956795B395D9F73EF4909580957C
:102DB000709561957F4F8F4F9F4F089597F99F674B
:102DC00080E870E060E008959FEF80EC08950024B3
:102DD0000A941616170618060906089500240A9480
:102DE00012161306140605060895092E0394000C06
:102DF00011F4882352F0BB0F40F4BF2B11F460FF95
:102E000004C06F5F7F4F8F4F9F4F089557FD9058BD
:102E1000440F551F59F05F3F71F04795880F97FB9E
:102E2000991F61F09F3F79F0879508951216130658
:102E30001406551FF2CF4695F1DF08C01616170687
:102E40001806991FF1CF86957105610508940895BC
:102E5000E894BB2766277727CB0197F908950E944E
:102E600042170C94F5160E94E71638F00E94EE16F1
:102E700020F0952311F00C94DE160C94E416112426
:102E80000C9429170E94061770F3959FC1F3950FB4
:102E900050E0551F629FF001729FBB27F00DB11DDE
:102EA000639FAA27F00DB11DAA1F649F6627B00D6E
:102EB000A11D661F829F2227B00DA11D621F739F57
:102EC000B00DA11D621F839FA00D611D221F749F65
:102ED0003327A00D611D231F849F600D211D822FAC
:102EE000762F6A2F11249F5750409AF0F1F08823D3
:102EF0004AF0EE0FFF1FBB1F661F771F881F915000
:102F00005040A9F79E3F510580F00C94DE160C94BA
:102F100029175F3FE4F3983ED4F38695779567953C
:102F2000B795F795E7959F5FC1F7FE2B880F911D29
:102F30009695879597F90895991B79E004C0991F94
:102F4000961708F0961B881F7A95C9F78095089503
:102F5000EE0FFF1F0590F491E02D09940F931F933E
:102F6000CF93DF938230910510F482E090E0E091FE
:102F70008704F091880430E020E0B0E0A0E03097D2
:102F800099F42115310509F44AC0281B390B243066
:102F90003105D8F58A819B816115710589F1FB01A5
:102FA00093838283FE0111C040815181028113818C
:102FB00048175907E0F04817590799F4109761F03E
:102FC00012960C93129713961C933296CF01DF91B1
:102FD000CF911F910F910895009387041093880457
:102FE000F4CF2115310551F04217530738F0A901EC
:102FF000DB019A01BD01DF01F801C1CFEF01F9CF7B
:103000009093880480938704CDCFFE01E20FF31FD5
:10301000819391932250310939832883D7CF20910E
:10302000850430918604232B41F4209112013091C4
:103030001301309386042093850420911001309170
:1030400011012115310541F42DB73EB7409114010E
:1030500050911501241B350BE0918504F0918604F5
:10306000E217F307A0F42E1B3F0B2817390778F05F
:10307000AC014E5F5F4F2417350748F04E0F5F1FBE
:103080005093860440938504819391939FCFF0E001
:10309000E0E09CCFCF93DF930097E9F0FC013297FB
:1030A00013821282A0918704B0918804ED0130E070
:1030B00020E01097A1F420813181820F931F20918D
:1030C0008504309186042817390709F061C0F09310
:1030D0008604E0938504DF91CF910895EA01CE172D
:1030E000DF07E8F54A815B819E0141155105B1F783
:1030F000E901FB83EA8349915991C40FD51FEC176D
:10310000FD0761F4808191810296840F951FE9018A
:1031100099838883828193819B838A83F0E0E0E0B6
:1031200012968D919C9113970097B9F52D913C9132
:103130001197CD010296820F931F20918504309143
:1031400086042817390739F6309751F5109288040C
:1031500010928704B0938604A0938504BCCFD383D8
:10316000C28340815181840F951FC817D90761F42C
:103170004E5F5F4F88819981480F591F518340836B
:103180008A819B81938382832115310509F0B0CF19
:10319000F0938804E09387049ECFFD01DC01C0CF4B
:0A31A00013821282D7CFF894FFCFFC
:1031AA00FFFFFFFFB106B106CDCCCC3DCDCCCC3D67
:1031BA00000089048000000000003B059B04C8044D
:1031CA008805F904D704EB040000000012109B04E0
:1031DA00190E0C1100000000E2062310D206700E30
:0631EA00B206B70D820DD4
:00000001FF
