:020000040000FA
:100000000C9461000C947E000C947E000C947E0095
:100010000C947E000C947E000C947E000C947E0068
:100020000C947E000C947E000C947E000C947E0058
:100030000C947E000C947E000C947E000C947E0048
:100040000C9457010C947E000C947E000C947E005E
:100050000C947E000C947E000C947E000C947E0028
:100060000C947E000C947E00000000002400270009
:100070002A0000000000250028002B0000000000DE
:1000800023002600290004040404040404040202DA
:100090000202020203030303030301020408102007
:1000A0004080010204081020010204081020000012
:1000B0000008000201000003040700000000000027
:1000C000000011241FBECFEFD8E0DEBFCDBF11E08E
:1000D000A0E0B1E0E2ECF5E002C005900D92AC3298
:1000E000B107D9F721E0ACE2B1E001C01D92AC3319
:1000F000B207E1F70E94A1010C94DF020C9400000A
:10010000833081F028F4813099F08230A9F008958D
:100110008730A9F08830C9F08430B1F48091800034
:100120008F7D03C0809180008F7780938000089539
:1001300084B58F7784BD089584B58F7DFBCF809182
:10014000B0008F778093B00008958091B0008F7DCC
:10015000F9CFCF93DF93E0EBF0E08491ECE9F0E0AE
:10016000D491E8E8F0E0C491CC23A1F081110E9481
:100170008000EC2FF0E0EE0FFF1FE458FF4FA59139
:10018000B491EC91ED2381E090E009F480E0DF91FF
:10019000CF91089580E090E0FACF1F93CF93DF9343
:1001A000282F30E0F901E255FF4F8491F901E6561E
:1001B000FF4FD491F901EA57FF4FC491CC23A9F026
:1001C000162F81110E948000EC2FF0E0EE0FFF1F30
:1001D000EE58FF4FA591B4918FB7F894EC9111119F
:1001E00008C0D095DE23DC938FBFDF91CF911F91A4
:1001F0000895DE2BF8CFCF93DF9390E0FC01E65615
:10020000FF4F24918A579F4FFC0184918823D1F09E
:1002100090E0880F991FFC01E859FF4FA591B49118
:10022000FC01EE58FF4FC591D49161110EC09FB7EC
:10023000F8948C91E22FE0958E238C932881E22311
:10024000E8839FBFDF91CF9108958FB7F894EC9129
:10025000E22BEC938FBFF6CF8EBD00000DB407FEEE
:10026000FDCF8EB508951F93CF93DF93182FEB0129
:100270000E94A900892BE1F360E086E00E94CD0096
:1002800082E00E942C01812F0E942C018D2F0E9460
:100290002C018C2F0E942C010E94A900892BE1F3D4
:1002A00061E086E0DF91CF911F910C94CD001F9209
:1002B0000F920FB60F9211242F933F938F939F931A
:1002C000AF93BF938091380190913901A0913A0189
:1002D000B0913B013091370123E0230F2D3758F5C2
:1002E0000196A11DB11D2093370180933801909391
:1002F0003901A0933A01B0933B0180913301909171
:100300003401A0913501B09136010196A11DB11DB6
:100310008093330190933401A0933501B09336015B
:10032000BF91AF919F918F913F912F910F900FBEF1
:100330000F901F90189526E8230F0296A11DB11D5E
:10034000D2CF789484B5826084BD84B5816084BD49
:1003500085B5826085BD85B5816085BD80916E0063
:10036000816080936E001092810080918100826094
:1003700080938100809181008160809381008091D1
:1003800080008160809380008091B10084608093C0
:10039000B1008091B00081608093B00080917A00BC
:1003A000846080937A0080917A00826080937A00E2
:1003B00080917A00816080937A0080917A008068D1
:1003C00080937A001092C10061E088E00E94FB00F7
:1003D00060E082E00E94FB0061E086E00E94FB009A
:1003E00061E087E00E94FB00CFB7F89480912C0178
:1003F000811127C0E0E9F0E08491E4EAF0E0949113
:10040000E82FF0E0EE0FFF1FE859FF4FA591B491E0
:10041000EC91E92321F461E08AE00E94CD0061E0E3
:100420008AE00E94FB008CB580618CBD8CB5806435
:100430008CBD61E08DE00E94FB0061E08BE00E94DA
:10044000FB0080912C018F5F80932C01CFBF8CB576
:100450008C7F81608CBD8DB58E7F8DBD8FEF0E94AE
:100460002C0161E088E00E94CD0061E086E00E94FE
:10047000CD0061E087E00E94CD0060E070E683E09F
:100480000E9433016FE57FE58BE00E9433018CB55C
:100490008C7F8CBD8DB58E7F8DBDC0E0D1E0FCE240
:1004A000EF2EF1E0FF2EEC16FD0609F077C01AE002
:1004B000C0E0D0E0C0902F01D0903001E090310139
:1004C000F09032018D2C9E2CAF2CBB24A7FCBA944B
:1004D000B701A6019DE075956795579547959A9543
:1004E000D1F72601370126E0759467945794479415
:1004F0002A95D1F7D701C60139E0B595A79597950B
:1005000087953A95D1F788298C9D802D1124982DB7
:100510009E72892E8822042F0C2104290825460169
:100520005701E7E0B594A79497948794EA95D1F79B
:1005300084288C284C214429440F440F189D400DD9
:100540001124B02EB426B0922E01009504230093FE
:100550002D010E94A900892BE1F360E087E00E9451
:10056000CD00802F0E942C018B2D0E942C0161E078
:1005700087E00E94CD008FEFC81AD80AE80AF80A6F
:10058000C0922F01D0923001E0923101F0923201FD
:10059000209709F48FCF0E9400008CCF19910E9400
:1005A000A900892BE1F360E087E00E94CD00812F54
:1005B0000E942C0161E087E00E94CD0074CFF89486
:1005C000FFCF52494646FFFFFFFF57415645666D34
:1005D000742010000000010002002256000044AC0C
:0E05E00000000200080064617461FFFFFFFF6D
:107E0000112484B714BE81FFF0D085E080938100F7
:107E100082E08093C00088E18093C10086E0809377
:107E2000C20080E18093C4008EE0C9D0259A86E02C
:107E300020E33CEF91E0309385002093840096BBD3
:107E4000B09BFECF1D9AA8958150A9F7CC24DD24C4
:107E500088248394B5E0AB2EA1E19A2EF3E0BF2EE7
:107E6000A2D0813461F49FD0082FAFD0023811F036
:107E7000013811F484E001C083E08DD089C08234E0
:107E800011F484E103C0853419F485E0A6D080C0E4
:107E9000853579F488D0E82EFF2485D0082F10E0AE
:107EA000102F00270E291F29000F111F8ED06801E7
:107EB0006FC0863521F484E090D080E0DECF843638
:107EC00009F040C070D06FD0082F6DD080E0C81688
:107ED00080E7D80618F4F601B7BEE895C0E0D1E017
:107EE00062D089930C17E1F7F0E0CF16F0E7DF06D8
:107EF00018F0F601B7BEE89568D007B600FCFDCFD4
:107F0000A601A0E0B1E02C9130E011968C91119780
:107F100090E0982F8827822B932B1296FA010C0160
:107F200087BEE89511244E5F5F4FF1E0A038BF0790
:107F300051F7F601A7BEE89507B600FCFDCF97BE46
:107F4000E89526C08437B1F42ED02DD0F82E2BD052
:107F50003CD0F601EF2C8F010F5F1F4F84911BD097
:107F6000EA94F801C1F70894C11CD11CFA94CF0C13
:107F7000D11C0EC0853739F428D08EE10CD085E9AC
:107F80000AD08FE07ACF813511F488E018D01DD067
:107F900080E101D065CF982F8091C00085FFFCCF94
:107FA0009093C60008958091C00087FFFCCF809118
:107FB000C00084FD01C0A8958091C6000895E0E648
:107FC000F0E098E1908380830895EDDF803219F02E
:107FD00088E0F5DFFFCF84E1DECF1F93182FE3DFCA
:107FE0001150E9F7F2DF1F91089580E0E8DFEE27F6
:047FF000FF270994CA
:027FFE00040479
:00000001FF
