:020000040000FA
:100000000C9461000C947E000C947E000C947E0095
:100010000C947E000C947E000C947E000C947E0068
:100020000C947E000C947E000C947E000C94A10134
:100030000C947E000C947E000C947E000C947E0048
:100040000C9457010C947E000C947E000C947E005E
:100050000C947E000C947E000C947E000C947E0028
:100060000C947E000C947E00000000002400270009
:100070002A0000000000250028002B0000000000DE
:1000800023002600290004040404040404040202DA
:100090000202020203030303030301020408102007
:1000A0004080010204081020010204081020000012
:1000B0000008000201000003040700000000000027
:1000C000000011241FBECFEFD8E0DEBFCDBF11E08E
:1000D000A0E0B1E0EEE1F8E002C005900D92A0339F
:1000E000B107D9F721E0A0E3B1E001C01D92A3342C
:1000F000B207E1F70E94DB010C940D040C940000A0
:10010000833081F028F4813099F08230A9F008958D
:100110008730A9F08830C9F08430B1F48091800034
:100120008F7D03C0809180008F7780938000089539
:1001300084B58F7784BD089584B58F7DFBCF809182
:10014000B0008F778093B00008958091B0008F7DCC
:10015000F9CFCF93DF93E0EBF0E08491ECE9F0E0AE
:10016000D491E8E8F0E0C491CC23A1F081110E9481
:100170008000EC2FF0E0EE0FFF1FE458FF4FA59139
:10018000B491EC91ED2381E090E009F480E0DF91FF
:10019000CF91089580E090E0FACF1F93CF93DF9343
:1001A000282F30E0F901E255FF4F8491F901E6561E
:1001B000FF4FD491F901EA57FF4FC491CC23A9F026
:1001C000162F81110E948000EC2FF0E0EE0FFF1F30
:1001D000EE58FF4FA591B4918FB7F894EC9111119F
:1001E00008C0D095DE23DC938FBFDF91CF911F91A4
:1001F0000895DE2BF8CFCF93DF9390E0FC01E65615
:10020000FF4F24918A579F4FFC0184918823D1F09E
:1002100090E0880F991FFC01E859FF4FA591B49118
:10022000FC01EE58FF4FC591D49161110EC09FB7EC
:10023000F8948C91E22FE0958E238C932881E22311
:10024000E8839FBFDF91CF9108958FB7F894EC9129
:10025000E22BEC938FBFF6CF8EBD00000DB407FEEE
:10026000FDCF8EB508951F93CF93DF93182FEB0129
:100270000E94A900892BE1F360E086E00E94CD0096
:1002800082E00E942C01812F0E942C018D2F0E9460
:100290002C018C2F0E942C010E94A900892BE1F3D4
:1002A00061E086E0DF91CF911F910C94CD001F9209
:1002B0000F920FB60F9211242F933F938F939F931A
:1002C000AF93BF9380913F0190914001A091410174
:1002D000B091420130913E0123E0230F2D3758F5B4
:1002E0000196A11DB11D20933E0180933F01909383
:1002F0004001A0934101B093420180913A01909155
:100300003B01A0913C01B0913D010196A11DB11DA1
:1003100080933A0190933B01A0933C01B0933D013F
:10032000BF91AF919F918F913F912F910F900FBEF1
:100330000F901F90189526E8230F0296A11DB11D5E
:10034000D2CF1F920F920FB60F9211242F933F938B
:100350004F935F936F937F938F939F93AF93BF93CD
:10036000CF93DF93EF93FF93C3E3D1E08A819B8127
:1003700090589B838A830E9452032BE030E040E038
:1003800050E00E94AA036C5F7F4F8F4F9F4F6E8398
:10039000FF91EF91DF91CF91BF91AF919F918F919D
:1003A0007F916F915F914F913F912F910F900FBE71
:1003B0000F901F901895789484B5826084BD84B5A1
:1003C000816084BD85B5826085BD85B5816085BD50
:1003D00080916E00816080936E0010928100809108
:1003E0008100826080938100809181008160809390
:1003F0008100809180008160809380008091B100B5
:1004000084608093B1008091B00081608093B000DF
:1004100080917A00846080937A0080917A00826073
:1004200080937A0080917A00816080937A00809135
:100430007A00806880937A001092C100F89410923C
:10044000800010928100109285001092840081EA51
:1004500097E0909389008093880080918100886064
:1004600080938100809181008560809381008091DC
:100470006F00826080936F00789461E088E00E9452
:10048000FB0060E082E00E94FB0061E086E00E94E9
:10049000FB0061E087E00E94FB00CFB7F8948091F9
:1004A0003001811127C0E0E9F0E08491E4EAF0E056
:1004B0009491E82FF0E0EE0FFF1FE859FF4FA59150
:1004C000B491EC91E92321F461E08AE00E94CD002F
:1004D00061E08AE00E94FB008CB580618CBD8CB528
:1004E00080648CBD61E08DE00E94FB0061E08BE0E8
:1004F0000E94FB00809130018F5F80933001CFBF5D
:100500008CB58C7F81608CBD8DB58E7F8DBD8FEF5E
:100510000E942C0161E088E00E94CD0061E086E04D
:100520000E94CD0061E087E00E94CD0060E070E6AF
:1005300083E00E9433016FE47FE48BE00E9433018B
:100540008CB58C7F8CBD8DB58E7F8DBDC4E0D1E028
:1005500061E0C033D60709F048C000E010E00E9417
:10056000A900892BE1F38091370190913801209106
:100570003901EC0102C0D695C7952A95E2F721E032
:1005800030E0409135015091360141345F4110F423
:1005900030E020E0C227D327D0933401C093330149
:1005A000880F991FC170DD27C82BD92BD093380134
:1005B000C0933701C0933201DC2FD095D093310125
:1005C00060E087E00E94CD008C2F0E942C018D2FCF
:1005D0000E942C0161E087E00E94CD000115110509
:1005E00009F4BDCF0E940000BACF19910E94A90062
:1005F000892BE1F360E087E00E94CD00812F0E940B
:100600002C0161E087E00E94CD00A2CF8F929F92E3
:10061000AF92BF92CF92DF92EF92FF92CF93DF9390
:10062000EC01688179818A819B8161157105810561
:10063000910521F464E279ED8BE597E02DE133EF4C
:1006400041E050E00E94AA0349015A019B01AC011C
:10065000A7EAB1E40E94C9036B017C01ACEEB4EFE0
:10066000A50194010E94D703C60ED71EE81EF91EED
:10067000F7FE06C081E0C81AD108E10880E8F80A50
:10068000C882D982EA82FB82C701B6019F77DF91D7
:10069000CF91FF90EF90DF90CF90BF90AF909F9061
:1006A0008F9008958F929F92AF92BF92CF92DF92D8
:1006B000EF92FF926091000170910101809102011F
:1006C00090910301611571058105910521F464E2A2
:1006D00079ED8BE597E02DE133EF41E050E00E94AA
:1006E000AA0349015A019B01AC01A7EAB1E40E94A7
:1006F000C9036B017C01ACEEB4EFA50194010E942B
:10070000D703C60ED71EE81EF91EF7FE06C081E00D
:10071000C81AD108E10880E8F80AC0920001D09216
:100720000101E0920201F0920301C701B6019F7737
:10073000FF90EF90DF90CF90BF90AF909F908F9001
:1007400008956093000170930101809302019093DA
:1007500003010895052E97FB1EF400940E94C10327
:1007600057FD07D00E94DC0307FC03D04EF40C9425
:10077000C10350954095309521953F4F4F4F5F4FA6
:10078000089590958095709561957F4F8F4F9F4FFD
:1007900008950E94FE03A59F900DB49F900DA49F05
:1007A000800D911D11240895B7FF0C94C9030E9478
:1007B000C903821B930B0895A1E21A2EAA1BBB1B2F
:1007C000FD010DC0AA1FBB1FEE1FFF1FA217B3071D
:1007D000E407F50720F0A21BB30BE40BF50B661F33
:1007E000771F881F991F1A9469F7609570958095F7
:1007F00090959B01AC01BD01CF010895A29FB0016E
:10080000B39FC001A39F700D811D1124911DB29F44
:10081000700D811D1124911D0895F894FFCF0100E2
:10082000000052494646FFFFFFFF57415645666D9F
:10083000742010000000010002002256000044ACA9
:0E08400000000200080064617461FFFFFFFF0A
:107E0000112484B714BE81FFF0D085E080938100F7
:107E100082E08093C00088E18093C10086E0809377
:107E2000C20080E18093C4008EE0C9D0259A86E02C
:107E300020E33CEF91E0309385002093840096BBD3
:107E4000B09BFECF1D9AA8958150A9F7CC24DD24C4
:107E500088248394B5E0AB2EA1E19A2EF3E0BF2EE7
:107E6000A2D0813461F49FD0082FAFD0023811F036
:107E7000013811F484E001C083E08DD089C08234E0
:107E800011F484E103C0853419F485E0A6D080C0E4
:107E9000853579F488D0E82EFF2485D0082F10E0AE
:107EA000102F00270E291F29000F111F8ED06801E7
:107EB0006FC0863521F484E090D080E0DECF843638
:107EC00009F040C070D06FD0082F6DD080E0C81688
:107ED00080E7D80618F4F601B7BEE895C0E0D1E017
:107EE00062D089930C17E1F7F0E0CF16F0E7DF06D8
:107EF00018F0F601B7BEE89568D007B600FCFDCFD4
:107F0000A601A0E0B1E02C9130E011968C91119780
:107F100090E0982F8827822B932B1296FA010C0160
:107F200087BEE89511244E5F5F4FF1E0A038BF0790
:107F300051F7F601A7BEE89507B600FCFDCF97BE46
:107F4000E89526C08437B1F42ED02DD0F82E2BD052
:107F50003CD0F601EF2C8F010F5F1F4F84911BD097
:107F6000EA94F801C1F70894C11CD11CFA94CF0C13
:107F7000D11C0EC0853739F428D08EE10CD085E9AC
:107F80000AD08FE07ACF813511F488E018D01DD067
:107F900080E101D065CF982F8091C00085FFFCCF94
:107FA0009093C60008958091C00087FFFCCF809118
:107FB000C00084FD01C0A8958091C6000895E0E648
:107FC000F0E098E1908380830895EDDF803219F02E
:107FD00088E0F5DFFFCF84E1DECF1F93182FE3DFCA
:107FE0001150E9F7F2DF1F91089580E0E8DFEE27F6
:047FF000FF270994CA
:027FFE00040479
:00000001FF
