:020000040000FA
:100000000C947F040C949C040C949C040C949C040D
:100010000C949C040C949C040C949C040C949C04E0
:100020000C949C040C949C040C949C040C949C04D0
:100030000C949C040C949C040C949C040C949C04C0
:100040000C94AB060C949C040C949C040C949C049F
:100050000C949C040C949C040C949C040C949C04A0
:100060000C949C040C949C0405A84CCDB2D44EB9BD
:100070003836A9020C50B9918688083CA6AAAA2A4B
:10008000BE000000803F0700010050800600F00322
:10009000002880800600162000F495400600170016
:1000A0000930401C0930C21F206024000000C21F1C
:1000B0000020000020B042451336240006005700FF
:1000C000153E151C2000D41F8035023804F2043878
:1000D000FF0F44FE44A2041800F494400028851940
:1000E0000930C21B00F4004500200000F536153C25
:1000F000093057380028401B300057040930573862
:100100003000570A143E06F8013724800600170015
:10011000043E139C2000D21F813B2480F43613BC84
:10012000F43606D83000170700210000053FD7DB62
:1001300030000FF800000E1F0028807600004D00F0
:1001400000F49545003ECC17053502F873372400BE
:1001500063372400003724000000C2092460240013
:1001600000360218302855F800004D0000284022C3
:10017000F336240013362400123E17B8123E153809
:10018000053E14B82536240000000A80103E0138D0
:10019000103E03B8113E1038043E1278C3342400D8
:1001A00040342400804024001B0001330028852CAB
:1001B0000000800100005105000002AF3C29401FF3
:1001C0000700C1FF10B04C13180001001040D01000
:1001D0000700C1FF20FE0C0200009105B648240074
:1001E000D64D2400010002223C29401F80430320F9
:1001F00010B04C13180001001040101020FE0C022B
:10020000B6484C84D64D240080B8032034342400F2
:1002100000288052833024001C00C2CC0000D1058D
:10022000D33424000434240004340C420130CC05BF
:1002300008A44C04003124001060240020FE240097
:10024000B6482400D64D24001043240088440024DE
:1002500000005105002895320434240090F2CC00AF
:100260000038240034342400733024001330240078
:10027000002840430038240083302400003024004C
:100280000264240000000110002818361800020043
:1002900034342440333124000031240020FE240073
:1002A000B6482400D64D240000284043003924C01D
:1002B0001040111002642400000090050028183935
:1002C0000000240090F2CC040039240034342400CF
:1002D00073302400133024000028404300382400E9
:1002E0008331240000312400026424000000011046
:1002F0000028983C190082993434240033302400BB
:100300000030240020FE2400B6482400D64D2400EE
:1003100000284043003824C0104024000264240018
:100320001D008270002898410000240090F21010F7
:1003300033302400003824000434240073302400B7
:1003400013302400003824000400504D10302400E5
:10035000F030244034342440433124001039240048
:1003600000284043F0392440343424003330240042
:100370000030240020FE2400B6482400D64D24007E
:10038000003824C01E008299010012100000810371
:10039000D3344C1844342400733024001330240028
:1003A0000030240020FE2400B6482400D64D24004E
:1003B00080430330003424003D290029003E2400FE
:1003C0000930C0333B2940C510000400D3344C1819
:1003D000443424007330C013733024003B2980F868
:1003E000010011100100100001001110D3344C184D
:1003F00030342400104024000000C105103E2400C9
:100400003B2980AC060092000000D105F3364C1366
:1004100004342400833024000030240012602400BF
:100420001300043300289851010082C60000000523
:100430000100120004344C583331240000312440B0
:100440000000D10522FE2400B6482400D64D240029
:10045000103E24C030342480044224003B2980B55F
:10046000003E2480E3364C133434240083302400CF
:10047000003024009060240000381218F436244024
:10048000F1361018F0360398F03601180534149040
:10049000F3362400F236151800200000F2361798C3
:1004A00013362400123E17B8123E1538053E14B814
:1004B0001536240000000A80103E0138103E04B8B2
:1004C000013E10780800D004002980140130240077
:1004D0008040CC0300302400002885749040240024
:1004E0000000240000284562000024000000810074
:1004F0000030240012602400000001040028C570B0
:10050000000024001260240000002400002845663A
:1005100000002400002980160000240088408C0080
:1005200000000020006424000000003C0028D85E89
:1005300000002400002800630138240000648C03BC
:100540000000240000281863000024001330240059
:100550000029801401382400804024000000240079
:1005600000285562000024009068CC0300288074A5
:1005700000382400002980160800100500382400E7
:100580000000003C006424003F0000FF0028086BCE
:10059000000024000000C03F006424000000003C74
:1005A0000028C57300642400000024000028D573CF
:1005B0000000240080B84C1800298014093000384D
:1005C0008240C09B146024000000043C0028416964
:1005D0000000C13D002980160000240000F4044002
:1005E0000000C13D12642400080090040028856AC0
:1005F000000000000000000400288074003824007F
:100600000800D004013024400AA524000000C003E3
:100610000AB5240000000003006524000000240047
:10062000002988140000486F000080030065240042
:100630000000240000289571000024000029801487
:10064000000024008040CC03000080000028D5700A
:10065000000024000028807400382400002980163F
:10066000000024008A4024000800100513362400EE
:10067000113E2440F0302400103E2400003024407D
:10068000312980E0003E2440D336240000000000E1
:100690000800900400382400F1361058F036049811
:1006A000F036011805341490F3362400F23615188C
:1006B00000200000F2361798050051BE010010001E
:1006C00013362400053E14B83536240000000A8095
:1006D00080B84C1082B8C0331429C0BE040080C555
:1006E0001900C0980400904E003824001F0000FF3D
:1006F0003129406C00392400312940660000240073
:1007000000290055000001801229000D1336240035
:1007100012602400000005800028187B0400504D62
:100720001229000D13368C1034298041E03C24003E
:1007300000000010233424000029800AE134240042
:1007400082B84200F03024C0C24D2400103824008A
:100750000028007BF0382440123E17B8123E1538AE
:10076000053E14B81536240000000A80103E0138FA
:100770000000810080B811B830009102143E2400BE
:1007800030009006143E13B83000D3000700529298
:100790000038240010392400003A24000000C0C0B2
:1007A00000392400300000000600510008290064D0
:1007B000003B240080B88C0000382400003824005E
:1007C0000300400D060090C40829807F09300020F6
:1007D0003000D00A00384C182B000011103E2400C5
:1007E0000929C0A9103E24400A0001800829807F01
:1007F000E336240080B800200600100009301024E1
:10080000060011000930102408009004103824005C
:1008100000382400000090080F29C0FC06008083E7
:100820000A000180000050090F29C0FC060080B3B7
:100830000000C009300090069068002030001013BE
:1008400090680020300090040029001E0038240029
:10085000F4361398F4361118F03601180534149054
:10086000F3362400F236151800200000F2361798EF
:100870000700010000580600040000180018CC987A
:10088000957307000100258006000200002ACE1A99
:1008900007000100228006000200002A0E1A0A004A
:1008A0000100500000000000240027002A00000082
:1008B0000000250028002B00000000002300260077
:1008C00029000404040404040404020202020202D3
:1008D0000303030303030102040810204080010204
:1008E0000408102001020408102000000008000283
:1008F00001000003040700000000000000001124B4
:100900001FBECFEFD8E0DEBFCDBF11E0A0E0B1E069
:10091000EAE6F8E102C005900D92A830B107D9F7D8
:1009200021E0A8E0B1E001C01D92A231B207E1F7D9
:100930000E94F5060C94330C0C940000833081F077
:1009400028F4813099F08230A9F008958730A9F019
:100950008830C9F08430B1F4809180008F7D03C06D
:10096000809180008F7780938000089584B58F7781
:1009700084BD089584B58F7DFBCF8091B0008F77C3
:100980008093B00008958091B0008F7DF9CFCF9310
:10099000DF93ECEEF8E08491E8EDF8E0D491E4EC3C
:1009A000F8E0C491CC23A1F081110E949E04EC2FA9
:1009B000F0E0EE0FFF1FE854F74FA591B491EC91D2
:1009C000ED2381E090E009F480E0DF91CF9108957C
:1009D00080E090E0FACF1F93CF93DF93282F30E091
:1009E000F901E651F74F8491F901EA52F74FD4919A
:1009F000F901EE53F74FC491CC23A9F0162F8111C2
:100A00000E949E04EC2FF0E0EE0FFF1FE255F74F1F
:100A1000A591B4918FB7F894EC91111108C0D095BD
:100A2000DE23DC938FBFDF91CF911F910895DE2BE2
:100A3000F8CFCF93DF9390E0FC01EA52F74F249177
:100A40008E53974FFC0184918823D1F090E0880F5A
:100A5000991FFC01EC55F74FA591B491FC01E255AB
:100A6000F74FC591D49161110EC09FB7F8948C9146
:100A7000E22FE0958E238C932881E223E8839FBFA9
:100A8000DF91CF9108958FB7F894EC91E22BEC931E
:100A90008FBFF6CF3FB7F89480910E0190910F0170
:100AA000A0911001B091110126B5A89B05C02F3F60
:100AB00019F00196A11DB11D3FBFBA2FA92F982F84
:100AC0008827BC01CD01620F711D811D911D42E07F
:100AD000660F771F881F991F4A95D1F708958F9247
:100AE0009F92AF92BF92CF92DF92EF92FF920E94BD
:100AF0004A054B015C018DE7C82ED12CE12CF12C6D
:100B00000E944A05681979098A099B09683E734061
:100B100081059105A8F321E0C21AD108E108F10886
:100B200088EE880E83E0981EA11CB11CC114D1046C
:100B3000E104F10429F7FF90EF90DF90CF90BF9090
:100B4000AF909F908F9008958EBD00000DB407FE6A
:100B5000FDCF8EB508951F93CF93DF93182FEB0130
:100B60000E94C704892BE1F360E086E00E94EB0459
:100B700082E00E94A405812F0E94A4058D2F0E946F
:100B8000A4058C2F0E94A4050E94C704892BE1F3C1
:100B900061E086E0DF91CF911F910C94EB04CF933D
:100BA000C82F60E07CE080E00E94AB05C06B8C2F1A
:100BB0000E94A40580E00E94A4058BE50E94A40584
:100BC00080E00E94A40580E40E94A40580E00E94C9
:100BD000A4058C2F0E94A40580E00E94A4058CE04F
:100BE0000E94A40580E00E94A40580E00E94A40564
:100BF00080E0CF910C94A405CF93C82F60E07CE0F7
:100C000080E00E94AB058C2F806B0E94A40580E0E1
:100C10000E94A40588E70E94A40580E00E94A40524
:100C20008FEF0E94A40580E0CF910C94A405CF9390
:100C3000DF93D82FC62F60E07CE080E00E94AB05F8
:100C40008D2F806B0E94A40580E00E94A4058AE09D
:100C50000E94A40580E00E94A4058C2F0E94A40598
:100C600080E0DF91CF910C94A4050F931F93CF9355
:100C7000DF93C82F062F142FD22F60E07CE080E096
:100C80000E94AB058C2F806C0E94A40580E00E941E
:100C9000A405802F0E94A40580E00E94A4058C2F4B
:100CA00080690E94A40580E00E94A405812F0E9413
:100CB000A40580E00E94A4058D2F0E94A40580E079
:100CC000DF91CF911F910F910C94A4058F929F9269
:100CD000AF92BF92CF92DF92EF92FF926B017C01B5
:100CE0002DE636E549E450E4609100017091010180
:100CF00080910201909103010E940E0B0E947B0BD8
:100D0000A70196010E940E0B6093000170930101F0
:100D1000809302019093030120E030E040E05FE324
:100D20000E940E0B4B015C0120E030E040E05FE3ED
:100D3000C701B6010E940E0B9B01AC01C501B401B5
:100D40000E941B0AFF90EF90DF90CF90BF90AF9072
:100D50009F908F9008951F920F920FB60F921124BB
:100D60002F933F938F939F93AF93BF9380910A01EB
:100D700090910B01A0910C01B0910D0130910901EE
:100D800023E0230F2D3758F50196A11DB11D2093A7
:100D9000090180930A0190930B01A0930C01B09379
:100DA0000D0180910E0190910F01A0911001B09161
:100DB00011010196A11DB11D80930E0190930F01A9
:100DC000A0931001B0931101BF91AF919F918F91AA
:100DD0003F912F910F900FBE0F901F90189526E80E
:100DE000230F0296A11DB11DD2CFCF93DF93CDB7B4
:100DF000DEB72E970FB6F894DEBF0FBECDBF789446
:100E000084B5826084BD84B5816084BD85B582600F
:100E100085BD85B5816085BD80916E0081608093C0
:100E20006E00109281008091810082608093810029
:100E30008091810081608093810080918000816039
:100E4000809380008091B10084608093B100809194
:100E5000B00081608093B00080917A0084608093BC
:100E60007A0080917A00826080937A0080917A0083
:100E7000816080937A0080917A00806880937A0004
:100E80001092C10061E088E00E94190560E082E0F4
:100E90000E94190561E086E00E94190561E087E083
:100EA0000E9419052FB72983F894809108018111B8
:100EB00027C0ECECF8E08491E0EEF8E09491E82FA4
:100EC000F0E0EE0FFF1FEC55F74FA591B491EC91B8
:100ED000E92321F461E08AE00E94EB0461E08AE00A
:100EE0000E9419058CB580618CBD8CB580648CBD69
:100EF00061E08DE00E94190561E08BE00E94190518
:100F0000809108018F5F8093080139813FBF8CB5C4
:100F10008C7F81608CBD8DB58E7F8DBD8FEF0E94E3
:100F2000A40561E088E00E94EB0461E086E00E9495
:100F3000EB0461E087E00E94EB0410E000E0C801F0
:100F4000880F991FFC01EA57FF4F25913491B22E6B
:100F5000680122E0C20ED11CFC01E857FF4F259129
:100F600034913A832983F12CE12C37FF25C03F7758
:100F70003A8329830D5F1F4FFC01E657FF4FE59031
:100F8000F49089819A8101979A8389830196E1F08F
:100F9000B7018B2D0E94AB05F4CFF801EE0DFF1DBC
:100FA000EE0FFF1FE657FF4F659174918B2D0E9446
:100FB000AB059FEFE91AF90A89819A818E159F0581
:100FC00061F78C010C0D1D1D0F3084E018070CF427
:100FD000B6CF68EE7BE883E00E94AB056FE37FE36A
:100FE0008BE00E94AB0570E060E082E00E94AB0500
:100FF0008CB58C7F8CBD8DB58E7F8DBD80E00E94C1
:10100000CF0581E00E94CF0582E00E94CF0583E0FA
:101010000E94CF0584E00E94CF0560E280E00E943C
:10102000170660E681E00E94170660E382E00E94F6
:10103000170660E483E00E94170660E584E00E94E2
:10104000170688E3282E312C00E310E060E070E002
:1010500080E897E40E9466060E94870ACB010E94FE
:10106000AC0960E070E080E893E40E9466060E94AC
:101070008E0A6D8760E070E082E892E40E94660666
:101080002B013C0160E070E088EC91E40E94660670
:101090004B015C0160E070E080E591E40E9466062F
:1010A00069837A838B839C8360E070E084E192E4BF
:1010B0000E9466066D837E838F83988760E070E070
:1010C00084E492E40E94660669877A878B879C870E
:1010D00060E070E080E691E40E9466066B017C01AE
:1010E0000E94A70960E470E00E940B0C8C5D8E8763
:1010F00020E030E040EC51E4C301B2010E941B0A41
:101100000E948E0A462F2E8560E080E00E94350600
:101110000E94A709B1010E940B0C8C5D8E8720E014
:1011200030E040E452E4C501B4010E941B0A0E9471
:101130008E0A462F2E856AE081E00E9435060E94C5
:10114000A709B1010E940B0C8C5D8E8720E030E076
:1011500040E452E469817A818B819C810E941B0A60
:101160000E948E0A462F2E856FE482E00E9435068B
:101170000E94A709B8010E940B0C885E898320E0B9
:1011800030E040E152E46D817E818F8198850E943C
:101190001B0A0E948E0AB62E20E030E040EC52E49A
:1011A000C701B6010E941B0A0E948E0A29814B2D9D
:1011B00083E00E9435060E94A709B8010E940B0C2B
:1011C000885E898320E030E040EC51E469857A85CF
:1011D0008B859C850E941B0A0E948E0A462F2981BE
:1011E0006AE284E00E9435062D8520FF06C020E6D5
:1011F00043E260E089E00E9435063D8531FF06C08C
:1012000020E445E260E089E00E9435068D8582FF9A
:1012100006C020E446E260E089E00E9435069D8534
:1012200093FF06C020E447E260E089E00E943506B3
:101230002D8524FF06C020E448E260E089E00E949A
:1012400035063D8535FF06C020E449E260E089E0CF
:101250000E9435068D8586FF06C020E44AE260E0E4
:1012600089E00E9435069D8597FF06C020E44BE289
:1012700060E089E00E9435060E946F050E94A70980
:1012800068E070E00E940B0C811103C00E94FC0515
:1012900008C08130D9F38230C9F38330B9F3843088
:1012A000A9F30E946F0520E030E0232B09F4CECE95
:1012B0000E940000CBCE8F929F92AF92BF92CF92AE
:1012C000DF92EF92FF92CF93DF93EC0168817981F7
:1012D0008A819B81611571058105910521F464E284
:1012E00079ED8BE597E02DE133EF41E050E00E948E
:1012F000B70949015A019B01AC01A7EAB1E40E9478
:10130000D6096B017C01ACEEB4EFA50194010E94FB
:10131000E409DC01CB018C0D9D1DAE1DBF1DB7FF87
:1013200003C00197A109B04888839983AA83BB832E
:101330009F77DF91CF91FF90EF90DF90CF90BF909C
:10134000AF909F908F9008950E945B09089584E06C
:1013500091E00E945B090895B0E0A0E08093040151
:1013600090930501A0930601B09307010895052EFF
:1013700097FB1EF400940E94CE0957FD07D00E94EF
:10138000E90907FC03D04EF40C94CE095095409522
:10139000309521953F4F4F4F5F4F08959095809521
:1013A000709561957F4F8F4F9F4F08950E940B0A54
:1013B000A59F900DB49F900DA49F800D911D1124A9
:1013C0000895B7FF0C94D6090E94D609821B930B8F
:1013D0000895A1E21A2EAA1BBB1BFD010DC0AA1F76
:1013E000BB1FEE1FFF1FA217B307E407F50720F08E
:1013F000A21BB30BE40BF50B661F771F881F991F09
:101400001A9469F760957095809590959B01AC0151
:10141000BD01CF010895A29FB001B39FC001A39F5A
:10142000700D811D1124911DB29F700D811D11241D
:10143000911D08955058BB27AA270E94320A0C9488
:10144000D40A0E94C60A38F00E94CD0A20F039F46E
:101450009F3F19F426F40C94C30A0EF4E095E7FBC1
:101460000C94BD0AE92F0E94E50A58F3BA176207E7
:1014700073078407950720F079F4A6F50C94070B01
:101480000EF4E0950B2EBA2FA02D0B01B90190019F
:101490000C01CA01A0011124FF27591B99F0593FE3
:1014A00050F4503E68F11A16F040A22F232F342F2B
:1014B0004427585FF3CF469537952795A795F04079
:1014C0005395C9F77EF41F16BA0B620B730B840B8E
:1014D000BAF09150A1F0FF0FBB1F661F771F881F46
:1014E000C2F70EC0BA0F621F731F841F48F487959E
:1014F00077956795B795F7959E3F08F0B0CF939590
:10150000880F08F09927EE0F9795879508950E9408
:101510008E0A6894B1110C94080B08950E94ED0A8C
:1015200088F09F5798F0B92F9927B751B0F0E1F0A4
:10153000660F771F881F991F1AF0BA95C9F714C054
:10154000B13091F00E94070BB1E008950C94070BA5
:10155000672F782F8827B85F39F0B93FCCF386958D
:1015600077956795B395D9F73EF4909580957095EA
:1015700061957F4F8F4F9F4F089597F99F6780E840
:1015800070E060E008959FEF80EC089500240A94D5
:101590001616170618060906089500240A9412164E
:1015A0001306140605060895092E0394000C11F481
:1015B000882352F0BB0F40F4BF2B11F460FF04C02E
:1015C0006F5F7F4F8F4F9F4F089557FD9058440F87
:1015D000551F59F05F3F71F04795880F97FB991F92
:1015E00061F09F3F79F0879508951216130614064F
:1015F000551FF2CF4695F1DF08C0161617061806DC
:10160000991FF1CF86957105610508940895E894B6
:10161000BB2766277727CB0197F908950E94210BF6
:101620000C94D40A0E94C60A38F00E94CD0A20F019
:10163000952311F00C94BD0A0C94C30A11240C9448
:10164000080B0E94E50A70F3959FC1F3950F50E0D7
:10165000551F629FF001729FBB27F00DB11D639F64
:10166000AA27F00DB11DAA1F649F6627B00DA11D0A
:10167000661F829F2227B00DA11D621F739FB00DB0
:10168000A11D621F839FA00D611D221F749F332720
:10169000A00D611D231F849F600D211D822F762FB9
:1016A0006A2F11249F5750409AF0F1F088234AF096
:1016B000EE0FFF1FBB1F661F771F881F9150504002
:1016C000A9F79E3F510580F00C94BD0A0C94080BBD
:1016D0005F3FE4F3983ED4F3869577956795B79589
:1016E000F795E7959F5FC1F7FE2B880F911D9695A3
:1016F000879597F908959F930E94850B0F9007FC9B
:10170000EE5F0C94AE0B0C94C30A0E94ED0AD8F362
:10171000E894E0E0BB279F57F0F02AED3FE049EC6A
:1017200006C0EE0FBB0F661F771F881F28F0B23A66
:1017300062077307840728F0B25A620B730B840B9D
:10174000E3959A9572F7803830F49A95BB0F661F2F
:10175000771F881FD2F790480C94C40BEF93E0FFDB
:1017600007C0A2EA2AED3FE049EC5FEB0E94320A93
:101770000E94D40A0F90039401FC9058E8E6F0E030
:101780000C94D00B9F3F31F0915020F487957795C2
:101790006795B795880F911D9695879597F9089548
:1017A0009F938F937F936F93FF93EF939B01AC0174
:1017B0000E940E0BEF91FF910E94E40B2F913F913D
:1017C0004F915F910C940E0BDF93CF931F930F9368
:1017D000FF92EF92DF927B018C01689406C0DA2EB3
:1017E000EF010E94210BFE01E894A591259135910E
:1017F00045915591A6F3EF010E94320AFE0197012F
:10180000A801DA9469F7DF90EF90FF900F911F9194
:10181000CF91DF91089597FB072E16F4009407D01F
:1018200077FD09D00E941F0C07FC05D03EF490956F
:1018300081959F4F0895709561957F4F0895AA1BDC
:10184000BB1B51E107C0AA1FBB1FA617B70710F0AB
:10185000A61BB70B881F991F5A95A9F780959095DD
:10186000BC01CD010895F894FFCF0000003F0100B6
:02187000000076
:107E0000112484B714BE81FFF0D085E080938100F7
:107E100082E08093C00088E18093C10086E0809377
:107E2000C20080E18093C4008EE0C9D0259A86E02C
:107E300020E33CEF91E0309385002093840096BBD3
:107E4000B09BFECF1D9AA8958150A9F7CC24DD24C4
:107E500088248394B5E0AB2EA1E19A2EF3E0BF2EE7
:107E6000A2D0813461F49FD0082FAFD0023811F036
:107E7000013811F484E001C083E08DD089C08234E0
:107E800011F484E103C0853419F485E0A6D080C0E4
:107E9000853579F488D0E82EFF2485D0082F10E0AE
:107EA000102F00270E291F29000F111F8ED06801E7
:107EB0006FC0863521F484E090D080E0DECF843638
:107EC00009F040C070D06FD0082F6DD080E0C81688
:107ED00080E7D80618F4F601B7BEE895C0E0D1E017
:107EE00062D089930C17E1F7F0E0CF16F0E7DF06D8
:107EF00018F0F601B7BEE89568D007B600FCFDCFD4
:107F0000A601A0E0B1E02C9130E011968C91119780
:107F100090E0982F8827822B932B1296FA010C0160
:107F200087BEE89511244E5F5F4FF1E0A038BF0790
:107F300051F7F601A7BEE89507B600FCFDCF97BE46
:107F4000E89526C08437B1F42ED02DD0F82E2BD052
:107F50003CD0F601EF2C8F010F5F1F4F84911BD097
:107F6000EA94F801C1F70894C11CD11CFA94CF0C13
:107F7000D11C0EC0853739F428D08EE10CD085E9AC
:107F80000AD08FE07ACF813511F488E018D01DD067
:107F900080E101D065CF982F8091C00085FFFCCF94
:107FA0009093C60008958091C00087FFFCCF809118
:107FB000C00084FD01C0A8958091C6000895E0E648
:107FC000F0E098E1908380830895EDDF803219F02E
:107FD00088E0F5DFFFCF84E1DECF1F93182FE3DFCA
:107FE0001150E9F7F2DF1F91089580E0E8DFEE27F6
:047FF000FF270994CA
:027FFE00040479
:00000001FF
