:020000040000FA
:100000000C94A8040C94C5040C94C5040C94C50469
:100010000C94C5040C94C5040C94C5040C94C5043C
:100020000C94C5040C94C5040C94C5040C94C5042C
:100030000C94C5040C94C5040C94C5040C94C5041C
:100040000C94F5050C94C5040C94C5040C94C504DB
:100050000C94C5040C94C5040C94C5040C94C504FC
:100060000C94C5040C94C5040700010050800600E0
:100070002E0430009706003724000000010810C04D
:100080002400003F24000028003C06001620133600
:100090002400123E2400053E14B815362400003E0C
:1000A00044F80029808D013E0678864C2400FF1F0D
:1000B000C0FF1F00C1FF1529C046C2BD24009334F4
:1000C0004C18103E2400103E2440003E2480103482
:1000D00024001034244010342480113424001134BE
:1000E0002440152980A5213424808A4104408C4273
:1000F000C21BF036244015290099F0362400000078
:10010000060888B80C13152980B7100005001134B3
:10011000240011342440152940A921342480F136CB
:100120000658F03604D805341490F3362400F2361D
:100130002400002000000000240013362400123E9A
:100140002400053E14B815362400003E4138003E18
:1001500050B807005092143E127880B80C930038C3
:1001600024003000D0004034240008290064003806
:100170002400300050003F00C1FC00304C1310B090
:100180002400F03824003034248084620000100001
:1001900001000028853B000024002F00C1FF10B0A3
:1001A000240000382400060090C40B0000400829F9
:1001B000807F093000203000D00A150051BD003882
:1001C00024000000C00115290083060050C0000073
:1001D000000382B824001429C0BE06001064300059
:1001E000500301000000846280200000000100280C
:1001F000052D0038240002F2000010C02400003851
:1002000024003000900300302400806024000600A9
:1002100052650028552FE01F40003F00C0FF003806
:100220002400E01F40000600106470388C13003A70
:10023000CC003000D2030000C0000032244000B1E6
:1002400024002E0001E00038240020342400126035
:100250002400170001700028853A126024000B006A
:1002600001B800288539106024000000C001002872
:10027000D5353000901000382400300050000000C8
:1002800080000030244000C1240000382400060013
:10029000909F00000000093000200600509F80B8A9
:1002A00000A00600D09F09300020F4361258F03626
:1002B0001098F036011805341490F3362400F23605
:1002C00024000020000000002400300090100000F6
:1002D000C0010028C0350038240030009010000014
:1002E00040010028C035003824000028002710C035
:1002F00024000000571013362400123E2400053E4F
:1003000014B812290013853624000700509280B8D3
:1003100024001229801100382400000084001800F5
:1003200000001336240090684038103E24002E0050
:1003300000E000298020003E2400E3362400082944
:1003400080BE2E0005E03000900600004102003023
:10035000240010C0240082B80020060050A0000035
:10036000000009300020060010A000000010093035
:100370000020040000001529C07A00001000122996
:100380000013000024003000100390680100066193
:100390002400000024000028D551000024000000A3
:1003A00003000000008000634C18100001000028CA
:1003B000984C80B8240002004502000000009468B8
:1003C0004038103E24401241423884B84038103E34
:1003D00024400029C015003E248038438C9A4843AD
:1003E000240048452400966310411038240010383A
:1003F000244000280047E0382480300090039468AF
:100400004038103E2440003E24801529004600302C
:1004100024008A4104408C42C21BF0362440152936
:1004200080B7F036240003009083103824000000C9
:10043000C07F10382440E038248030005003003062
:1004400024400300508300B1240000382400122906
:10045000C00E1336240000F40140000000100661B5
:100460002400000024000028494500002400233413
:100470004C1800F4104500F412451229801FE33493
:100480002400000003000000000800638C1000003E
:1004900000080028417309304C18020011000300C5
:1004A00010830030CC1B98608C93024004201240D3
:1004B0002400020040021040240000F413401031D8
:1004C000240010312440E0312480103B2400103BF4
:1004D0002440E03B24801031240010312440E031DE
:1004E00024800300518300312400006424000300B1
:1004F00051820028D15C80B8240000382400030019
:100500001083003024000240240012402400020026
:1005100040021040240000F410401030240010303D
:100520002440E03024800200900180B84020103840
:1005300024401000010084B88223113124001131BD
:10054000244015290099E131248002001300103B5A
:100550004C18103B4C50E03B2480103124001031EB
:100560002440E0312480103E2400103E2440103E00
:1005700024801031240010312440E0312480043CD8
:1005800024000200D000103E2400103E2440003E13
:1005900024801030240010302440E0302480F434D3
:1005A00024001130240011302440152940A9E130E5
:1005B00024808A4104408C42C21BF0364C501529DD
:1005C00080A5F0362400043C240003009083113001
:1005D000240011302440E130248015290099F4349E
:1005E00024008A4104408C42C21BF0362440152965
:1005F00080A5F03624001039240010392440E03959
:1006000024800200D1001030240010302440E0305B
:1006100024801030240010302440E0302480103931
:10062000240010392440E03924801030240080B8A0
:10063000410010000100E03024800000020411336A
:1006400024001133244015290099E1332480152911
:10065000409F0000240002689044203A4C0000288B
:10066000405596630120103E24000C290073153E6E
:100670008C1300284045E3362400123E17B8123E82
:100680000878113E11B8153E1078183E23B8183E70
:100690002138103E0138B2482400103E0138113E86
:1006A00002380930143830001707053F24C03000E5
:1006B000510300312400804024003000D110002874
:1006C000857F01000A80060014651131248094683A
:1006D000C1131866240044FE0010B24C0604103CFE
:1006E0002400503C2440F03424401C66401064FE3A
:1006F0002400B24C2400F03C244082BC8030300006
:10070000510300312480A8FE2400A25C24000000D4
:10071000820122AC2400C8F72400B248240022AC95
:10072000240000280083CCF702103000940300342A
:10073000244000314C18060051C01E29808006005C
:100740001064884001103000111100314C1806006F
:1007500051C01E29808006005065060094668C40BA
:10076000021024F22400060017A0002815870000BC
:100770002400002801880600106450302400003056
:100780002440146024000000240000285986000042
:10079000240000F44040B0382400002800880038CD
:1007A00024000028C1870000240000F4064100F462
:1007B00084413000D506053DD45B00F41541F13687
:1007C0000218F036011810220000F0360118F83631
:1007D0002118F83623980600579F2000D0FF0930D3
:1007E000111C85392440813924800930113CF536AB
:1007F0001058F1361198F23608580236248030002D
:10080000170700210000053FD7DB13362400103EF8
:1008100003B8123E10B800000A8003009084103024
:1008200044380100046CC0FFC103B648063886484E
:10083000C240C2FF45B81000C46986590738C65384
:100840002400D64D2400B248C240C24C4348DE4C7E
:1008500024003C0045C7DEFF2400B6482400DCFF2E
:100860002400B2424200C246C303C26D240098FE77
:100870002400B6482400020001C5F2FE2400867858
:100880002400BA422400E2FE2400BA6E24008A4505
:1008900024008A4E24001F00C1FF00285997904869
:1008A000C71BCA4E2400C3BE65661038CC1B003877
:1008B000C45BF236109800200000F0360398030065
:1008C0009784103F240000200000003F24400700D0
:1008D00001000C0E060008000000000200000000ED
:1008E00000800000E3BCA51607000100238006007D
:1008F0000200002A8E7400000000240027002A0055
:1009000000000000250028002B000000000023004C
:100910002600290004040404040404040202020260
:1009200002020303030303030102040810204080B2
:100930000102040810200102040810200000000831
:100940000002010000030407000000000000000096
:1009500011241FBECFEFD8E0DEBFCDBF11E0A0E075
:10096000B1E0EEE1F1E102C005900D92A430B107D3
:10097000D9F721E0A4E0B1E001C01D92AE30B2078A
:10098000E1F70E943F060C948D080C940000833020
:1009900081F028F4813099F08230A9F008958730F1
:1009A000A9F08830C9F08430B1F4809180008F7D47
:1009B00003C0809180008F7780938000089584B574
:1009C0008F7784BD089584B58F7DFBCF8091B00073
:1009D0008F778093B00008958091B0008F7DF9CF1C
:1009E000CF93DF93EEE3F9E08491EAE2F9E0D4916A
:1009F000E6E1F9E0C491CC23A1F081110E94C70483
:100A0000EC2FF0E0EE0FFF1FE65FF64FA591B491DB
:100A1000EC91ED2381E090E009F480E0DF91CF914B
:100A2000089580E090E0FACF1F93CF93DF93282FB3
:100A300030E0F901E45CF64F8491F901E85DF64F8E
:100A4000D491F901EC5EF64FC491CC23A9F0162F96
:100A500081110E94C704EC2FF0E0EE0FFF1FE05061
:100A6000F74FA591B4918FB7F894EC91111108C08C
:100A7000D095DE23DC938FBFDF91CF911F91089536
:100A8000DE2BF8CFCF93DF9390E0FC01E85DF64FCB
:100A900024918C5E964FFC0184918823D1F090E0E4
:100AA000880F991FFC01EA50F74FA591B491FC0102
:100AB000E050F74FC591D49161110EC09FB7F894E3
:100AC0008C91E22FE0958E238C932881E223E8839A
:100AD0009FBFDF91CF9108958FB7F894EC91E22BEF
:100AE000EC938FBFF6CF3FB7F89480910A019091B5
:100AF0000B01A0910C01B0910D0126B5A89B05C07A
:100B00002F3F19F00196A11DB11D3FBFBA2FA92F8C
:100B1000982F8827BC01CD01620F711D811D911D89
:100B200042E0660F771F881F991F4A95D1F70895F5
:100B30008F929F92AF92BF92CF92DF92EF92FF92ED
:100B40004B015C010E9473056B017C010E947305DF
:100B50006C197D098E099F09683E734081059105D6
:100B6000A8F321E0821A9108A108B10888EEC80E06
:100B700083E0D81EE11CF11C81149104A104B1048E
:100B800029F7FF90EF90DF90CF90BF90AF909F90AC
:100B90008F9008958EBD00000DB407FEFDCF8EB579
:100BA00008951F93CF93DF93182FEB010E94F00459
:100BB000892BE1F360E086E00E94140582E00E9448
:100BC000CA05812F0E94CA058D2F0E94CA058C2F4D
:100BD0000E94CA050E94F004892BE1F361E086E0DF
:100BE000DF91CF911F910C9414051F920F920FB6B5
:100BF0000F9211242F933F938F939F93AF93BF93A3
:100C00008091060190910701A0910801B09109011E
:100C10003091050123E0230F2D3758F50196A11DD2
:100C2000B11D209305018093060190930701A093C5
:100C30000801B093090180910A0190910B01A091E4
:100C40000C01B0910D010196A11DB11D80930A0107
:100C500090930B01A0930C01B0930D01BF91AF9144
:100C60009F918F913F912F910F900FBE0F901F90EA
:100C7000189526E8230F0296A11DB11DD2CF7894B6
:100C800084B5826084BD84B5816084BD85B5826091
:100C900085BD85B5816085BD80916E008160809342
:100CA0006E001092810080918100826080938100AB
:100CB00080918100816080938100809180008160BB
:100CC000809380008091B10084608093B100809116
:100CD000B00081608093B00080917A00846080933E
:100CE0007A0080917A00826080937A0080917A0005
:100CF000816080937A0080917A00806880937A0086
:100D00001092C10061E088E00E94420560E082E04C
:100D10000E94420561E086E00E94420561E087E0B2
:100D20000E944205FFB6F89480910401811127C00A
:100D3000EEE1F9E08491E2E3F9E09491E82FF0E04C
:100D4000EE0FFF1FEA50F74FA591B491EC91E92304
:100D500021F461E08AE00E94140561E08AE00E94CB
:100D600042058CB580618CBD8CB580648CBD61E022
:100D70008DE00E94420561E08BE00E944205809177
:100D800004018F5F80930401FFBE8CB58C7F81606E
:100D90008CBD8DB58E7F8DBD8FEF0E94CA0561E041
:100DA00088E00E94140561E086E00E94140561E07D
:100DB00087E00E941405D12CC12CC601880F991F11
:100DC000FC01E859FF4F25913491722E460122E033
:100DD000820E911CFC01E659FF4FE590F490B12C76
:100DE000A12CF7FE22C0E894F7F823E0C20ED11C34
:100DF000FC01E459FF4FC591D49181E0E81AF10854
:100E0000D0F0BE01872D0E94D105F7CFF601EA0D83
:100E1000FB1DEE0FFF1FE459FF4F65917491872D65
:100E20000E94D1058FEFA81AB80AEA14FB0471F7E3
:100E30006701C80CD91C27E4C21624E0D2060CF4C2
:100E4000BCCF68EE7BE883E00E94D1056FE47FE4CD
:100E50008BE00E94D10570E060E082E00E94D10545
:100E60008CB58C7F8CBD8DB58E7F8DBD64E47CEAA6
:100E700085E00E94D10560E570E08AE00E94D1051E
:100E800089E0C82ED12CE12CF12CC0E0D0E00E94EA
:100E9000D2072B013C010E94D2074B015C0161E0AB
:100EA00070E08CE00E94D105C301B20120EF31E077
:100EB00040E050E00E942A08605F7F4F8F4F9F4FB5
:100EC0008DE00E94D105C501B401A70196010E94E1
:100ED0002A086F5F7F4F8F4F9F4F8EE00E94D10592
:100EE00061E070E080E090E00E94980570E060E0D2
:100EF0008CE00E94D10569EF70E080E090E00E94F4
:100F00009805209721F20E940000C1CF8F929F92F6
:100F1000AF92BF92CF92DF92EF92FF92CF93DF9387
:100F2000EC01688179818A819B8161157105810558
:100F3000910521F464E279ED8BE597E02DE133EF43
:100F400041E050E00E942A0849015A019B01AC018E
:100F5000A7EAB1E40E9449086B017C01ACEEB4EF52
:100F6000A50194010E945708C60ED71EE81EF91E5F
:100F7000F7FE06C081E0C81AD108E10880E8F80A47
:100F8000C882D982EA82FB82C701B6019F77DF91CE
:100F9000CF91FF90EF90DF90CF90BF90AF909F9058
:100FA0008F9008958F929F92AF92BF92CF92DF92CF
:100FB000EF92FF9260910001709101018091020116
:100FC00090910301611571058105910521F464E299
:100FD00079ED8BE597E02DE133EF41E050E00E94A1
:100FE0002A0849015A019B01AC01A7EAB1E40E9419
:100FF00049086B017C01ACEEB4EFA50194010E949D
:101000005708C60ED71EE81EF91EF7FE06C081E07F
:10101000C81AD108E10880E8F80AC0920001D0920D
:101020000101E0920201F0920301C701B6019F772E
:10103000FF90EF90DF90CF90BF90AF909F908F90F8
:1010400008956093000170930101809302019093D1
:1010500003010895052E97FB1EF400940E94410899
:1010600057FD07D00E945C0807FC03D04EF40C9497
:10107000410850954095309521953F4F4F4F5F4F18
:10108000089590958095709561957F4F8F4F9F4FF4
:1010900008950E947E08A59F900DB49F900DA49F77
:1010A000800D911D11240895B7FF0C9449080E94EA
:1010B0004908821B930B0895A1E21A2EAA1BBB1BA1
:1010C000FD010DC0AA1FBB1FEE1FFF1FA217B30714
:1010D000E407F50720F0A21BB30BE40BF50B661F2A
:1010E000771F881F991F1A9469F7609570958095EE
:1010F00090959B01AC01BD01CF010895A29FB00165
:10110000B39FC001A39F700D811D1124911DB29F3B
:10111000700D811D1124911D0895F894FFCF0100D9
:021120000000CD
:107E0000112484B714BE81FFF0D085E080938100F7
:107E100082E08093C00088E18093C10086E0809377
:107E2000C20080E18093C4008EE0C9D0259A86E02C
:107E300020E33CEF91E0309385002093840096BBD3
:107E4000B09BFECF1D9AA8958150A9F7CC24DD24C4
:107E500088248394B5E0AB2EA1E19A2EF3E0BF2EE7
:107E6000A2D0813461F49FD0082FAFD0023811F036
:107E7000013811F484E001C083E08DD089C08234E0
:107E800011F484E103C0853419F485E0A6D080C0E4
:107E9000853579F488D0E82EFF2485D0082F10E0AE
:107EA000102F00270E291F29000F111F8ED06801E7
:107EB0006FC0863521F484E090D080E0DECF843638
:107EC00009F040C070D06FD0082F6DD080E0C81688
:107ED00080E7D80618F4F601B7BEE895C0E0D1E017
:107EE00062D089930C17E1F7F0E0CF16F0E7DF06D8
:107EF00018F0F601B7BEE89568D007B600FCFDCFD4
:107F0000A601A0E0B1E02C9130E011968C91119780
:107F100090E0982F8827822B932B1296FA010C0160
:107F200087BEE89511244E5F5F4FF1E0A038BF0790
:107F300051F7F601A7BEE89507B600FCFDCF97BE46
:107F4000E89526C08437B1F42ED02DD0F82E2BD052
:107F50003CD0F601EF2C8F010F5F1F4F84911BD097
:107F6000EA94F801C1F70894C11CD11CFA94CF0C13
:107F7000D11C0EC0853739F428D08EE10CD085E9AC
:107F80000AD08FE07ACF813511F488E018D01DD067
:107F900080E101D065CF982F8091C00085FFFCCF94
:107FA0009093C60008958091C00087FFFCCF809118
:107FB000C00084FD01C0A8958091C6000895E0E648
:107FC000F0E098E1908380830895EDDF803219F02E
:107FD00088E0F5DFFFCF84E1DECF1F93182FE3DFCA
:107FE0001150E9F7F2DF1F91089580E0E8DFEE27F6
:047FF000FF270994CA
:027FFE00040479
:00000001FF
