:020000040000FA
:100000000C9462000C948A000C948A000C948A0070
:100010000C948A000C948A000C948A000C948A0038
:100020000C948A000C948A000C948A000C94AD0104
:100030000C948A000C948A000C948A000C948A0018
:100040000C9463010C948A000C948A000C948A002E
:100050000C948A000C948A000C948A000C948A00F8
:100060000C948A000C948A000000000024002700F1
:100070002A0000000000250028002B0000000000DE
:1000800023002600290004040404040404040202DA
:100090000202020203030303030301020408102007
:1000A0004080010204081020010204081020000012
:1000B0000008000201000003040700000000000027
:1000C0000000B70311241FBECFEFD8E0DEBFCDBFC5
:1000D00013E0A0E0B1E0E0EAF9E002C005900D9283
:1000E000A63DB107D9F728E0A6EDB3E001C01D9207
:1000F000A632B207E1F710E0C2E6D0E004C02197D3
:10010000FE010E94C804C136D107C9F70E94EA0166
:100110000C94CE040C940000833081F028F48130DC
:1001200099F08230A9F008958730A9F08830C9F09D
:100130008430B1F4809180008F7D03C08091800075
:100140008F7780938000089584B58F7784BD08955C
:1001500084B58F7DFBCF8091B0008F778093B00006
:1001600008958091B0008F7DF9CFCF93DF93E0EBBE
:10017000F0E08491ECE9F0E0D491E8E8F0E0C4919B
:10018000CC23A1F081110E948C00EC2FF0E0EE0F47
:10019000FF1FE458FF4FA591B491EC91ED2381E04E
:1001A00090E009F480E0DF91CF91089580E090E045
:1001B000FACF1F93CF93DF93282F30E0F901E25558
:1001C000FF4F8491F901E656FF4FD491F901EA57A8
:1001D000FF4FC491CC23A9F0162F81110E948C00EF
:1001E000EC2FF0E0EE0FFF1FEE58FF4FA591B491FA
:1001F0008FB7F894EC91111108C0D095DE23DC93F1
:100200008FBFDF91CF911F910895DE2BF8CFCF9351
:10021000DF9390E0FC01E656FF4F24918A579F4FF1
:10022000FC0184918823D1F090E0880F991FFC0194
:10023000E859FF4FA591B491FC01EE58FF4FC591CD
:10024000D49161110EC09FB7F8948C91E22FE09584
:100250008E238C932881E223E8839FBFDF91CF9187
:1002600008958FB7F894EC91E22BEC938FBFF6CF03
:100270008EBD00000DB407FEFDCF8EB508951F930F
:10028000CF93DF93182FEB010E94B500892BE1F388
:1002900060E086E00E94D90082E00E943801812F50
:1002A0000E9438018D2F0E9438018C2F0E94380146
:1002B0000E94B500892BE1F361E086E0DF91CF91E8
:1002C0001F910C94D9001F920F920FB60F92112418
:1002D0002F933F938F939F93AF93BF938091220867
:1002E00090912308A0912408B0912508309121080D
:1002F00023E0230F2D3758F50196A11DB11D209342
:1003000021088093220890932308A0932408B09397
:10031000250880911D0890911E08A0911F08B0919A
:1003200020080196A11DB11D80931D0890931E0801
:10033000A0931F08B0932008BF91AF919F918F9118
:100340003F912F910F900FBE0F901F90189526E8A8
:10035000230F0296A11DB11DD2CF1F920F920FB68F
:100360000F9211241F932F933F934F935F936F939B
:100370007F938F939F93AF93BF93CF93DF93EF932D
:10038000FF93CBEDD3E011E018830E942604817027
:1003900089830E94260463E070E00E9499049B8395
:1003A0008A8380910001812780930001FF91EF9162
:1003B000DF91CF91BF91AF919F918F917F916F917D
:1003C0005F914F913F912F911F910F900FBE0F9012
:1003D0001F901895789484B5826084BD84B581603F
:1003E00084BD85B5826085BD85B5816085BD809100
:1003F0006E00816080936E00109281008091810078
:10040000826080938100809181008160809381006F
:10041000809180008160809380008091B100846031
:100420008093B1008091B00081608093B000809192
:100430007A00846080937A0080917A008260809351
:100440007A0080917A00816080937A0080917A00AE
:10045000806880937A001092C100F8941092800016
:1004600010928100109285001092840082E49FE037
:1004700090938900809388008091810088608093A8
:1004800081008091810085608093810080916F0060
:10049000826080936F00789461E088E00E94070199
:1004A00060E082E00E94070161E086E00E940701AF
:1004B00061E087E00E940701CFB7F8948091D603EE
:1004C000811127C0E0E9F0E08491E4EAF0E0949142
:1004D000E82FF0E0EE0FFF1FE859FF4FA591B49110
:1004E000EC91E92321F461E08AE00E94D90061E007
:1004F0008AE00E9407018CB580618CBD8CB5806458
:100500008CBD61E08DE00E94070161E08BE00E94FC
:1005100007018091D6038F5F8093D603CFBF8CB540
:100520008C7F81608CBD8DB58E7F8DBD8FEF0E94DD
:10053000380161E088E00E94D90061E086E00E9415
:10054000D90061E087E00E94D90060E070E683E0B6
:100550000E943F016FE57FE58BE00E943F018CB573
:100560008C7F8CBD8DB58E7F8DBD64E47CEA85E08B
:100570000E943F0160E270E48AE00E943F0104EBC8
:1005800010E0FDE14F2EF8E05F2E812CA2E09A2EC4
:10059000A12CB12CB0E02B2EB0E03B2E662463944E
:1005A000712CD4E6ED2EF12C8091DB038823D9F059
:1005B0008091DC03882309F49AC0C5EBD6E00E9441
:1005C0002604B8010E949904899399934C165D06FC
:1005D000B1F71092E2031092E1037092E40360928B
:1005E000E3031092DB038091E1039091E203843BEB
:1005F00091056CF08091E3039091E4031092E20383
:100600001092E10301969093E4038093E303209119
:10061000DD033091DE038091E1039091E203211527
:10062000310509F07BC0DC01AA0FBB1FAB51BC4FE9
:10063000FC01EE0FFF1FE35BFA4F2D913C914081CF
:100640005181240F351F3E5F3093E0032093DF0379
:1006500001969093E2038093E10380910001882347
:1006600009F47CC08091DF039091E0036091E30383
:100670007091E4030E949904EB012CED3EE1DB0153
:100680000E94AD04A50194010E9436042C593F4FED
:100690004F4F5F4F3093DA032093D903AA27BB272C
:1006A000AC1BBD0B24EF3AE10E94AD04A5019401FF
:1006B0000E9436042C593F4F4F4F5F4F3093D80361
:1006C0002093D7036091D9037091DA038CE00E94E4
:1006D0003F016091D7037091D8038DE00E943F01E4
:1006E0002114310409F460CF0E9400005DCFE5EBD6
:1006F000CE2EE6E0DE2ED0E0C0E00E942604B80157
:100700000E949904BE010E949904F60161937193BD
:100710006F012196C43BD10581F75BCF21303105B4
:1007200089F4FC01EE0FFF1FEB54F94F208131815A
:100730003595279535952795FC01EE0FFF1FEB5159
:10074000FC4F7DCF2230310509F082CFFC01EE0F46
:10075000FF1FEB54F94F2081318175CFF092DA03FE
:10076000E092D903F092D803E092D703ABCFEBED40
:10077000F3E0108211821382128215821482178292
:10078000168281E090E09187808788E691E0E5E03D
:10079000F1E0A5EEB3E001900D920197E1F788E654
:1007A00091E0EDE6F2E0ADE4B5E001900D92019745
:1007B000E1F708958F929F92AF92BF92CF92DF920E
:1007C000EF92FF92CF93DF93EC01688179818A8168
:1007D0009B81611571058105910521F464E279ED34
:1007E0008BE597E02DE133EF41E050E00E943604C5
:1007F00049015A019B01AC01A7EAB1E40E945504EA
:100800006B017C01ACEEB4EFA50194010E9463047E
:10081000DC01CB018C0D9D1DAE1DBF1DB7FF03C0BC
:100820000197A109B04888839983AA83BB839F77E6
:10083000DF91CF91FF90EF90DF90CF90BF90AF907E
:100840009F908F9008950E94DA03089581E091E0CF
:100850000E94DA030895B0E0A0E080930101909334
:100860000201A0930301B09304010895052E97FBA4
:100870001EF400940E944D0457FD07D00E946804A6
:1008800007FC03D04EF40C944D04509540953095E0
:1008900021953F4F4F4F5F4F0895909580957095EC
:1008A00061957F4F8F4F9F4F08950E948A04A59FA7
:1008B000900DB49F900DA49F800D911D112408955B
:1008C000B7FF0C9455040E945504821B930B0895A6
:1008D000A1E21A2EAA1BBB1BFD010DC0AA1FBB1F44
:1008E000EE1FFF1FA217B307E407F50720F0A21BB6
:1008F000B30BE40BF50B661F771F881F991F1A9423
:1009000069F760957095809590959B01AC01BD014C
:10091000CF010895A29FB001B39FC001A39F700DA6
:10092000811D1124911DB29F700D811D1124911DF7
:10093000089597FB072E16F4009407D077FD09D091
:100940000E94B40407FC05D03EF4909581959F4F1A
:100950000895709561957F4F08950E948A04B7FFAE
:100960000895821B930B0895AA1BBB1B51E107C07E
:10097000AA1FBB1FA617B70710F0A61BB70B881F2F
:10098000991F5A95A9F780959095BC01CD010895BE
:10099000EE0FFF1F0590F491E02D0994F894FFCF1E
:1009A0000101000000000011002200340045005643
:1009B000006700780089009A00AB00BB00CB00DB29
:1009C00000EA00FA00080117012501330141014E38
:1009D000015B01670173017F018A0194019E01A8F7
:1009E00001B101B901C101C801CF01D501DB01E0AD
:1009F00001E501E901EC01EF01F101F201F301F47C
:100A000001F301F201F101EF01EC01E901E501E07F
:100A100001DB01D501CF01C801C101B901B101A8B4
:100A2000019E0194018A017F01730167015B014E00
:100A30000141013301250117010801FA00EA00DB39
:100A400000CB00BB00AB009A00890078006700561D
:100A50000045003400220011000000EEFFDDFFCB56
:100A6000FFBAFFA9FF98FF87FF76FF65FF54FF4499
:100A7000FF34FF24FF15FF06FFF7FEE8FEDAFECC89
:100A8000FEBEFEB1FEA4FE98FE8CFE80FE75FE6BDF
:100A9000FE61FE57FE4EFE46FE3EFE37FE30FE2A4B
:100AA000FE24FE1FFE1AFE16FE13FE10FE0EFE0DA5
:100AB000FE0CFE0CFE0CFE0DFE0EFE10FE13FE16CE
:100AC000FE1AFE1FFE24FE2AFE30FE37FE3EFE46C4
:100AD000FE4EFE57FE61FE6BFE75FE80FE8CFE989C
:100AE000FEA4FEB1FEBEFECCFEDAFEE8FEF7FE0678
:100AF000FF15FF24FF34FF44FF54FF65FF76FF8797
:100B0000FF98FFA9FFBAFFCBFFDDFFEEFF0000A0BB
:100B1000016D0141014E01330117011701FE00E88B
:100B200000E300CB00B900B2009B008C0083006E94
:100B300000610058004400390030001E0015000B11
:100B400000FCFFF5FFEBFFDEFFD8FFD0FFC4FFC1C5
:100B5000FFB9FFB0FFAEFFA8FFA1FFA1FF9BFF9869
:100B6000FF99FF95FF93FF96FF93FF95FF99FF98DD
:100B7000FF9BFFA1FFA1FFA8FFAEFFB0FFB9FFC120
:100B8000FFC4FFD0FFD8FFDEFFEBFFF5FFFCFF0B3C
:100B90000015001E00300039004400580061006E4E
:100BA0000083008C009B00B200B900CB00E300E89A
:100BB00000FE001701170133014E0141016D01A034
:100BC0000100005FFE92FEBEFEB1FECCFEE8FEE834
:100BD000FE01FF17FF1CFF34FF46FF4DFF64FF734C
:100BE000FF7CFF91FF9EFFA7FFBBFFC6FFCFFFE18A
:100BF000FFEAFFF4FF03000A001400210027002F82
:100C0000003B003E0046004F00510057005E005E72
:100C1000006400670066006A006C0069006C006A8E
:100C2000006600670064005E005E00570051004FE0
:100C30000046003E003B002F002700210014000A60
:100C4000000300F4FFEAFFE1FFCFFFC6FFBBFFA7F1
:100C5000FF9EFF91FF7CFF73FF64FF4DFF46FF3453
:100C6000FF1CFF17FF01FFE8FEE8FECCFEB1FEBE51
:060C7000FE92FE5FFE0093
:107E0000112484B714BE81FFF0D085E080938100F7
:107E100082E08093C00088E18093C10086E0809377
:107E2000C20080E18093C4008EE0C9D0259A86E02C
:107E300020E33CEF91E0309385002093840096BBD3
:107E4000B09BFECF1D9AA8958150A9F7CC24DD24C4
:107E500088248394B5E0AB2EA1E19A2EF3E0BF2EE7
:107E6000A2D0813461F49FD0082FAFD0023811F036
:107E7000013811F484E001C083E08DD089C08234E0
:107E800011F484E103C0853419F485E0A6D080C0E4
:107E9000853579F488D0E82EFF2485D0082F10E0AE
:107EA000102F00270E291F29000F111F8ED06801E7
:107EB0006FC0863521F484E090D080E0DECF843638
:107EC00009F040C070D06FD0082F6DD080E0C81688
:107ED00080E7D80618F4F601B7BEE895C0E0D1E017
:107EE00062D089930C17E1F7F0E0CF16F0E7DF06D8
:107EF00018F0F601B7BEE89568D007B600FCFDCFD4
:107F0000A601A0E0B1E02C9130E011968C91119780
:107F100090E0982F8827822B932B1296FA010C0160
:107F200087BEE89511244E5F5F4FF1E0A038BF0790
:107F300051F7F601A7BEE89507B600FCFDCF97BE46
:107F4000E89526C08437B1F42ED02DD0F82E2BD052
:107F50003CD0F601EF2C8F010F5F1F4F84911BD097
:107F6000EA94F801C1F70894C11CD11CFA94CF0C13
:107F7000D11C0EC0853739F428D08EE10CD085E9AC
:107F80000AD08FE07ACF813511F488E018D01DD067
:107F900080E101D065CF982F8091C00085FFFCCF94
:107FA0009093C60008958091C00087FFFCCF809118
:107FB000C00084FD01C0A8958091C6000895E0E648
:107FC000F0E098E1908380830895EDDF803219F02E
:107FD00088E0F5DFFFCF84E1DECF1F93182FE3DFCA
:107FE0001150E9F7F2DF1F91089580E0E8DFEE27F6
:047FF000FF270994CA
:027FFE00040479
:00000001FF
