:020000040000FA
:100000000C9418040C9435040C9435040C943504A9
:100010000C9435040C9435040C9435040C9435047C
:100020000C9435040C9435040C9435040C9435046C
:100030000C9435040C9435040C9435040C9435045C
:100040000C9433050C9435040C9435040C9435044D
:100050000C9435040C9435040C9435040C9435043C
:100060000C9435040C943504070001005080060000
:10007000180013362400003E01380000D71600F4A3
:10008000C0550000170C00F4C0570700579280B00D
:100090002400003F240000200000F0360118002852
:1000A000C031070001005C800600D600123E17B880
:1000B000123E1538053E14B81536240000000A809B
:1000C000103E013806000000103E03B80000030394
:1000D000113E0538113E07B8143E123884B80C138F
:1000E000103424401241D01010408C0010402400E5
:1000F00000F412400030403809300138000041005F
:1001000002FE240000290082B2482400F33644088D
:10011000066345883AAE40888EBF418B32AC46A814
:10012000C8FFC7AB013E007800F480449060240013
:100130009060240000F41540093046340930C73778
:100140000930001809304438B348E0E182484040A3
:10015000CAFE2400C25A2400525A2400C24C240071
:10016000BA484040EA4E0148CA4E009880FFC11B81
:10017000EBF1E2E3EAF14C188B4CE4E5BE4804985D
:100180008E48C64182FE24008E5A24005E52851B92
:10019000FE4F2400B648C641D64DC748F64D240050
:1001A000D6F12400D6F12400DA4E24000000C30F5B
:1001B00000290082824E240084400C1306000001B6
:1001C000403424401040240000F412400032244007
:1001D00032B124001442240024F2240030622400AE
:1001E000010001000028492B0000240000F4C24057
:1001F0000032240082FF2400B248240030B12400E1
:10020000026224003F0001F00028512E0000461039
:1002100064FE2400BE4824000028402F013A2480B8
:100220000032240010B0240020C02400003A240032
:10023000F4361218F1360798F1360518F03603989F
:10024000F036011805341490F3362400F2361518F0
:1002500000200000F236179807000100C780060052
:10026000AE01123E17B8123E1538053E14B82536B9
:10027000240000000A80103E0278103E04F8113E6F
:100280001078143E137806005100133E0EF8133E0A
:1002900024400930403809305238112940F1060015
:1002A000D0060031D25B060051C30930C01B0930B3
:1002B0000204266124000600D1000028454D0000FC
:1002C00024000600110082B84C180930503806008E
:1002D0001000093000381429C0BE000000180600C4
:1002E000100082B824001529C07A00000017000011
:1002F00001030039C05B060051C30930D01B09302F
:100300000404060051000028403D013924004844FF
:10031000010492412400986401241F0001401264EA
:100320002400060011000028913C00008E050024E6
:100330004E4C00001300060051000600031A003165
:10034000244012F2C4444643240000F4D540003552
:1003500024802A612400000024000028914C000021
:10036000240013362400003100381529C07D00F226
:1003700024003F00C2FE824011441331C01B22A161
:100380002400000002202461012400000210002843
:100390004846000024003F0002F80031244024B108
:1003A00024000028004C003924802461240000002F
:1003B000020800288848000024003F0002FE0031A7
:1003C000244024B124000028004C003924802461FA
:1003D0002400000002040028C84A000024003F0056
:1003E00002FF0031244024B124000028004C0039D1
:1003F0002480246101043F0082FF0028084C24B1BE
:1004000024000039248082B84C8C30382440060007
:100410009100043924C00600D1000000130000310F
:100420004C9002422400F039244000312440003C2A
:10043000244000F4C144F0342480266124000600E6
:10044000D0060028985B944224000024425B000000
:10045000240000F41144233124000031248002429E
:10046000240082410124000002200028495B000092
:10047000240013304C18F0305278246150B8060034
:1004800001000028C8558840C2442442240022416B
:1004900024002241240000F4514000290072000091
:1004A000085724422400224124002241240000292C
:1004B000806700F45140020002000930D01B233055
:1004C000D21BE030244024612400000024000028D6
:1004D000485B0000240013362400143E24C0002989
:1004E0000017143E2400E3368C00E030248022689C
:1004F0001144233124000039244033304C0C0600D1
:1005000011009268C20422A10204266124000600A0
:1005100093000028C1640000240082B84C181334F2
:1005200012380600D200003AD25B003324400000AB
:100530001300003C244000F4C144F03424802661C0
:100540002400060011010028D864944224000024ED
:10055000826400002400030001F00131240012B481
:100560002400280001000028856444612400040060
:10057000020000284164224424000000021022648A
:1005800024000028806400392440003924401331BD
:100590004C0CF3362440F3360ED8F4361358F136AB
:1005A0001058F03604D8F036025805341490F3365B
:1005B0002400F236151800200000F23617980700C4
:1005C0000100681806000F0032004F007E00C800CE
:1005D0003D01F8012003F604E007800CD8137F1FCB
:1005E00000325F4FA861060008800000070001008C
:1005F0009E8106005400123E14B800000A80103E8E
:100600000138103E03B8113E0678113E13F8133E30
:100610000EF8133E2440043E10789A444000010036
:1006200003000028C4703640C1030300C2FF26B394
:10063000240018004200264395442440D240000084
:10064000800100A190401000C20F0442240082BC2F
:1006500091409A452400000054000028C46F86BDD4
:1006600093400024856F01FE0C5E435C2D5F465E67
:100670000C02565C0C8A535E0C5E435C2D5F465E3A
:100680000C02565C0C8A525E2400B24C05441800E1
:1006900044004A6524000028C07DF4361058070045
:1006A0000100C88106008000123E14B800000A80D4
:1006B000103E0138103E03B8113E0678113E13F883
:1006C000133E0EF8133E2440043E10789A44400036
:1006D000000003080028847CF0302440FF0FC2FE95
:1006E00020A02400FF0F02FF22A124003640240096
:1006F0000000C21F26B32400100002402643954488
:100700002440D2400000800100A19040100042002F
:100710000442240082BC91409A4524000000540009
:100720000028847B86BD93400024457B01FE0C5E3F
:10073000435C2D5F465E2400565C2400535E0C5ED5
:10074000435C2D5F465E2400565C2400525E24000C
:10075000B24C0544100004404A6510980000440162
:100760004AA5D11B06001300013344C47E6805204E
:1007700076AD4584D64E8487F336C26472AC8587E5
:10078000C24E43A40930402409304127F3360ED825
:10079000F13613D8F1360658F0360398F0360118C2
:1007A00000200000F23614980700010008820600BD
:1007B0000E00824C24000000240000200500C2F539
:1007C00024000000800900200000106024000A00BE
:1007D0000100500000000000240027002A00000053
:1007E0000000250028002B00000000002300260048
:1007F00029000404040404040404020202020202A4
:1008000003030303030301020408102040800102D4
:100810000408102001020408102000000008000253
:100820000100000304070000000000000000FA06B9
:1008300011241FBECFEFD8E0DEBFCDBF21E0A0E086
:10084000B1E001C01D92AE30B207E1F714E0C8E19B
:10085000D4E004C02197FE010E94A508C731D1074A
:10086000C9F70E947D050C94AB080C9400008330FE
:1008700081F028F4813099F08230A9F00895873012
:10088000A9F08830C9F08430B1F4809180008F7D68
:1008900003C0809180008F7780938000089584B595
:1008A0008F7784BD089584B58F7DFBCF8091B00094
:1008B0008F778093B00008958091B0008F7DF9CF3D
:1008C000CF93DF93ECE1F8E08491E8E0F8E0D49195
:1008D000E4EFF7E0C491CC23A1F081110E9437042A
:1008E000EC2FF0E0EE0FFF1FE851F84FA591B49107
:1008F000EC91ED2381E090E009F480E0DF91CF916D
:10090000089580E090E0FACF1F93CF93DF93282FD4
:1009100030E0F901E65EF74F8491F901EA5FF74FA5
:10092000D491F901EE50F84FC491CC23A9F0162FC1
:1009300081110E943704EC2FF0E0EE0FFF1FE2520E
:10094000F84FA591B4918FB7F894EC91111108C0AC
:10095000D095DE23DC938FBFDF91CF911F91089557
:10096000DE2BF8CFCF93DF9390E0FC01EA5FF74FE7
:1009700024918E50984FFC0184918823D1F090E00F
:10098000880F991FFC01EC52F84FA591B491FC011E
:10099000E252F84FC591D49161110EC09FB7F894FF
:1009A0008C91E22FE0958E238C932881E223E883BB
:1009B0009FBFDF91CF9108958FB7F894EC91E22B10
:1009C000EC938FBFF6CF3FB7F89480910A019091D6
:1009D0000B01A0910C01B0910D0126B5A89B05C09B
:1009E0002F3F19F00196A11DB11D3FBFBA2FA92FAE
:1009F000982F8827BC01CD01620F711D811D911DAB
:100A000042E0660F771F881F991F4A95D1F7089516
:100A10008EBD00000DB407FEFDCF8EB508951F9367
:100A2000CF93DF93182FEB010E946004892BE1F331
:100A300060E086E00E94840482E00E940805812F25
:100A40000E9408058D2F0E9408058C2F0E94080522
:100A50000E946004892BE1F361E086E0DF91CF9191
:100A60001F910C9484041F920F920FB60F921124C1
:100A70002F933F938F939F93AF93BF9380910601E2
:100A800090910701A0910801B091090130910501F1
:100A900023E0230F2D3758F50196A11DB11D20939A
:100AA00005018093060190930701A0930801B0937C
:100AB000090180910A0190910B01A0910C01B09164
:100AC0000D010196A11DB11D80930A0190930B01A8
:100AD000A0930C01B0930D01BF91AF919F918F91A5
:100AE0003F912F910F900FBE0F901F90189526E801
:100AF000230F0296A11DB11DD2CF789484B58260D8
:100B000084BD84B5816084BD85B5826085BD85B5B1
:100B1000816085BD80916E00816080936E0010922F
:100B200081008091810082608093810080918100AA
:100B3000816080938100809180008160809380003B
:100B40008091B10084608093B1008091B000816099
:100B50008093B00080917A00846080937A008091C5
:100B60007A00826080937A0080917A00816080931D
:100B70007A0080917A00806880937A001092C10098
:100B800061E088E00E94B20460E082E00E94B2046A
:100B900061E086E00E94B20461E087E00E94B20456
:100BA000CFB7F89480910001811127C0ECEFF7E0F6
:100BB0008491E0E1F8E09491E82FF0E0EE0FFF1F60
:100BC000EC52F84FA591B491EC91E92321F461E046
:100BD0008AE00E94840461E08AE00E94B2048CB53D
:100BE00080618CBD8CB580648CBD61E08DE00E941D
:100BF000B20461E08BE00E94B204809100018F5F3B
:100C000080930001CFBF8CB58C7F81608CBD8DB58A
:100C10008E7F8DBD8FEF0E94080561E088E00E9405
:100C2000840461E086E00E94840461E087E00E9421
:100C30008404D0E0C0E0CE01880F991FFC01E85980
:100C4000FF4F25913491B22E6E0122E0C20ED11CCD
:100C5000FC01E659FF4F05911491F12CE12C17FF8F
:100C60001EC01F772396FC01E459FF4FE590F490D6
:100C700001501109D0F0B7018B2D0E940F05F8CF5C
:100C8000FE01EE0DFF1DEE0FFF1FE459FF4F6591B2
:100C900074918B2D0E940F052FEFE21AF20AE016D5
:100CA000F10671F7E701CC0DDD1DC63B23E0D2074D
:100CB0000CF4C1CF68EE7BE883E00E940F056FE47F
:100CC0007FE48BE00E940F0570E060E082E00E940C
:100CD0000F058CB58C7F8CBD8DB58E7F8DBD64E48A
:100CE0007CEA85E00E940F0560E270E48AE00E94E1
:100CF0000F0590E0E92E90E0F92E04E018E1B8012C
:100D000087E00E940F050E946004892BE1F360E0F8
:100D100086E00E94840483E00E94080586E00E9429
:100D200008058FEF0E9408050E946004892BE1F3FB
:100D30008FEF0E940805C82F0E946004892BE1F301
:100D400061E086E00E94840480900101909002019D
:100D5000A0900301B0900401CF716C2F70E090E07F
:100D600080E00E94AC07A50194010E943808A5010B
:100D700094010E9408070E9474074B018CE00E94B6
:100D80000F0566277727681979098DE00E940F05FE
:100D90000E94E3042B013C018AEF882E912CA12CA8
:100DA000B12C0E94E3046419750986099709683E0D
:100DB000734081059105A8F381E0881A9108A10884
:100DC000B10828EE420E23E0521E611C711C8114F2
:100DD0009104A104B10429F70F5F1F4F033188E18B
:100DE000180709F08CCFE114F10409F486CF0E94B2
:100DF000000083CF87ED93E8A3E2B3E48093010181
:100E000090930201A0930301B093040108955058F8
:100E1000BB27AA270E941F070C94FE070E94F00719
:100E200038F00E94F70720F039F49F3F19F426F4B8
:100E30000C94ED070EF4E095E7FB0C94E707E92F1F
:100E40000E940F0858F3BA176207730784079507C3
:100E500020F079F4A6F50C9431080EF4E0950B2EF1
:100E6000BA2FA02D0B01B90190010C01CA01A001FC
:100E70001124FF27591B99F0593F50F4503E68F157
:100E80001A16F040A22F232F342F4427585FF3CF98
:100E9000469537952795A795F0405395C9F77EF469
:100EA0001F16BA0B620B730B840BBAF09150A1F0B2
:100EB000FF0FBB1F661F771F881FC2F70EC0BA0F38
:100EC000621F731F841F48F4879577956795B795C0
:100ED000F7959E3F08F0B0CF9395880F08F09927BB
:100EE000EE0F9795879508950E947B076894B1113E
:100EF0000C94320808950E94170888F09F5798F0C4
:100F0000B92F9927B751B0F0E1F0660F771F881F0E
:100F1000991F1AF0BA95C9F714C0B13091F00E9428
:100F20003108B1E008950C943108672F782F882795
:100F3000B85F39F0B93FCCF3869577956795B3954F
:100F4000D9F73EF490958095709561957F4F8F4FBE
:100F50009F4F0895E89409C097FB3EF490958095C3
:100F6000709561957F4F8F4F9F4F9923A9F0F92F6F
:100F700096E9BB279395F695879577956795B795ED
:100F8000F111F8CFFAF4BB0F11F460FF1BC06F5FD3
:100F90007F4F8F4F9F4F16C0882311F096E911C0E5
:100FA000772321F09EE8872F762F05C0662371F006
:100FB00096E8862F70E060E02AF09A95660F771F1A
:100FC000881FDAF7880F9695879597F9089597F90E
:100FD0009F6780E870E060E008959FEF80EC0895DF
:100FE00000240A9416161706180609060895002408
:100FF0000A9412161306140605060895092E039482
:10100000000C11F4882352F0BB0F40F4BF2B11F4F5
:1010100060FF04C06F5F7F4F8F4F9F4F089557FD54
:101020009058440F551F59F05F3F71F04795880F56
:1010300097FB991F61F09F3F79F0879508951216ED
:1010400013061406551FF2CF4695F1DF08C0161699
:1010500017061806991FF1CF86957105610508944A
:101060000895E894BB2766277727CB0197F9089561
:101070000E944B080C94FE070E94F00738F00E9473
:10108000F70720F0952311F00C94E7070C94ED0777
:1010900011240C9432080E940F0870F3959FC1F33D
:1010A000950F50E0551F629FF001729FBB27F00D16
:1010B000B11D639FAA27F00DB11DAA1F649F66276B
:1010C000B00DA11D661F829F2227B00DA11D621FBA
:1010D000739FB00DA11D621F839FA00D611D221F74
:1010E000749F3327A00D611D231F849F600D211D58
:1010F000822F762F6A2F11249F5750409AF0F1F0DB
:1011000088234AF0EE0FFF1FBB1F661F771F881F43
:1011100091505040A9F79E3F510580F00C94E7078D
:101120000C9432085F3FE4F3983ED4F386957795AC
:101130006795B795F795E7959F5FC1F7FE2B880FE9
:10114000911D9695879597F90895EE0FFF1F0590CD
:0A115000F491E02D0994F894FFCF0C
:107E0000112484B714BE81FFF0D085E080938100F7
:107E100082E08093C00088E18093C10086E0809377
:107E2000C20080E18093C4008EE0C9D0259A86E02C
:107E300020E33CEF91E0309385002093840096BBD3
:107E4000B09BFECF1D9AA8958150A9F7CC24DD24C4
:107E500088248394B5E0AB2EA1E19A2EF3E0BF2EE7
:107E6000A2D0813461F49FD0082FAFD0023811F036
:107E7000013811F484E001C083E08DD089C08234E0
:107E800011F484E103C0853419F485E0A6D080C0E4
:107E9000853579F488D0E82EFF2485D0082F10E0AE
:107EA000102F00270E291F29000F111F8ED06801E7
:107EB0006FC0863521F484E090D080E0DECF843638
:107EC00009F040C070D06FD0082F6DD080E0C81688
:107ED00080E7D80618F4F601B7BEE895C0E0D1E017
:107EE00062D089930C17E1F7F0E0CF16F0E7DF06D8
:107EF00018F0F601B7BEE89568D007B600FCFDCFD4
:107F0000A601A0E0B1E02C9130E011968C91119780
:107F100090E0982F8827822B932B1296FA010C0160
:107F200087BEE89511244E5F5F4FF1E0A038BF0790
:107F300051F7F601A7BEE89507B600FCFDCF97BE46
:107F4000E89526C08437B1F42ED02DD0F82E2BD052
:107F50003CD0F601EF2C8F010F5F1F4F84911BD097
:107F6000EA94F801C1F70894C11CD11CFA94CF0C13
:107F7000D11C0EC0853739F428D08EE10CD085E9AC
:107F80000AD08FE07ACF813511F488E018D01DD067
:107F900080E101D065CF982F8091C00085FFFCCF94
:107FA0009093C60008958091C00087FFFCCF809118
:107FB000C00084FD01C0A8958091C6000895E0E648
:107FC000F0E098E1908380830895EDDF803219F02E
:107FD00088E0F5DFFFCF84E1DECF1F93182FE3DFCA
:107FE0001150E9F7F2DF1F91089580E0E8DFEE27F6
:047FF000FF270994CA
:027FFE00040479
:00000001FF
