:020000040000FA
:100000000C9461000C947E000C947E000C947E0095
:100010000C947E000C947E000C947E000C947E0068
:100020000C947E000C947E000C947E000C947E0058
:100030000C947E000C947E000C947E000C947E0048
:100040000C9457010C947E000C947E000C947E005E
:100050000C947E000C947E000C947E000C947E0028
:100060000C947E000C947E00000000002400270009
:100070002A0000000000250028002B0000000000DE
:1000800023002600290004040404040404040202DA
:100090000202020203030303030301020408102007
:1000A0004080010204081020010204081020000012
:1000B0000008000201000003040700000000000027
:1000C000000011241FBECFEFD8E0DEBFCDBF11E08E
:1000D000A0E0B1E0E6E0F9E002C005900D92A430A6
:1000E000B107D9F721E0A4E0B1E001C01D92A6312B
:1000F000B207E1F70E94A1010C9481040C94000066
:10010000833081F028F4813099F08230A9F008958D
:100110008730A9F08830C9F08430B1F48091800034
:100120008F7D03C0809180008F7780938000089539
:1001300084B58F7784BD089584B58F7DFBCF809182
:10014000B0008F778093B00008958091B0008F7DCC
:10015000F9CFCF93DF93E0EBF0E08491ECE9F0E0AE
:10016000D491E8E8F0E0C491CC23A1F081110E9481
:100170008000EC2FF0E0EE0FFF1FE458FF4FA59139
:10018000B491EC91ED2381E090E009F480E0DF91FF
:10019000CF91089580E090E0FACF1F93CF93DF9343
:1001A000282F30E0F901E255FF4F8491F901E6561E
:1001B000FF4FD491F901EA57FF4FC491CC23A9F026
:1001C000162F81110E948000EC2FF0E0EE0FFF1F30
:1001D000EE58FF4FA591B4918FB7F894EC9111119F
:1001E00008C0D095DE23DC938FBFDF91CF911F91A4
:1001F0000895DE2BF8CFCF93DF9390E0FC01E65615
:10020000FF4F24918A579F4FFC0184918823D1F09E
:1002100090E0880F991FFC01E859FF4FA591B49118
:10022000FC01EE58FF4FC591D49161110EC09FB7EC
:10023000F8948C91E22FE0958E238C932881E22311
:10024000E8839FBFDF91CF9108958FB7F894EC9129
:10025000E22BEC938FBFF6CF8EBD00000DB407FEEE
:10026000FDCF8EB508951F93CF93DF93182FEB0129
:100270000E94A900892BE1F360E086E00E94CD0096
:1002800082E00E942C01812F0E942C018D2F0E9460
:100290002C018C2F0E942C010E94A900892BE1F3D4
:1002A00061E086E0DF91CF911F910C94CD001F9209
:1002B0000F920FB60F9211242F933F938F939F931A
:1002C000AF93BF938091120190911301A0911401FB
:1002D000B09115013091110123E0230F2D3758F50E
:1002E0000196A11DB11D20931101809312019093DD
:1002F0001301A0931401B093150180910D01909109
:100300000E01A0910F01B09110010196A11DB11D28
:1003100080930D0190930E01A0930F01B0931001F3
:10032000BF91AF919F918F913F912F910F900FBEF1
:100330000F901F90189526E8230F0296A11DB11D5E
:10034000D2CFCF93DF93CDB7DEB728970FB6F8940F
:10035000DEBF0FBECDBF789484B5826084BD84B506
:10036000816084BD85B5826085BD85B5816085BDB0
:1003700080916E00816080936E0010928100809168
:1003800081008260809381008091810081608093F0
:100390008100809180008160809380008091B10015
:1003A00084608093B1008091B00081608093B00040
:1003B00080917A00846080937A0080917A008260D4
:1003C00080937A0080917A00816080937A00809196
:1003D0007A00806880937A001092C10061E088E022
:1003E0000E94FB0060E082E00E94FB0061E086E08A
:1003F0000E94FB0061E087E00E94FB00FFB6F894DA
:1004000080910401811127C0E0E9F0E08491E4EAE1
:10041000F0E09491E82FF0E0EE0FFF1FE859FF4F56
:10042000A591B491EC91E92321F461E08AE00E9466
:10043000CD0061E08AE00E94FB008CB580618CBD3C
:100440008CB580648CBD61E08DE00E94FB0061E0B2
:100450008BE00E94FB00809104018F5F8093040178
:10046000FFBE8CB58C7F81608CBD8DB58E7F8DBDC0
:100470008FEF0E942C0161E088E00E94CD0061E0D6
:1004800086E00E94CD0061E087E00E94CD0060E040
:1004900070E683E00E9433016FE57FE58BE00E9408
:1004A00033018CB58C7F8CBD8DB58E7F8DBD64E4A2
:1004B0007CEA85E00E94330160E270E48AE00E94F9
:1004C00033014090090150900A0160900B01709037
:1004D0000C01C0900001D0900101E0900201F09069
:1004E00003018090050190900601A0900701B09053
:1004F0000801A7019601C301B2010E94270320E071
:1005000030E040E251E40E9414042AE037ED43EA6F
:100510005BE30E941404A70196010E9428036D83E7
:100520007E838F839887609300017093010180938D
:1005300002019093030120E030E040EE51E4C70156
:10054000B6010E941404A30192010E94270369834B
:100550007A838B839C83A5019401C701B6010E9415
:1005600014049B01AC0169817A818B819C810E947A
:1005700027032AE037ED43EA5BE30E941404A3015A
:1005800092010E94280369837A838B839C83609302
:10059000090170930A0180930B0190930C01A7014C
:1005A0009601C301B2010E9414046B017C01A501F4
:1005B0009401C501B4010E9428039B01AC01C7014D
:1005C000B6010E9427032AE037ED43EA5BE30E946D
:1005D0001404A50194010E942803609305017093FF
:1005E0000601809307019093080120E030E040ED80
:1005F00052E46D817E818F8198850E94140420E0F1
:1006000030E040E055E40E9428030E9494038CE00F
:100610000E94330120E030E040ED52E469817A81AC
:100620008B819C810E94140420E030E040E055E47E
:100630000E9428030E9494038DE00E94330180E011
:1006400090E0892B09F43DCF0E9400003ACF50582A
:10065000BB27AA270E943F030C94DA030E94CC0315
:1006600038F00E94D30320F039F49F3F19F426F4A8
:100670000C94C9030EF4E095E7FB0C94C303E92F37
:100680000E94EB0358F3BA176207730784079507B4
:1006900020F079F4A6F50C940D040EF4E0950B2EE1
:1006A000BA2FA02D0B01B90190010C01CA01A001C4
:1006B0001124FF27591B99F0593F50F4503E68F11F
:1006C0001A16F040A22F232F342F4427585FF3CF60
:1006D000469537952795A795F0405395C9F77EF431
:1006E0001F16BA0B620B730B840BBAF09150A1F07A
:1006F000FF0FBB1F661F771F881FC2F70EC0BA0F00
:10070000621F731F841F48F4879577956795B79587
:10071000F7959E3F08F0B0CF9395880F08F0992782
:10072000EE0F9795879508950E94F30388F09F57E1
:1007300098F0B92F9927B751B0F0E1F0660F771F05
:10074000881F991F1AF0BA95C9F714C0B13091F0FB
:100750000E940D04B1E008950C940D04672F782FCA
:100760008827B85F39F0B93FCCF3869577956795C0
:10077000B395D9F73EF490958095709561957F4F2C
:100780008F4F9F4F089597F99F6780E870E060E072
:1007900008959FEF80EC089500240A94161617061A
:1007A00018060906089500240A9412161306140662
:1007B00005060895092E0394000C11F4882352F0C5
:1007C000BB0F40F4BF2B11F460FF04C06F5F7F4F7D
:1007D0008F4F9F4F089557FD9058440F551F59F064
:1007E0005F3F71F04795880F97FB991F61F09F3F1E
:1007F00079F087950895121613061406551FF2CF47
:100800004695F1DF08C0161617061806991FF1CF96
:1008100086957105610508940895E894BB276627BD
:100820007727CB0197F908950E9427040C94DA03E7
:100830000E94CC0338F00E94D30320F0952311F0DE
:100840000C94C3030C94C90311240C940E040E944D
:10085000EB0370F3959FC1F3950F50E0551F629F16
:10086000F001729FBB27F00DB11D639FAA27F00D09
:10087000B11DAA1F649F6627B00DA11D661F829F30
:100880002227B00DA11D621F739FB00DA11D621F15
:10089000839FA00D611D221F749F3327A00D611D32
:1008A000231F849F600D211D822F762F6A2F112414
:1008B0009F5750409AF0F1F088234AF0EE0FFF1F47
:1008C000BB1F661F771F881F91505040A9F79E3F9E
:1008D000510580F00C94C3030C940E045F3FE4F3C5
:1008E000983ED4F3869577956795B795F795E795F4
:1008F0009F5FC1F7FE2B880F911D9695879597F9FD
:0A0900000895F894FFCF0000803F37
:107E0000112484B714BE81FFF0D085E080938100F7
:107E100082E08093C00088E18093C10086E0809377
:107E2000C20080E18093C4008EE0C9D0259A86E02C
:107E300020E33CEF91E0309385002093840096BBD3
:107E4000B09BFECF1D9AA8958150A9F7CC24DD24C4
:107E500088248394B5E0AB2EA1E19A2EF3E0BF2EE7
:107E6000A2D0813461F49FD0082FAFD0023811F036
:107E7000013811F484E001C083E08DD089C08234E0
:107E800011F484E103C0853419F485E0A6D080C0E4
:107E9000853579F488D0E82EFF2485D0082F10E0AE
:107EA000102F00270E291F29000F111F8ED06801E7
:107EB0006FC0863521F484E090D080E0DECF843638
:107EC00009F040C070D06FD0082F6DD080E0C81688
:107ED00080E7D80618F4F601B7BEE895C0E0D1E017
:107EE00062D089930C17E1F7F0E0CF16F0E7DF06D8
:107EF00018F0F601B7BEE89568D007B600FCFDCFD4
:107F0000A601A0E0B1E02C9130E011968C91119780
:107F100090E0982F8827822B932B1296FA010C0160
:107F200087BEE89511244E5F5F4FF1E0A038BF0790
:107F300051F7F601A7BEE89507B600FCFDCF97BE46
:107F4000E89526C08437B1F42ED02DD0F82E2BD052
:107F50003CD0F601EF2C8F010F5F1F4F84911BD097
:107F6000EA94F801C1F70894C11CD11CFA94CF0C13
:107F7000D11C0EC0853739F428D08EE10CD085E9AC
:107F80000AD08FE07ACF813511F488E018D01DD067
:107F900080E101D065CF982F8091C00085FFFCCF94
:107FA0009093C60008958091C00087FFFCCF809118
:107FB000C00084FD01C0A8958091C6000895E0E648
:107FC000F0E098E1908380830895EDDF803219F02E
:107FD00088E0F5DFFFCF84E1DECF1F93182FE3DFCA
:107FE0001150E9F7F2DF1F91089580E0E8DFEE27F6
:047FF000FF270994CA
:027FFE00040479
:00000001FF
