:020000040000FA
:100000000C9461000C947E000C947E000C947E0095
:100010000C947E000C947E000C947E000C947E0068
:100020000C947E000C947E000C947E000C947E0058
:100030000C947E000C947E000C947E000C947E0048
:100040000C9457010C947E000C947E000C947E005E
:100050000C947E000C947E000C947E000C947E0028
:100060000C947E000C947E00000000002400270009
:100070002A0000000000250028002B0000000000DE
:1000800023002600290004040404040404040202DA
:100090000202020203030303030301020408102007
:1000A0004080010204081020010204081020000012
:1000B0000008000201000003040700000000000027
:1000C000000011241FBECFEFD8E0DEBFCDBF11E08E
:1000D000A0E0B1E0E4EBFAE002C005900D92A0359B
:1000E000B107D9F721E0A0E5B1E001C01D92AA3522
:1000F000B207E1F70E94A1010C9458050C9400008E
:10010000833081F028F4813099F08230A9F008958D
:100110008730A9F08830C9F08430B1F48091800034
:100120008F7D03C0809180008F7780938000089539
:1001300084B58F7784BD089584B58F7DFBCF809182
:10014000B0008F778093B00008958091B0008F7DCC
:10015000F9CFCF93DF93E0EBF0E08491ECE9F0E0AE
:10016000D491E8E8F0E0C491CC23A1F081110E9481
:100170008000EC2FF0E0EE0FFF1FE458FF4FA59139
:10018000B491EC91ED2381E090E009F480E0DF91FF
:10019000CF91089580E090E0FACF1F93CF93DF9343
:1001A000282F30E0F901E255FF4F8491F901E6561E
:1001B000FF4FD491F901EA57FF4FC491CC23A9F026
:1001C000162F81110E948000EC2FF0E0EE0FFF1F30
:1001D000EE58FF4FA591B4918FB7F894EC9111119F
:1001E00008C0D095DE23DC938FBFDF91CF911F91A4
:1001F0000895DE2BF8CFCF93DF9390E0FC01E65615
:10020000FF4F24918A579F4FFC0184918823D1F09E
:1002100090E0880F991FFC01E859FF4FA591B49118
:10022000FC01EE58FF4FC591D49161110EC09FB7EC
:10023000F8948C91E22FE0958E238C932881E22311
:10024000E8839FBFDF91CF9108958FB7F894EC9129
:10025000E22BEC938FBFF6CF8EBD00000DB407FEEE
:10026000FDCF8EB508951F93CF93DF93182FEB0129
:100270000E94A900892BE1F360E086E00E94CD0096
:1002800082E00E942C01812F0E942C018D2F0E9460
:100290002C018C2F0E942C010E94A900892BE1F3D4
:1002A00061E086E0DF91CF911F910C94CD001F9209
:1002B0000F920FB60F9211242F933F938F939F931A
:1002C000AF93BF938091560190915701A09158012F
:1002D000B09159013091550123E0230F2D3758F586
:1002E0000196A11DB11D2093550180935601909355
:1002F0005701A0935801B0935901809151019091F9
:100300005201A0915301B09154010196A11DB11D5C
:100310008093510190935201A0935301B0935401E3
:10032000BF91AF919F918F913F912F910F900FBEF1
:100330000F901F90189526E8230F0296A11DB11D5E
:10034000D2CF789484B5826084BD84B5816084BD49
:1003500085B5826085BD85B5816085BD80916E0063
:10036000816080936E001092810080918100826094
:1003700080938100809181008160809381008091D1
:1003800080008160809380008091B10084608093C0
:10039000B1008091B00081608093B00080917A00BC
:1003A000846080937A0080917A00826080937A00E2
:1003B00080917A00816080937A0080917A008068D1
:1003C00080937A001092C10061E088E00E94FB00F7
:1003D00060E082E00E94FB0061E086E00E94FB009A
:1003E00061E087E00E94FB00CFB7F8948091500154
:1003F000811127C0E0E9F0E08491E4EAF0E0949113
:10040000E82FF0E0EE0FFF1FE859FF4FA591B491E0
:10041000EC91E92321F461E08AE00E94CD0061E0E3
:100420008AE00E94FB008CB580618CBD8CB5806435
:100430008CBD61E08DE00E94FB0061E08BE00E94DA
:10044000FB00809150018F5F80935001CFBF8CB52E
:100450008C7F81608CBD8DB58E7F8DBD8FEF0E94AE
:100460002C0161E088E00E94CD0061E086E00E94FE
:10047000CD0061E087E00E94CD0068EE7BE883E07C
:100480000E9433016FE37FE38BE00E9433018CB560
:100490008C7F8CBD8DB58E7F8DBDC9E0D1E02FE402
:1004A000E22E21E0F22EEC16FD0609F099C083E061
:1004B000382E9FE7C92ED12CE12CF12C00E410E05E
:1004C000C0E0D0E08090010190900201A090030173
:1004D000B09004012DEC3CEC4CE650E4C501B401B5
:1004E0000E94B7042B013C01A501940160E070E07B
:1004F00080E89FE30E94CA039B01AC01C301B201E3
:100500000E94B7046093010170930201809303017C
:100510009093040120E030E04EEF52E40E94B704D3
:100520000E943704A62E0E94A900892BE1F360E007
:1005300087E00E94CD008EE50E942C0180E80E9499
:100540002C018CE40E942C0184E10E942C0182E6A3
:100550000E942C018A2D632D0E94240580E9890FB9
:100560000E942C01B12C9501A8E2B0E00E94BB03CF
:10057000A70196010E94670388E1820F0E942C0167
:100580000E945703B8010E943005805D0E942C0133
:100590009090000180E09920A1F10E942C0189E94E
:1005A0000E942C019501A5E2B0E00E94BB03A701C7
:1005B00096010E94670383E2820F0E942C0180E66D
:1005C0000E942C0161E087E00E94CD0081E0982626
:1005D00090920001209709F475CF0E94000072CF1D
:1005E00019910E94A900892BE1F360E087E00E9445
:1005F000CD00812F0E942C0161E087E00E94CD0098
:1006000052CF0E942C0189E90E942C0183E20E94B2
:100610002C0180E7D5CF8F929F92AF92BF92CF925D
:10062000DF92EF92FF92CF93DF93EC0168817981A3
:100630008A819B81611571058105910521F464E230
:1006400079ED8BE597E02DE133EF41E050E00E943A
:10065000670349015A019B01AC01A7EAB1E40E947A
:1006600086036B017C01ACEEB4EFA50194010E94FE
:100670009403DC01CB018C0D9D1DAE1DBF1DB7FF8A
:1006800003C00197A109B04888839983AA83BB83DB
:100690009F77DF91CF91FF90EF90DF90CF90BF9049
:1006A000AF909F908F9008950E940B03089585E06E
:1006B00091E00E940B030895B0E0A0E08093050153
:1006C00090930601A0930701B09308010895052EA9
:1006D00097FB1EF400940E947E0357FD07D00E94F2
:1006E000990307FC03D04EF40C947E03509540957B
:1006F000309521953F4F4F4F5F4F089590958095CE
:10070000709561957F4F8F4F9F4F08950E94BB0357
:10071000A59F900DB49F900DA49F800D911D112455
:100720000895B7FF0C9486030E948603821B930BE7
:100730000895A1E21A2EAA1BBB1BFD010DC0AA1F22
:10074000BB1FEE1FFF1FA217B307E407F50720F03A
:10075000A21BB30BE40BF50B661F771F881F991FB5
:100760001A9469F760957095809590959B01AC01FE
:10077000BD01CF010895A29FB001B39FC001A39F07
:10078000700D811D1124911DB29F700D811D1124CA
:10079000911D08955058BB27AA270E94E2030C948C
:1007A0007D040E946F0438F00E94760420F039F432
:1007B0009F3F19F426F40C946C040EF4E095E7FBCB
:1007C0000C946604E92F0E948E0458F3BA1762074E
:1007D00073078407950720F079F4A6F50C94B0040C
:1007E0000EF4E0950B2EBA2FA02D0B01B90190014C
:1007F0000C01CA01A0011124FF27591B99F0593F90
:1008000050F4503E68F11A16F040A22F232F342FD7
:100810004427585FF3CF469537952795A795F04025
:100820005395C9F77EF41F16BA0B620B730B840B3A
:10083000BAF09150A1F0FF0FBB1F661F771F881FF2
:10084000C2F70EC0BA0F621F731F841F48F487954A
:1008500077956795B795F7959E3F08F0B0CF93953C
:10086000880F08F09927EE0F9795879508950E94B5
:10087000960488F09F5798F0B92F9927B751B0F098
:10088000E1F0660F771F881F991F1AF0BA95C9F714
:1008900014C0B13091F00E94B004B1E008950C94FE
:1008A000B004672F782F8827B85F39F0B93FCCF3B1
:1008B000869577956795B395D9F73EF49095809591
:1008C000709561957F4F8F4F9F4F089597F99F6760
:1008D00080E870E060E008959FEF80EC08950024C8
:1008E0000A941616170618060906089500240A9495
:1008F00012161306140605060895092E0394000C1B
:1009000011F4882352F0BB0F40F4BF2B11F460FFA9
:1009100004C06F5F7F4F8F4F9F4F089557FD9058D2
:10092000440F551F59F05F3F71F04795880F97FBB3
:10093000991F61F09F3F79F087950895121613066D
:100940001406551FF2CF4695F1DF08C0161617069C
:100950001806991FF1CF86957105610508940895D1
:10096000E894BB2766277727CB0197F908950E9463
:10097000CA040C947D040E946F0438F00E9476042F
:1009800020F0952311F00C9466040C946C0411244F
:100990000C94B1040E948E0470F3959FC1F3950FDF
:1009A00050E0551F629FF001729FBB27F00DB11DF3
:1009B000639FAA27F00DB11DAA1F649F6627B00D83
:1009C000A11D661F829F2227B00DA11D621F739F6C
:1009D000B00DA11D621F839FA00D611D221F749F7A
:1009E0003327A00D611D231F849F600D211D822FC1
:1009F000762F6A2F11249F5750409AF0F1F08823E8
:100A00004AF0EE0FFF1FBB1F661F771F881F915014
:100A10005040A9F79E3F510580F00C9466040C9459
:100A2000B1045F3FE4F3983ED4F3869577956795DC
:100A3000B795F795E7959F5FC1F7FE2B880F911D3E
:100A40009695879597F90895991B79E004C0991FA9
:100A5000961708F0961B881F7A95C9F78095089518
:100A600097FB072E16F4009407D077FD09D00E945B
:100A7000440507FC05D03EF4909581959F4F08955D
:100A8000709561957F4F0895AA1BBB1B51E107C06C
:100A9000AA1FBB1FA617B70710F0A61BB70B881F0E
:100AA000991F5A95A9F780959095BC01CD0108959D
:100AB000F894FFCF01CDCCCC3D010000004D54682F
:100AC00064000000060000000101E04D54726B005C
:100AD0000002C300FF510307A12000FF58040402D5
:100AE000080800C00D00B00A2000B05B6000C164BF
:100AF00000B10A4000B15B6000C26C00B20A600045
:040B0000B25B600084
:107E0000112484B714BE81FFF0D085E080938100F7
:107E100082E08093C00088E18093C10086E0809377
:107E2000C20080E18093C4008EE0C9D0259A86E02C
:107E300020E33CEF91E0309385002093840096BBD3
:107E4000B09BFECF1D9AA8958150A9F7CC24DD24C4
:107E500088248394B5E0AB2EA1E19A2EF3E0BF2EE7
:107E6000A2D0813461F49FD0082FAFD0023811F036
:107E7000013811F484E001C083E08DD089C08234E0
:107E800011F484E103C0853419F485E0A6D080C0E4
:107E9000853579F488D0E82EFF2485D0082F10E0AE
:107EA000102F00270E291F29000F111F8ED06801E7
:107EB0006FC0863521F484E090D080E0DECF843638
:107EC00009F040C070D06FD0082F6DD080E0C81688
:107ED00080E7D80618F4F601B7BEE895C0E0D1E017
:107EE00062D089930C17E1F7F0E0CF16F0E7DF06D8
:107EF00018F0F601B7BEE89568D007B600FCFDCFD4
:107F0000A601A0E0B1E02C9130E011968C91119780
:107F100090E0982F8827822B932B1296FA010C0160
:107F200087BEE89511244E5F5F4FF1E0A038BF0790
:107F300051F7F601A7BEE89507B600FCFDCF97BE46
:107F4000E89526C08437B1F42ED02DD0F82E2BD052
:107F50003CD0F601EF2C8F010F5F1F4F84911BD097
:107F6000EA94F801C1F70894C11CD11CFA94CF0C13
:107F7000D11C0EC0853739F428D08EE10CD085E9AC
:107F80000AD08FE07ACF813511F488E018D01DD067
:107F900080E101D065CF982F8091C00085FFFCCF94
:107FA0009093C60008958091C00087FFFCCF809118
:107FB000C00084FD01C0A8958091C6000895E0E648
:107FC000F0E098E1908380830895EDDF803219F02E
:107FD00088E0F5DFFFCF84E1DECF1F93182FE3DFCA
:107FE0001150E9F7F2DF1F91089580E0E8DFEE27F6
:047FF000FF270994CA
:027FFE00040479
:00000001FF
